{"contracts/LSAGVotingSystemTest.sol":{"LSAGVotingSystemTest":{"abi":[{"inputs":[{"internalType":"address","name":"_registrationContract","type":"address"},{"internalType":"address","name":"_voterRegistrationContract","type":"address"},{"internalType":"address","name":"_votingAndTallyingContract","type":"address"}],"stateMutability":"nonpayable","type":"constructor"},{"anonymous":false,"inputs":[{"indexed":false,"internalType":"string","name":"testName","type":"string"},{"indexed":false,"internalType":"bool","name":"passed","type":"bool"},{"indexed":false,"internalType":"string","name":"message","type":"string"}],"name":"TestResult","type":"event"},{"inputs":[],"name":"ELECTION_ID","outputs":[{"internalType":"bytes32","name":"","type":"bytes32"}],"stateMutability":"view","type":"function"},{"inputs":[],"name":"RANDOM_CHALLENGE","outputs":[{"internalType":"bytes32","name":"","type":"bytes32"}],"stateMutability":"view","type":"function"},{"inputs":[],"name":"electionAuthority","outputs":[{"internalType":"address","name":"","type":"address"}],"stateMutability":"view","type":"function"},{"inputs":[],"name":"getFinalResults","outputs":[{"internalType":"bytes32[]","name":"candidates","type":"bytes32[]"},{"internalType":"uint256[]","name":"voteCounts","type":"uint256[]"}],"stateMutability":"view","type":"function"},{"inputs":[],"name":"getVotingStatistics","outputs":[{"internalType":"uint256","name":"totalRegistered","type":"uint256"},{"internalType":"uint256","name":"votesCast","type":"uint256"},{"internalType":"uint256","name":"votesTallied","type":"uint256"},{"internalType":"string","name":"currentPhase","type":"string"}],"stateMutability":"view","type":"function"},{"inputs":[],"name":"registrationContract","outputs":[{"internalType":"contract IRegistrationContract","name":"","type":"address"}],"stateMutability":"view","type":"function"},{"inputs":[],"name":"resetSystem","outputs":[],"stateMutability":"nonpayable","type":"function"},{"inputs":[],"name":"runCompleteTest","outputs":[],"stateMutability":"nonpayable","type":"function"},{"inputs":[{"internalType":"uint256","name":"","type":"uint256"}],"name":"testCandidates","outputs":[{"internalType":"bytes32","name":"","type":"bytes32"}],"stateMutability":"view","type":"function"},{"inputs":[],"name":"voterRegistrationContract","outputs":[{"internalType":"contract IVoterRegistrationContract","name":"","type":"address"}],"stateMutability":"view","type":"function"},{"inputs":[],"name":"votingAndTallyingContract","outputs":[{"internalType":"contract IVotingAndTallyingContract","name":"","type":"address"}],"stateMutability":"view","type":"function"}],"evm":{"bytecode":{"linkReferences":{},"object":"608060405234801561001057600080fd5b506040516137063803806137068339818101604052810190610032919061027b565b33600360006101000a81548173ffffffffffffffffffffffffffffffffffffffff021916908373ffffffffffffffffffffffffffffffffffffffff16021790555060047fa920f654de320029fce1af80f639c4e3f4482b8715df243f47fce9969f69f258908060018154018082558091505060019003906000526020600020016000909190919091505560047fa54011c2f2148886b31c9bdb6be065216e67b122684bb264cd83f93694bcad03908060018154018082558091505060019003906000526020600020016000909190919091505560047f7ef259229f68734842a464eccf72bb7eb258ac217ed88a9c89a68b909173f5c59080600181540180825580915050600190039060005260206000200160009091909190915055826000806101000a81548173ffffffffffffffffffffffffffffffffffffffff021916908373ffffffffffffffffffffffffffffffffffffffff16021790555081600160006101000a81548173ffffffffffffffffffffffffffffffffffffffff021916908373ffffffffffffffffffffffffffffffffffffffff16021790555080600260006101000a81548173ffffffffffffffffffffffffffffffffffffffff021916908373ffffffffffffffffffffffffffffffffffffffff1602179055505050506102ce565b600080fd5b600073ffffffffffffffffffffffffffffffffffffffff82169050919050565b60006102488261021d565b9050919050565b6102588161023d565b811461026357600080fd5b50565b6000815190506102758161024f565b92915050565b60008060006060848603121561029457610293610218565b5b60006102a286828701610266565b93505060206102b386828701610266565b92505060406102c486828701610266565b9150509250925092565b613429806102dd6000396000f3fe608060405234801561001057600080fd5b50600436106100a85760003560e01c806382a85fe41161007157806382a85fe414610147578063b417595614610151578063b9f108861461016f578063bb89694c1461018d578063cbc85f8014610197578063dc46d6ea146101c7576100a8565b80628a3332146100ad5780631e522c3e146100ce5780632a332fe9146100ec5780634286f3fe1461010a578063785ba4de14610128575b600080fd5b6100b56101e5565b6040516100c59493929190611920565b60405180910390f35b6100d6610290565b6040516100e391906119eb565b60405180910390f35b6100f46102b4565b6040516101019190611a1f565b60405180910390f35b6101126102d8565b60405161011f9190611a1f565b60405180910390f35b6101306102fc565b60405161013e929190611bb6565b60405180910390f35b61014f61039d565b005b6101596104af565b6040516101669190611c0e565b60405180910390f35b6101776104d5565b6040516101849190611c4a565b60405180910390f35b6101956104fb565b005b6101b160048036038101906101ac9190611ca5565b6105bd565b6040516101be9190611a1f565b60405180910390f35b6101cf6105e1565b6040516101dc9190611cf3565b60405180910390f35b60008060006060600260009054906101000a900473ffffffffffffffffffffffffffffffffffffffff1673ffffffffffffffffffffffffffffffffffffffff166376804a036040518163ffffffff1660e01b8152600401600060405180830381865afa158015610259573d6000803e3d6000fd5b505050506040513d6000823e3d601f19601f820116820180604052508101906102829190611e49565b935093509350935090919293565b60008054906101000a900473ffffffffffffffffffffffffffffffffffffffff1681565b7fc3e41e2721e22d2b2915c8a1d31bc056fd925575cbf970d66c634343b7ce770581565b7f354af27b35e66ef4ec1896f54b85cf3eafc3a635234e138c6156eba408374dac81565b606080600260009054906101000a900473ffffffffffffffffffffffffffffffffffffffff1673ffffffffffffffffffffffffffffffffffffffff1663a7a218486040518163ffffffff1660e01b8152600401600060405180830381865afa15801561036c573d6000803e3d6000fd5b505050506040513d6000823e3d601f19601f820116820180604052508101906103959190612083565b915091509091565b600360009054906101000a900473ffffffffffffffffffffffffffffffffffffffff1673ffffffffffffffffffffffffffffffffffffffff163373ffffffffffffffffffffffffffffffffffffffff161461042d576040517f08c379a00000000000000000000000000000000000000000000000000000000081526004016104249061216d565b60405180910390fd5b60008054906101000a900473ffffffffffffffffffffffffffffffffffffffff1673ffffffffffffffffffffffffffffffffffffffff16637ed58d9e6040518163ffffffff1660e01b8152600401600060405180830381600087803b15801561049557600080fd5b505af11580156104a9573d6000803e3d6000fd5b50505050565b600160009054906101000a900473ffffffffffffffffffffffffffffffffffffffff1681565b600260009054906101000a900473ffffffffffffffffffffffffffffffffffffffff1681565b600360009054906101000a900473ffffffffffffffffffffffffffffffffffffffff1673ffffffffffffffffffffffffffffffffffffffff163373ffffffffffffffffffffffffffffffffffffffff161461058b576040517f08c379a0000000000000000000000000000000000000000000000000000000008152600401610582906121ff565b60405180910390fd5b610593610607565b61059b610872565b6105a3610b92565b6105ab610e5e565b6105b3611272565b6105bb611637565b565b600481815481106105cd57600080fd5b906000526020600020016000915090505481565b600360009054906101000a900473ffffffffffffffffffffffffffffffffffffffff1681565b60008054906101000a900473ffffffffffffffffffffffffffffffffffffffff1673ffffffffffffffffffffffffffffffffffffffff16631b12acb57fc3e41e2721e22d2b2915c8a1d31bc056fd925575cbf970d66c634343b7ce770560047f354af27b35e66ef4ec1896f54b85cf3eafc3a635234e138c6156eba408374dac6040518463ffffffff1660e01b81526004016106a5939291906122f5565b6020604051808303816000875af19250505080156106e157506040513d601f19601f820116820180604052508101906106de919061236b565b60015b61075d576106ed6123a5565b806308c379a00361074c57506107016123c7565b8061070c575061074e565b7f8ded0018aee3555da4abd779e14b4af76bd1dd7caf6ac46b76386b28db137e4e60008260405161073e9291906124b2565b60405180910390a150610758565b505b3d6000803e3d6000fd5b610870565b5060008060009054906101000a900473ffffffffffffffffffffffffffffffffffffffff1673ffffffffffffffffffffffffffffffffffffffff16637c2f3c2c6040518163ffffffff1660e01b8152600401602060405180830381865afa1580156107cc573d6000803e3d6000fd5b505050506040513d601f19601f820116820180604052508101906107f0919061236b565b90508015610835577f8ded0018aee3555da4abd779e14b4af76bd1dd7caf6ac46b76386b28db137e4e60016040516108289190612567565b60405180910390a161086e565b7f8ded0018aee3555da4abd779e14b4af76bd1dd7caf6ac46b76386b28db137e4e600060405161086591906125f4565b60405180910390a15b505b565b60007f3c7a08889f262708fd769dfd573a5c15903f443d0cd0126646b51b2d18e226e96040516020016108a59190612656565b604051602081830303815290604052905060007f7b802fcdb08705336acae16c1720f5a2ff33fba1ebd1a0af1e956d9a4c0cc2ff6040516020016108e99190612656565b604051602081830303815290604052905060007fbd3d1905982ea1d3f92915979a8ebdc4041622e908a2f22188f8ef67f8562f1760405160200161092d9190612656565b60405160208183030381529060405290506000604051806060016040528085815260200184815260200183815250905060008054906101000a900473ffffffffffffffffffffffffffffffffffffffff1673ffffffffffffffffffffffffffffffffffffffff1663fca5a068826040518263ffffffff1660e01b81526004016109b69190612724565b6020604051808303816000875af19250505080156109f257506040513d601f19601f820116820180604052508101906109ef919061236b565b60015b610a6e576109fe6123a5565b806308c379a003610a5d5750610a126123c7565b80610a1d5750610a5f565b7f8ded0018aee3555da4abd779e14b4af76bd1dd7caf6ac46b76386b28db137e4e600082604051610a4f929190612792565b60405180910390a150610a69565b505b3d6000803e3d6000fd5b610b8c565b5060008060009054906101000a900473ffffffffffffffffffffffffffffffffffffffff1673ffffffffffffffffffffffffffffffffffffffff16639e63420c846040518263ffffffff1660e01b8152600401610acb919061281f565b602060405180830381865afa158015610ae8573d6000803e3d6000fd5b505050506040513d601f19601f82011682018060405250810190610b0c919061236b565b90508015610b51577f8ded0018aee3555da4abd779e14b4af76bd1dd7caf6ac46b76386b28db137e4e6001604051610b44919061288d565b60405180910390a1610b8a565b7f8ded0018aee3555da4abd779e14b4af76bd1dd7caf6ac46b76386b28db137e4e6000604051610b819190612940565b60405180910390a15b505b50505050565b60007f789d932a9c8c3b8ac473555a7f1706d13000187a8818643e1e58a2625744a463604051602001610bc59190612656565b604051602081830303815290604052905060007fea60eb8d479139f999ae7b1d266c6f71a119bc835f488b476515fdc696b94655604051602001610c099190612656565b6040516020818303038152906040529050600160009054906101000a900473ffffffffffffffffffffffffffffffffffffffff1673ffffffffffffffffffffffffffffffffffffffff1663f7e83aee83836040518363ffffffff1660e01b8152600401610c77929190612981565b6020604051808303816000875af1925050508015610cb357506040513d601f19601f82011682018060405250810190610cb091906129b8565b60015b610d2f57610cbf6123a5565b806308c379a003610d1e5750610cd36123c7565b80610cde5750610d20565b7f8ded0018aee3555da4abd779e14b4af76bd1dd7caf6ac46b76386b28db137e4e600082604051610d10929190612a31565b60405180910390a150610d2a565b505b3d6000803e3d6000fd5b610e5a565b6000600160009054906101000a900473ffffffffffffffffffffffffffffffffffffffff1673ffffffffffffffffffffffffffffffffffffffff1663579a6988836040518263ffffffff1660e01b8152600401610d8c9190612a74565b602060405180830381865afa158015610da9573d6000803e3d6000fd5b505050506040513d601f19601f82011682018060405250810190610dcd919061236b565b9050808015610ddc5750600082145b15610e1e577f8ded0018aee3555da4abd779e14b4af76bd1dd7caf6ac46b76386b28db137e4e6001604051610e119190612b01565b60405180910390a1610e57565b7f8ded0018aee3555da4abd779e14b4af76bd1dd7caf6ac46b76386b28db137e4e6000604051610e4e9190612bb4565b60405180910390a15b50505b5050565b600260009054906101000a900473ffffffffffffffffffffffffffffffffffffffff1673ffffffffffffffffffffffffffffffffffffffff1663cb43284e6040518163ffffffff1660e01b81526004016020604051808303816000875af1925050508015610eea57506040513d601f19601f82011682018060405250810190610ee7919061236b565b60015b610f8557610ef66123a5565b806308c379a003610f745750610f0a6123c7565b80610f155750610f76565b7f8ded0018aee3555da4abd779e14b4af76bd1dd7caf6ac46b76386b28db137e4e600082604051602001610f499190612c7d565b604051602081830303815290604052604051610f66929190612ceb565b60405180910390a150610f80565b505b3d6000803e3d6000fd5b611270565b5060007fde0211924bbceac4e98451fda0d31f1d2602a54c04b1ab75a3af74f268f39a00604051602001610fb99190612656565b604051602081830303815290604052905060007fc3e41e2721e22d2b2915c8a1d31bc056fd925575cbf970d66c634343b7ce7705604051602001610ffd9190612d7a565b6040516020818303038152906040528051906020012090506000600260009054906101000a900473ffffffffffffffffffffffffffffffffffffffff1673ffffffffffffffffffffffffffffffffffffffff1663ec1e16b38484846040518463ffffffff1660e01b815260040161107693929190612da0565b6020604051808303816000875af19250505080156110b257506040513d601f19601f820116820180604052508101906110af919061236b565b60015b61114d576110be6123a5565b806308c379a00361113c57506110d26123c7565b806110dd575061113e565b7f8ded0018aee3555da4abd779e14b4af76bd1dd7caf6ac46b76386b28db137e4e6000826040516020016111119190612e2a565b60405160208183030381529060405260405161112e929190612ceb565b60405180910390a150611148565b505b3d6000803e3d6000fd5b61126c565b506000600260009054906101000a900473ffffffffffffffffffffffffffffffffffffffff1673ffffffffffffffffffffffffffffffffffffffff1663ecca031f836040518263ffffffff1660e01b81526004016111ab9190612a74565b602060405180830381865afa1580156111c8573d6000803e3d6000fd5b505050506040513d601f19601f820116820180604052508101906111ec919061236b565b90508015611231577f8ded0018aee3555da4abd779e14b4af76bd1dd7caf6ac46b76386b28db137e4e60016040516112249190612e98565b60405180910390a161126a565b7f8ded0018aee3555da4abd779e14b4af76bd1dd7caf6ac46b76386b28db137e4e60006040516112619190612f25565b60405180910390a15b505b5050505b565b600260009054906101000a900473ffffffffffffffffffffffffffffffffffffffff1673ffffffffffffffffffffffffffffffffffffffff1663924d7ec26040518163ffffffff1660e01b81526004016020604051808303816000875af19250505080156112fe57506040513d601f19601f820116820180604052508101906112fb919061236b565b60015b6113995761130a6123a5565b806308c379a003611388575061131e6123c7565b80611329575061138a565b7f8ded0018aee3555da4abd779e14b4af76bd1dd7caf6ac46b76386b28db137e4e60008260405160200161135d9190612fb2565b60405160208183030381529060405260405161137a929190613020565b60405180910390a150611394565b505b3d6000803e3d6000fd5b611635565b50600060046000815481106113b1576113b0613063565b5b90600052602060002001546040516020016113cc9190612656565b60405160208183030381529060405290506000600260009054906101000a900473ffffffffffffffffffffffffffffffffffffffff1673ffffffffffffffffffffffffffffffffffffffff1663e06d859783836040518363ffffffff1660e01b815260040161143c929190613092565b6020604051808303816000875af192505050801561147857506040513d601f19601f82011682018060405250810190611475919061236b565b60015b611513576114846123a5565b806308c379a00361150257506114986123c7565b806114a35750611504565b7f8ded0018aee3555da4abd779e14b4af76bd1dd7caf6ac46b76386b28db137e4e6000826040516020016114d7919061310e565b6040516020818303038152906040526040516114f4929190613020565b60405180910390a15061150e565b505b3d6000803e3d6000fd5b611632565b506000600260009054906101000a900473ffffffffffffffffffffffffffffffffffffffff1673ffffffffffffffffffffffffffffffffffffffff1663c416ec04836040518263ffffffff1660e01b81526004016115719190612a74565b602060405180830381865afa15801561158e573d6000803e3d6000fd5b505050506040513d601f19601f820116820180604052508101906115b2919061236b565b905080156115f7577f8ded0018aee3555da4abd779e14b4af76bd1dd7caf6ac46b76386b28db137e4e60016040516115ea919061317c565b60405180910390a1611630565b7f8ded0018aee3555da4abd779e14b4af76bd1dd7caf6ac46b76386b28db137e4e60006040516116279190613209565b60405180910390a15b505b50505b565b600260009054906101000a900473ffffffffffffffffffffffffffffffffffffffff1673ffffffffffffffffffffffffffffffffffffffff1663f7d3d4f36040518163ffffffff1660e01b81526004016020604051808303816000875af19250505080156116c357506040513d601f19601f820116820180604052508101906116c0919061236b565b60015b61173f576116cf6123a5565b806308c379a00361172e57506116e36123c7565b806116ee5750611730565b7f8ded0018aee3555da4abd779e14b4af76bd1dd7caf6ac46b76386b28db137e4e600082604051611720929190613296565b60405180910390a15061173a565b505b3d6000803e3d6000fd5b611875565b50600080600260009054906101000a900473ffffffffffffffffffffffffffffffffffffffff1673ffffffffffffffffffffffffffffffffffffffff1663a7a218486040518163ffffffff1660e01b8152600401600060405180830381865afa1580156117b0573d6000803e3d6000fd5b505050506040513d6000823e3d601f19601f820116820180604052508101906117d99190612083565b9150915060048054905082511480156117f757506004805490508151145b15611839577f8ded0018aee3555da4abd779e14b4af76bd1dd7caf6ac46b76386b28db137e4e600160405161182c9190613325565b60405180910390a1611872565b7f8ded0018aee3555da4abd779e14b4af76bd1dd7caf6ac46b76386b28db137e4e600060405161186991906133b2565b60405180910390a15b50505b565b6000819050919050565b61188a81611877565b82525050565b600081519050919050565b600082825260208201905092915050565b60005b838110156118ca5780820151818401526020810190506118af565b60008484015250505050565b6000601f19601f8301169050919050565b60006118f282611890565b6118fc818561189b565b935061190c8185602086016118ac565b611915816118d6565b840191505092915050565b60006080820190506119356000830187611881565b6119426020830186611881565b61194f6040830185611881565b818103606083015261196181846118e7565b905095945050505050565b600073ffffffffffffffffffffffffffffffffffffffff82169050919050565b6000819050919050565b60006119b16119ac6119a78461196c565b61198c565b61196c565b9050919050565b60006119c382611996565b9050919050565b60006119d5826119b8565b9050919050565b6119e5816119ca565b82525050565b6000602082019050611a0060008301846119dc565b92915050565b6000819050919050565b611a1981611a06565b82525050565b6000602082019050611a346000830184611a10565b92915050565b600081519050919050565b600082825260208201905092915050565b6000819050602082019050919050565b611a6f81611a06565b82525050565b6000611a818383611a66565b60208301905092915050565b6000602082019050919050565b6000611aa582611a3a565b611aaf8185611a45565b9350611aba83611a56565b8060005b83811015611aeb578151611ad28882611a75565b9750611add83611a8d565b925050600181019050611abe565b5085935050505092915050565b600081519050919050565b600082825260208201905092915050565b6000819050602082019050919050565b611b2d81611877565b82525050565b6000611b3f8383611b24565b60208301905092915050565b6000602082019050919050565b6000611b6382611af8565b611b6d8185611b03565b9350611b7883611b14565b8060005b83811015611ba9578151611b908882611b33565b9750611b9b83611b4b565b925050600181019050611b7c565b5085935050505092915050565b60006040820190508181036000830152611bd08185611a9a565b90508181036020830152611be48184611b58565b90509392505050565b6000611bf8826119b8565b9050919050565b611c0881611bed565b82525050565b6000602082019050611c236000830184611bff565b92915050565b6000611c34826119b8565b9050919050565b611c4481611c29565b82525050565b6000602082019050611c5f6000830184611c3b565b92915050565b6000604051905090565b600080fd5b600080fd5b611c8281611877565b8114611c8d57600080fd5b50565b600081359050611c9f81611c79565b92915050565b600060208284031215611cbb57611cba611c6f565b5b6000611cc984828501611c90565b91505092915050565b6000611cdd8261196c565b9050919050565b611ced81611cd2565b82525050565b6000602082019050611d086000830184611ce4565b92915050565b600081519050611d1d81611c79565b92915050565b600080fd5b600080fd5b7f4e487b7100000000000000000000000000000000000000000000000000000000600052604160045260246000fd5b611d65826118d6565b810181811067ffffffffffffffff82111715611d8457611d83611d2d565b5b80604052505050565b6000611d97611c65565b9050611da38282611d5c565b919050565b600067ffffffffffffffff821115611dc357611dc2611d2d565b5b611dcc826118d6565b9050602081019050919050565b6000611dec611de784611da8565b611d8d565b905082815260208101848484011115611e0857611e07611d28565b5b611e138482856118ac565b509392505050565b600082601f830112611e3057611e2f611d23565b5b8151611e40848260208601611dd9565b91505092915050565b60008060008060808587031215611e6357611e62611c6f565b5b6000611e7187828801611d0e565b9450506020611e8287828801611d0e565b9350506040611e9387828801611d0e565b925050606085015167ffffffffffffffff811115611eb457611eb3611c74565b5b611ec087828801611e1b565b91505092959194509250565b600067ffffffffffffffff821115611ee757611ee6611d2d565b5b602082029050602081019050919050565b600080fd5b611f0681611a06565b8114611f1157600080fd5b50565b600081519050611f2381611efd565b92915050565b6000611f3c611f3784611ecc565b611d8d565b90508083825260208201905060208402830185811115611f5f57611f5e611ef8565b5b835b81811015611f885780611f748882611f14565b845260208401935050602081019050611f61565b5050509392505050565b600082601f830112611fa757611fa6611d23565b5b8151611fb7848260208601611f29565b91505092915050565b600067ffffffffffffffff821115611fdb57611fda611d2d565b5b602082029050602081019050919050565b6000611fff611ffa84611fc0565b611d8d565b9050808382526020820190506020840283018581111561202257612021611ef8565b5b835b8181101561204b57806120378882611d0e565b845260208401935050602081019050612024565b5050509392505050565b600082601f83011261206a57612069611d23565b5b815161207a848260208601611fec565b91505092915050565b6000806040838503121561209a57612099611c6f565b5b600083015167ffffffffffffffff8111156120b8576120b7611c74565b5b6120c485828601611f92565b925050602083015167ffffffffffffffff8111156120e5576120e4611c74565b5b6120f185828601612055565b9150509250929050565b7f4f6e6c7920656c656374696f6e20617574686f726974792063616e207265736560008201527f7400000000000000000000000000000000000000000000000000000000000000602082015250565b600061215760218361189b565b9150612162826120fb565b604082019050919050565b600060208201905081810360008301526121868161214a565b9050919050565b7f4f6e6c7920656c656374696f6e20617574686f726974792063616e2072756e2060008201527f7465737473000000000000000000000000000000000000000000000000000000602082015250565b60006121e960258361189b565b91506121f48261218d565b604082019050919050565b60006020820190508181036000830152612218816121dc565b9050919050565b600081549050919050565b60008190508160005260206000209050919050565b60008160001c9050919050565b6000819050919050565b60006122696122648361223f565b61224c565b9050919050565b600061227c8254612256565b9050919050565b6000600182019050919050565b600061229b8261221f565b6122a58185611a45565b93506122b08361222a565b8060005b838110156122e8576122c582612270565b6122cf8882611a75565b97506122da83612283565b9250506001810190506122b4565b5085935050505092915050565b600060608201905061230a6000830186611a10565b818103602083015261231c8185612290565b905061232b6040830184611a10565b949350505050565b60008115159050919050565b61234881612333565b811461235357600080fd5b50565b6000815190506123658161233f565b92915050565b60006020828403121561238157612380611c6f565b5b600061238f84828501612356565b91505092915050565b60008160e01c9050919050565b600060033d11156123c45760046000803e6123c1600051612398565b90505b90565b600060443d10612454576123d9611c65565b60043d036004823e80513d602482011167ffffffffffffffff82111715612401575050612454565b808201805167ffffffffffffffff81111561241f5750505050612454565b80602083010160043d03850181111561243c575050505050612454565b61244b82602001850186611d5c565b82955050505050505b90565b7f456c656374696f6e205365747570000000000000000000000000000000000000600082015250565b600061248d600e8361189b565b915061249882612457565b602082019050919050565b6124ac81612333565b82525050565b600060608201905081810360008301526124cb81612480565b90506124da60208301856124a3565b81810360408301526124ec81846118e7565b90509392505050565b7f456c656374696f6e20706172616d65746572732073746f72656420737563636560008201527f737366756c6c7900000000000000000000000000000000000000000000000000602082015250565b600061255160278361189b565b915061255c826124f5565b604082019050919050565b6000606082019050818103600083015261258081612480565b905061258f60208301846124a3565b81810360408301526125a081612544565b905092915050565b7f456c656374696f6e20736574757020666c6167206e6f74207365740000000000600082015250565b60006125de601b8361189b565b91506125e9826125a8565b602082019050919050565b6000606082019050818103600083015261260d81612480565b905061261c60208301846124a3565b818103604083015261262d816125d1565b905092915050565b6000819050919050565b61265061264b82611a06565b612635565b82525050565b6000612662828461263f565b60208201915081905092915050565b600081519050919050565b600082825260208201905092915050565b600061269882612671565b6126a2818561267c565b93506126b28185602086016118ac565b6126bb816118d6565b840191505092915050565b600060608301600083015184820360008601526126e3828261268d565b915050602083015184820360208601526126fd828261268d565b91505060408301518482036040860152612717828261268d565b9150508091505092915050565b6000602082019050818103600083015261273e81846126c6565b905092915050565b7f43657274696669636174652053746f7261676500000000000000000000000000600082015250565b600061277c60138361189b565b915061278782612746565b602082019050919050565b600060608201905081810360008301526127ab8161276f565b90506127ba60208301856124a3565b81810360408301526127cc81846118e7565b90509392505050565b600082825260208201905092915050565b60006127f182612671565b6127fb81856127d5565b935061280b8185602086016118ac565b612814816118d6565b840191505092915050565b6000602082019050818103600083015261283981846127e6565b905092915050565b7f43657274696669636174652073746f72656420616e6420766572696669656400600082015250565b6000612877601f8361189b565b915061288282612841565b602082019050919050565b600060608201905081810360008301526128a68161276f565b90506128b560208301846124a3565b81810360408301526128c68161286a565b905092915050565b7f4365727469666963617465206e6f7420666f756e642061667465722073746f7260008201527f6167650000000000000000000000000000000000000000000000000000000000602082015250565b600061292a60238361189b565b9150612935826128ce565b604082019050919050565b600060608201905081810360008301526129598161276f565b905061296860208301846124a3565b81810360408301526129798161291d565b905092915050565b6000604082019050818103600083015261299b81856127e6565b905081810360208301526129af81846127e6565b90509392505050565b6000602082840312156129ce576129cd611c6f565b5b60006129dc84828501611d0e565b91505092915050565b7f566f74657220526567697374726174696f6e0000000000000000000000000000600082015250565b6000612a1b60128361189b565b9150612a26826129e5565b602082019050919050565b60006060820190508181036000830152612a4a81612a0e565b9050612a5960208301856124a3565b8181036040830152612a6b81846118e7565b90509392505050565b6000602082019050612a896000830184611881565b92915050565b7f566f7465722072656769737465726564207375636365737366756c6c7920776960008201527f746820696e646578203000000000000000000000000000000000000000000000602082015250565b6000612aeb602a8361189b565b9150612af682612a8f565b604082019050919050565b60006060820190508181036000830152612b1a81612a0e565b9050612b2960208301846124a3565b8181036040830152612b3a81612ade565b905092915050565b7f566f74657220726567697374726174696f6e20766572696669636174696f6e2060008201527f6661696c65640000000000000000000000000000000000000000000000000000602082015250565b6000612b9e60268361189b565b9150612ba982612b42565b604082019050919050565b60006060820190508181036000830152612bcd81612a0e565b9050612bdc60208301846124a3565b8181036040830152612bed81612b91565b905092915050565b600081905092915050565b7f5374617274696e6720766f74696e67207068617365206661696c65643a200000600082015250565b6000612c36601e83612bf5565b9150612c4182612c00565b601e82019050919050565b6000612c5782611890565b612c618185612bf5565b9350612c718185602086016118ac565b80840191505092915050565b6000612c8882612c29565b9150612c948284612c4c565b915081905092915050565b7f566f74696e672050686173650000000000000000000000000000000000000000600082015250565b6000612cd5600c8361189b565b9150612ce082612c9f565b602082019050919050565b60006060820190508181036000830152612d0481612cc8565b9050612d1360208301856124a3565b8181036040830152612d2581846118e7565b90509392505050565b7f564f54455f5349474e4154555245000000000000000000000000000000000000600082015250565b6000612d64600e83612bf5565b9150612d6f82612d2e565b600e82019050919050565b6000612d8582612d57565b9150612d91828461263f565b60208201915081905092915050565b60006060820190508181036000830152612dba81866127e6565b9050612dc96020830185611a10565b612dd66040830184611881565b949350505050565b7f566f74652063617374696e67206661696c65643a200000000000000000000000600082015250565b6000612e14601583612bf5565b9150612e1f82612dde565b601582019050919050565b6000612e3582612e07565b9150612e418284612c4c565b915081905092915050565b7f566f74652063617374207375636365737366756c6c7900000000000000000000600082015250565b6000612e8260168361189b565b9150612e8d82612e4c565b602082019050919050565b60006060820190508181036000830152612eb181612cc8565b9050612ec060208301846124a3565b8181036040830152612ed181612e75565b905092915050565b7f566f7465206e6f74207265636f72646564000000000000000000000000000000600082015250565b6000612f0f60118361189b565b9150612f1a82612ed9565b602082019050919050565b60006060820190508181036000830152612f3e81612cc8565b9050612f4d60208301846124a3565b8181036040830152612f5e81612f02565b905092915050565b7f5374617274696e672074616c6c79696e67207068617365206661696c65643a20600082015250565b6000612f9c602083612bf5565b9150612fa782612f66565b602082019050919050565b6000612fbd82612f8f565b9150612fc98284612c4c565b915081905092915050565b7f54616c6c79696e67205068617365000000000000000000000000000000000000600082015250565b600061300a600e8361189b565b915061301582612fd4565b602082019050919050565b6000606082019050818103600083015261303981612ffd565b905061304860208301856124a3565b818103604083015261305a81846118e7565b90509392505050565b7f4e487b7100000000000000000000000000000000000000000000000000000000600052603260045260246000fd5b600060408201905081810360008301526130ac81856127e6565b90506130bb6020830184611881565b9392505050565b7f566f74652074616c6c79696e67206661696c65643a2000000000000000000000600082015250565b60006130f8601683612bf5565b9150613103826130c2565b601682019050919050565b6000613119826130eb565b91506131258284612c4c565b915081905092915050565b7f566f74652074616c6c696564207375636365737366756c6c7900000000000000600082015250565b600061316660198361189b565b915061317182613130565b602082019050919050565b6000606082019050818103600083015261319581612ffd565b90506131a460208301846124a3565b81810360408301526131b581613159565b905092915050565b7f566f7465206e6f742074616c6c69656400000000000000000000000000000000600082015250565b60006131f360108361189b565b91506131fe826131bd565b602082019050919050565b6000606082019050818103600083015261322281612ffd565b905061323160208301846124a3565b8181036040830152613242816131e6565b905092915050565b7f526573756c74732046696e616c697a6174696f6e000000000000000000000000600082015250565b600061328060148361189b565b915061328b8261324a565b602082019050919050565b600060608201905081810360008301526132af81613273565b90506132be60208301856124a3565b81810360408301526132d081846118e7565b90509392505050565b7f526573756c74732066696e616c697a6564207375636365737366756c6c790000600082015250565b600061330f601e8361189b565b915061331a826132d9565b602082019050919050565b6000606082019050818103600083015261333e81613273565b905061334d60208301846124a3565b818103604083015261335e81613302565b905092915050565b7f526573756c74732073747275637475726520696e636f72726563740000000000600082015250565b600061339c601b8361189b565b91506133a782613366565b602082019050919050565b600060608201905081810360008301526133cb81613273565b90506133da60208301846124a3565b81810360408301526133eb8161338f565b90509291505056fea264697066735822122068bc4f584dadbc080ba2f37f87331b26ded909ccd6c5a076bdff84394a8317c864736f6c634300081c0033","opcodes":"PUSH1 0x80 PUSH1 0x40 MSTORE CALLVALUE DUP1 ISZERO PUSH2 0x10 JUMPI PUSH1 0x0 DUP1 REVERT JUMPDEST POP PUSH1 0x40 MLOAD PUSH2 0x3706 CODESIZE SUB DUP1 PUSH2 0x3706 DUP4 CODECOPY DUP2 DUP2 ADD PUSH1 0x40 MSTORE DUP2 ADD SWAP1 PUSH2 0x32 SWAP2 SWAP1 PUSH2 0x27B JUMP JUMPDEST CALLER PUSH1 0x3 PUSH1 0x0 PUSH2 0x100 EXP DUP2 SLOAD DUP2 PUSH20 0xFFFFFFFFFFFFFFFFFFFFFFFFFFFFFFFFFFFFFFFF MUL NOT AND SWAP1 DUP4 PUSH20 0xFFFFFFFFFFFFFFFFFFFFFFFFFFFFFFFFFFFFFFFF AND MUL OR SWAP1 SSTORE POP PUSH1 0x4 PUSH32 0xA920F654DE320029FCE1AF80F639C4E3F4482B8715DF243F47FCE9969F69F258 SWAP1 DUP1 PUSH1 0x1 DUP2 SLOAD ADD DUP1 DUP3 SSTORE DUP1 SWAP2 POP POP PUSH1 0x1 SWAP1 SUB SWAP1 PUSH1 0x0 MSTORE PUSH1 0x20 PUSH1 0x0 KECCAK256 ADD PUSH1 0x0 SWAP1 SWAP2 SWAP1 SWAP2 SWAP1 SWAP2 POP SSTORE PUSH1 0x4 PUSH32 0xA54011C2F2148886B31C9BDB6BE065216E67B122684BB264CD83F93694BCAD03 SWAP1 DUP1 PUSH1 0x1 DUP2 SLOAD ADD DUP1 DUP3 SSTORE DUP1 SWAP2 POP POP PUSH1 0x1 SWAP1 SUB SWAP1 PUSH1 0x0 MSTORE PUSH1 0x20 PUSH1 0x0 KECCAK256 ADD PUSH1 0x0 SWAP1 SWAP2 SWAP1 SWAP2 SWAP1 SWAP2 POP SSTORE PUSH1 0x4 PUSH32 0x7EF259229F68734842A464ECCF72BB7EB258AC217ED88A9C89A68B909173F5C5 SWAP1 DUP1 PUSH1 0x1 DUP2 SLOAD ADD DUP1 DUP3 SSTORE DUP1 SWAP2 POP POP PUSH1 0x1 SWAP1 SUB SWAP1 PUSH1 0x0 MSTORE PUSH1 0x20 PUSH1 0x0 KECCAK256 ADD PUSH1 0x0 SWAP1 SWAP2 SWAP1 SWAP2 SWAP1 SWAP2 POP SSTORE DUP3 PUSH1 0x0 DUP1 PUSH2 0x100 EXP DUP2 SLOAD DUP2 PUSH20 0xFFFFFFFFFFFFFFFFFFFFFFFFFFFFFFFFFFFFFFFF MUL NOT AND SWAP1 DUP4 PUSH20 0xFFFFFFFFFFFFFFFFFFFFFFFFFFFFFFFFFFFFFFFF AND MUL OR SWAP1 SSTORE POP DUP2 PUSH1 0x1 PUSH1 0x0 PUSH2 0x100 EXP DUP2 SLOAD DUP2 PUSH20 0xFFFFFFFFFFFFFFFFFFFFFFFFFFFFFFFFFFFFFFFF MUL NOT AND SWAP1 DUP4 PUSH20 0xFFFFFFFFFFFFFFFFFFFFFFFFFFFFFFFFFFFFFFFF AND MUL OR SWAP1 SSTORE POP DUP1 PUSH1 0x2 PUSH1 0x0 PUSH2 0x100 EXP DUP2 SLOAD DUP2 PUSH20 0xFFFFFFFFFFFFFFFFFFFFFFFFFFFFFFFFFFFFFFFF MUL NOT AND SWAP1 DUP4 PUSH20 0xFFFFFFFFFFFFFFFFFFFFFFFFFFFFFFFFFFFFFFFF AND MUL OR SWAP1 SSTORE POP POP POP POP PUSH2 0x2CE JUMP JUMPDEST PUSH1 0x0 DUP1 REVERT JUMPDEST PUSH1 0x0 PUSH20 0xFFFFFFFFFFFFFFFFFFFFFFFFFFFFFFFFFFFFFFFF DUP3 AND SWAP1 POP SWAP2 SWAP1 POP JUMP JUMPDEST PUSH1 0x0 PUSH2 0x248 DUP3 PUSH2 0x21D JUMP JUMPDEST SWAP1 POP SWAP2 SWAP1 POP JUMP JUMPDEST PUSH2 0x258 DUP2 PUSH2 0x23D JUMP JUMPDEST DUP2 EQ PUSH2 0x263 JUMPI PUSH1 0x0 DUP1 REVERT JUMPDEST POP JUMP JUMPDEST PUSH1 0x0 DUP2 MLOAD SWAP1 POP PUSH2 0x275 DUP2 PUSH2 0x24F JUMP JUMPDEST SWAP3 SWAP2 POP POP JUMP JUMPDEST PUSH1 0x0 DUP1 PUSH1 0x0 PUSH1 0x60 DUP5 DUP7 SUB SLT ISZERO PUSH2 0x294 JUMPI PUSH2 0x293 PUSH2 0x218 JUMP JUMPDEST JUMPDEST PUSH1 0x0 PUSH2 0x2A2 DUP7 DUP3 DUP8 ADD PUSH2 0x266 JUMP JUMPDEST SWAP4 POP POP PUSH1 0x20 PUSH2 0x2B3 DUP7 DUP3 DUP8 ADD PUSH2 0x266 JUMP JUMPDEST SWAP3 POP POP PUSH1 0x40 PUSH2 0x2C4 DUP7 DUP3 DUP8 ADD PUSH2 0x266 JUMP JUMPDEST SWAP2 POP POP SWAP3 POP SWAP3 POP SWAP3 JUMP JUMPDEST PUSH2 0x3429 DUP1 PUSH2 0x2DD PUSH1 0x0 CODECOPY PUSH1 0x0 RETURN INVALID PUSH1 0x80 PUSH1 0x40 MSTORE CALLVALUE DUP1 ISZERO PUSH2 0x10 JUMPI PUSH1 0x0 DUP1 REVERT JUMPDEST POP PUSH1 0x4 CALLDATASIZE LT PUSH2 0xA8 JUMPI PUSH1 0x0 CALLDATALOAD PUSH1 0xE0 SHR DUP1 PUSH4 0x82A85FE4 GT PUSH2 0x71 JUMPI DUP1 PUSH4 0x82A85FE4 EQ PUSH2 0x147 JUMPI DUP1 PUSH4 0xB4175956 EQ PUSH2 0x151 JUMPI DUP1 PUSH4 0xB9F10886 EQ PUSH2 0x16F JUMPI DUP1 PUSH4 0xBB89694C EQ PUSH2 0x18D JUMPI DUP1 PUSH4 0xCBC85F80 EQ PUSH2 0x197 JUMPI DUP1 PUSH4 0xDC46D6EA EQ PUSH2 0x1C7 JUMPI PUSH2 0xA8 JUMP JUMPDEST DUP1 PUSH3 0x8A3332 EQ PUSH2 0xAD JUMPI DUP1 PUSH4 0x1E522C3E EQ PUSH2 0xCE JUMPI DUP1 PUSH4 0x2A332FE9 EQ PUSH2 0xEC JUMPI DUP1 PUSH4 0x4286F3FE EQ PUSH2 0x10A JUMPI DUP1 PUSH4 0x785BA4DE EQ PUSH2 0x128 JUMPI JUMPDEST PUSH1 0x0 DUP1 REVERT JUMPDEST PUSH2 0xB5 PUSH2 0x1E5 JUMP JUMPDEST PUSH1 0x40 MLOAD PUSH2 0xC5 SWAP5 SWAP4 SWAP3 SWAP2 SWAP1 PUSH2 0x1920 JUMP JUMPDEST PUSH1 0x40 MLOAD DUP1 SWAP2 SUB SWAP1 RETURN JUMPDEST PUSH2 0xD6 PUSH2 0x290 JUMP JUMPDEST PUSH1 0x40 MLOAD PUSH2 0xE3 SWAP2 SWAP1 PUSH2 0x19EB JUMP JUMPDEST PUSH1 0x40 MLOAD DUP1 SWAP2 SUB SWAP1 RETURN JUMPDEST PUSH2 0xF4 PUSH2 0x2B4 JUMP JUMPDEST PUSH1 0x40 MLOAD PUSH2 0x101 SWAP2 SWAP1 PUSH2 0x1A1F JUMP JUMPDEST PUSH1 0x40 MLOAD DUP1 SWAP2 SUB SWAP1 RETURN JUMPDEST PUSH2 0x112 PUSH2 0x2D8 JUMP JUMPDEST PUSH1 0x40 MLOAD PUSH2 0x11F SWAP2 SWAP1 PUSH2 0x1A1F JUMP JUMPDEST PUSH1 0x40 MLOAD DUP1 SWAP2 SUB SWAP1 RETURN JUMPDEST PUSH2 0x130 PUSH2 0x2FC JUMP JUMPDEST PUSH1 0x40 MLOAD PUSH2 0x13E SWAP3 SWAP2 SWAP1 PUSH2 0x1BB6 JUMP JUMPDEST PUSH1 0x40 MLOAD DUP1 SWAP2 SUB SWAP1 RETURN JUMPDEST PUSH2 0x14F PUSH2 0x39D JUMP JUMPDEST STOP JUMPDEST PUSH2 0x159 PUSH2 0x4AF JUMP JUMPDEST PUSH1 0x40 MLOAD PUSH2 0x166 SWAP2 SWAP1 PUSH2 0x1C0E JUMP JUMPDEST PUSH1 0x40 MLOAD DUP1 SWAP2 SUB SWAP1 RETURN JUMPDEST PUSH2 0x177 PUSH2 0x4D5 JUMP JUMPDEST PUSH1 0x40 MLOAD PUSH2 0x184 SWAP2 SWAP1 PUSH2 0x1C4A JUMP JUMPDEST PUSH1 0x40 MLOAD DUP1 SWAP2 SUB SWAP1 RETURN JUMPDEST PUSH2 0x195 PUSH2 0x4FB JUMP JUMPDEST STOP JUMPDEST PUSH2 0x1B1 PUSH1 0x4 DUP1 CALLDATASIZE SUB DUP2 ADD SWAP1 PUSH2 0x1AC SWAP2 SWAP1 PUSH2 0x1CA5 JUMP JUMPDEST PUSH2 0x5BD JUMP JUMPDEST PUSH1 0x40 MLOAD PUSH2 0x1BE SWAP2 SWAP1 PUSH2 0x1A1F JUMP JUMPDEST PUSH1 0x40 MLOAD DUP1 SWAP2 SUB SWAP1 RETURN JUMPDEST PUSH2 0x1CF PUSH2 0x5E1 JUMP JUMPDEST PUSH1 0x40 MLOAD PUSH2 0x1DC SWAP2 SWAP1 PUSH2 0x1CF3 JUMP JUMPDEST PUSH1 0x40 MLOAD DUP1 SWAP2 SUB SWAP1 RETURN JUMPDEST PUSH1 0x0 DUP1 PUSH1 0x0 PUSH1 0x60 PUSH1 0x2 PUSH1 0x0 SWAP1 SLOAD SWAP1 PUSH2 0x100 EXP SWAP1 DIV PUSH20 0xFFFFFFFFFFFFFFFFFFFFFFFFFFFFFFFFFFFFFFFF AND PUSH20 0xFFFFFFFFFFFFFFFFFFFFFFFFFFFFFFFFFFFFFFFF AND PUSH4 0x76804A03 PUSH1 0x40 MLOAD DUP2 PUSH4 0xFFFFFFFF AND PUSH1 0xE0 SHL DUP2 MSTORE PUSH1 0x4 ADD PUSH1 0x0 PUSH1 0x40 MLOAD DUP1 DUP4 SUB DUP2 DUP7 GAS STATICCALL ISZERO DUP1 ISZERO PUSH2 0x259 JUMPI RETURNDATASIZE PUSH1 0x0 DUP1 RETURNDATACOPY RETURNDATASIZE PUSH1 0x0 REVERT JUMPDEST POP POP POP POP PUSH1 0x40 MLOAD RETURNDATASIZE PUSH1 0x0 DUP3 RETURNDATACOPY RETURNDATASIZE PUSH1 0x1F NOT PUSH1 0x1F DUP3 ADD AND DUP3 ADD DUP1 PUSH1 0x40 MSTORE POP DUP2 ADD SWAP1 PUSH2 0x282 SWAP2 SWAP1 PUSH2 0x1E49 JUMP JUMPDEST SWAP4 POP SWAP4 POP SWAP4 POP SWAP4 POP SWAP1 SWAP2 SWAP3 SWAP4 JUMP JUMPDEST PUSH1 0x0 DUP1 SLOAD SWAP1 PUSH2 0x100 EXP SWAP1 DIV PUSH20 0xFFFFFFFFFFFFFFFFFFFFFFFFFFFFFFFFFFFFFFFF AND DUP2 JUMP JUMPDEST PUSH32 0xC3E41E2721E22D2B2915C8A1D31BC056FD925575CBF970D66C634343B7CE7705 DUP2 JUMP JUMPDEST PUSH32 0x354AF27B35E66EF4EC1896F54B85CF3EAFC3A635234E138C6156EBA408374DAC DUP2 JUMP JUMPDEST PUSH1 0x60 DUP1 PUSH1 0x2 PUSH1 0x0 SWAP1 SLOAD SWAP1 PUSH2 0x100 EXP SWAP1 DIV PUSH20 0xFFFFFFFFFFFFFFFFFFFFFFFFFFFFFFFFFFFFFFFF AND PUSH20 0xFFFFFFFFFFFFFFFFFFFFFFFFFFFFFFFFFFFFFFFF AND PUSH4 0xA7A21848 PUSH1 0x40 MLOAD DUP2 PUSH4 0xFFFFFFFF AND PUSH1 0xE0 SHL DUP2 MSTORE PUSH1 0x4 ADD PUSH1 0x0 PUSH1 0x40 MLOAD DUP1 DUP4 SUB DUP2 DUP7 GAS STATICCALL ISZERO DUP1 ISZERO PUSH2 0x36C JUMPI RETURNDATASIZE PUSH1 0x0 DUP1 RETURNDATACOPY RETURNDATASIZE PUSH1 0x0 REVERT JUMPDEST POP POP POP POP PUSH1 0x40 MLOAD RETURNDATASIZE PUSH1 0x0 DUP3 RETURNDATACOPY RETURNDATASIZE PUSH1 0x1F NOT PUSH1 0x1F DUP3 ADD AND DUP3 ADD DUP1 PUSH1 0x40 MSTORE POP DUP2 ADD SWAP1 PUSH2 0x395 SWAP2 SWAP1 PUSH2 0x2083 JUMP JUMPDEST SWAP2 POP SWAP2 POP SWAP1 SWAP2 JUMP JUMPDEST PUSH1 0x3 PUSH1 0x0 SWAP1 SLOAD SWAP1 PUSH2 0x100 EXP SWAP1 DIV PUSH20 0xFFFFFFFFFFFFFFFFFFFFFFFFFFFFFFFFFFFFFFFF AND PUSH20 0xFFFFFFFFFFFFFFFFFFFFFFFFFFFFFFFFFFFFFFFF AND CALLER PUSH20 0xFFFFFFFFFFFFFFFFFFFFFFFFFFFFFFFFFFFFFFFF AND EQ PUSH2 0x42D JUMPI PUSH1 0x40 MLOAD PUSH32 0x8C379A000000000000000000000000000000000000000000000000000000000 DUP2 MSTORE PUSH1 0x4 ADD PUSH2 0x424 SWAP1 PUSH2 0x216D JUMP JUMPDEST PUSH1 0x40 MLOAD DUP1 SWAP2 SUB SWAP1 REVERT JUMPDEST PUSH1 0x0 DUP1 SLOAD SWAP1 PUSH2 0x100 EXP SWAP1 DIV PUSH20 0xFFFFFFFFFFFFFFFFFFFFFFFFFFFFFFFFFFFFFFFF AND PUSH20 0xFFFFFFFFFFFFFFFFFFFFFFFFFFFFFFFFFFFFFFFF AND PUSH4 0x7ED58D9E PUSH1 0x40 MLOAD DUP2 PUSH4 0xFFFFFFFF AND PUSH1 0xE0 SHL DUP2 MSTORE PUSH1 0x4 ADD PUSH1 0x0 PUSH1 0x40 MLOAD DUP1 DUP4 SUB DUP2 PUSH1 0x0 DUP8 DUP1 EXTCODESIZE ISZERO DUP1 ISZERO PUSH2 0x495 JUMPI PUSH1 0x0 DUP1 REVERT JUMPDEST POP GAS CALL ISZERO DUP1 ISZERO PUSH2 0x4A9 JUMPI RETURNDATASIZE PUSH1 0x0 DUP1 RETURNDATACOPY RETURNDATASIZE PUSH1 0x0 REVERT JUMPDEST POP POP POP POP JUMP JUMPDEST PUSH1 0x1 PUSH1 0x0 SWAP1 SLOAD SWAP1 PUSH2 0x100 EXP SWAP1 DIV PUSH20 0xFFFFFFFFFFFFFFFFFFFFFFFFFFFFFFFFFFFFFFFF AND DUP2 JUMP JUMPDEST PUSH1 0x2 PUSH1 0x0 SWAP1 SLOAD SWAP1 PUSH2 0x100 EXP SWAP1 DIV PUSH20 0xFFFFFFFFFFFFFFFFFFFFFFFFFFFFFFFFFFFFFFFF AND DUP2 JUMP JUMPDEST PUSH1 0x3 PUSH1 0x0 SWAP1 SLOAD SWAP1 PUSH2 0x100 EXP SWAP1 DIV PUSH20 0xFFFFFFFFFFFFFFFFFFFFFFFFFFFFFFFFFFFFFFFF AND PUSH20 0xFFFFFFFFFFFFFFFFFFFFFFFFFFFFFFFFFFFFFFFF AND CALLER PUSH20 0xFFFFFFFFFFFFFFFFFFFFFFFFFFFFFFFFFFFFFFFF AND EQ PUSH2 0x58B JUMPI PUSH1 0x40 MLOAD PUSH32 0x8C379A000000000000000000000000000000000000000000000000000000000 DUP2 MSTORE PUSH1 0x4 ADD PUSH2 0x582 SWAP1 PUSH2 0x21FF JUMP JUMPDEST PUSH1 0x40 MLOAD DUP1 SWAP2 SUB SWAP1 REVERT JUMPDEST PUSH2 0x593 PUSH2 0x607 JUMP JUMPDEST PUSH2 0x59B PUSH2 0x872 JUMP JUMPDEST PUSH2 0x5A3 PUSH2 0xB92 JUMP JUMPDEST PUSH2 0x5AB PUSH2 0xE5E JUMP JUMPDEST PUSH2 0x5B3 PUSH2 0x1272 JUMP JUMPDEST PUSH2 0x5BB PUSH2 0x1637 JUMP JUMPDEST JUMP JUMPDEST PUSH1 0x4 DUP2 DUP2 SLOAD DUP2 LT PUSH2 0x5CD JUMPI PUSH1 0x0 DUP1 REVERT JUMPDEST SWAP1 PUSH1 0x0 MSTORE PUSH1 0x20 PUSH1 0x0 KECCAK256 ADD PUSH1 0x0 SWAP2 POP SWAP1 POP SLOAD DUP2 JUMP JUMPDEST PUSH1 0x3 PUSH1 0x0 SWAP1 SLOAD SWAP1 PUSH2 0x100 EXP SWAP1 DIV PUSH20 0xFFFFFFFFFFFFFFFFFFFFFFFFFFFFFFFFFFFFFFFF AND DUP2 JUMP JUMPDEST PUSH1 0x0 DUP1 SLOAD SWAP1 PUSH2 0x100 EXP SWAP1 DIV PUSH20 0xFFFFFFFFFFFFFFFFFFFFFFFFFFFFFFFFFFFFFFFF AND PUSH20 0xFFFFFFFFFFFFFFFFFFFFFFFFFFFFFFFFFFFFFFFF AND PUSH4 0x1B12ACB5 PUSH32 0xC3E41E2721E22D2B2915C8A1D31BC056FD925575CBF970D66C634343B7CE7705 PUSH1 0x4 PUSH32 0x354AF27B35E66EF4EC1896F54B85CF3EAFC3A635234E138C6156EBA408374DAC PUSH1 0x40 MLOAD DUP5 PUSH4 0xFFFFFFFF AND PUSH1 0xE0 SHL DUP2 MSTORE PUSH1 0x4 ADD PUSH2 0x6A5 SWAP4 SWAP3 SWAP2 SWAP1 PUSH2 0x22F5 JUMP JUMPDEST PUSH1 0x20 PUSH1 0x40 MLOAD DUP1 DUP4 SUB DUP2 PUSH1 0x0 DUP8 GAS CALL SWAP3 POP POP POP DUP1 ISZERO PUSH2 0x6E1 JUMPI POP PUSH1 0x40 MLOAD RETURNDATASIZE PUSH1 0x1F NOT PUSH1 0x1F DUP3 ADD AND DUP3 ADD DUP1 PUSH1 0x40 MSTORE POP DUP2 ADD SWAP1 PUSH2 0x6DE SWAP2 SWAP1 PUSH2 0x236B JUMP JUMPDEST PUSH1 0x1 JUMPDEST PUSH2 0x75D JUMPI PUSH2 0x6ED PUSH2 0x23A5 JUMP JUMPDEST DUP1 PUSH4 0x8C379A0 SUB PUSH2 0x74C JUMPI POP PUSH2 0x701 PUSH2 0x23C7 JUMP JUMPDEST DUP1 PUSH2 0x70C JUMPI POP PUSH2 0x74E JUMP JUMPDEST PUSH32 0x8DED0018AEE3555DA4ABD779E14B4AF76BD1DD7CAF6AC46B76386B28DB137E4E PUSH1 0x0 DUP3 PUSH1 0x40 MLOAD PUSH2 0x73E SWAP3 SWAP2 SWAP1 PUSH2 0x24B2 JUMP JUMPDEST PUSH1 0x40 MLOAD DUP1 SWAP2 SUB SWAP1 LOG1 POP PUSH2 0x758 JUMP JUMPDEST POP JUMPDEST RETURNDATASIZE PUSH1 0x0 DUP1 RETURNDATACOPY RETURNDATASIZE PUSH1 0x0 REVERT JUMPDEST PUSH2 0x870 JUMP JUMPDEST POP PUSH1 0x0 DUP1 PUSH1 0x0 SWAP1 SLOAD SWAP1 PUSH2 0x100 EXP SWAP1 DIV PUSH20 0xFFFFFFFFFFFFFFFFFFFFFFFFFFFFFFFFFFFFFFFF AND PUSH20 0xFFFFFFFFFFFFFFFFFFFFFFFFFFFFFFFFFFFFFFFF AND PUSH4 0x7C2F3C2C PUSH1 0x40 MLOAD DUP2 PUSH4 0xFFFFFFFF AND PUSH1 0xE0 SHL DUP2 MSTORE PUSH1 0x4 ADD PUSH1 0x20 PUSH1 0x40 MLOAD DUP1 DUP4 SUB DUP2 DUP7 GAS STATICCALL ISZERO DUP1 ISZERO PUSH2 0x7CC JUMPI RETURNDATASIZE PUSH1 0x0 DUP1 RETURNDATACOPY RETURNDATASIZE PUSH1 0x0 REVERT JUMPDEST POP POP POP POP PUSH1 0x40 MLOAD RETURNDATASIZE PUSH1 0x1F NOT PUSH1 0x1F DUP3 ADD AND DUP3 ADD DUP1 PUSH1 0x40 MSTORE POP DUP2 ADD SWAP1 PUSH2 0x7F0 SWAP2 SWAP1 PUSH2 0x236B JUMP JUMPDEST SWAP1 POP DUP1 ISZERO PUSH2 0x835 JUMPI PUSH32 0x8DED0018AEE3555DA4ABD779E14B4AF76BD1DD7CAF6AC46B76386B28DB137E4E PUSH1 0x1 PUSH1 0x40 MLOAD PUSH2 0x828 SWAP2 SWAP1 PUSH2 0x2567 JUMP JUMPDEST PUSH1 0x40 MLOAD DUP1 SWAP2 SUB SWAP1 LOG1 PUSH2 0x86E JUMP JUMPDEST PUSH32 0x8DED0018AEE3555DA4ABD779E14B4AF76BD1DD7CAF6AC46B76386B28DB137E4E PUSH1 0x0 PUSH1 0x40 MLOAD PUSH2 0x865 SWAP2 SWAP1 PUSH2 0x25F4 JUMP JUMPDEST PUSH1 0x40 MLOAD DUP1 SWAP2 SUB SWAP1 LOG1 JUMPDEST POP JUMPDEST JUMP JUMPDEST PUSH1 0x0 PUSH32 0x3C7A08889F262708FD769DFD573A5C15903F443D0CD0126646B51B2D18E226E9 PUSH1 0x40 MLOAD PUSH1 0x20 ADD PUSH2 0x8A5 SWAP2 SWAP1 PUSH2 0x2656 JUMP JUMPDEST PUSH1 0x40 MLOAD PUSH1 0x20 DUP2 DUP4 SUB SUB DUP2 MSTORE SWAP1 PUSH1 0x40 MSTORE SWAP1 POP PUSH1 0x0 PUSH32 0x7B802FCDB08705336ACAE16C1720F5A2FF33FBA1EBD1A0AF1E956D9A4C0CC2FF PUSH1 0x40 MLOAD PUSH1 0x20 ADD PUSH2 0x8E9 SWAP2 SWAP1 PUSH2 0x2656 JUMP JUMPDEST PUSH1 0x40 MLOAD PUSH1 0x20 DUP2 DUP4 SUB SUB DUP2 MSTORE SWAP1 PUSH1 0x40 MSTORE SWAP1 POP PUSH1 0x0 PUSH32 0xBD3D1905982EA1D3F92915979A8EBDC4041622E908A2F22188F8EF67F8562F17 PUSH1 0x40 MLOAD PUSH1 0x20 ADD PUSH2 0x92D SWAP2 SWAP1 PUSH2 0x2656 JUMP JUMPDEST PUSH1 0x40 MLOAD PUSH1 0x20 DUP2 DUP4 SUB SUB DUP2 MSTORE SWAP1 PUSH1 0x40 MSTORE SWAP1 POP PUSH1 0x0 PUSH1 0x40 MLOAD DUP1 PUSH1 0x60 ADD PUSH1 0x40 MSTORE DUP1 DUP6 DUP2 MSTORE PUSH1 0x20 ADD DUP5 DUP2 MSTORE PUSH1 0x20 ADD DUP4 DUP2 MSTORE POP SWAP1 POP PUSH1 0x0 DUP1 SLOAD SWAP1 PUSH2 0x100 EXP SWAP1 DIV PUSH20 0xFFFFFFFFFFFFFFFFFFFFFFFFFFFFFFFFFFFFFFFF AND PUSH20 0xFFFFFFFFFFFFFFFFFFFFFFFFFFFFFFFFFFFFFFFF AND PUSH4 0xFCA5A068 DUP3 PUSH1 0x40 MLOAD DUP3 PUSH4 0xFFFFFFFF AND PUSH1 0xE0 SHL DUP2 MSTORE PUSH1 0x4 ADD PUSH2 0x9B6 SWAP2 SWAP1 PUSH2 0x2724 JUMP JUMPDEST PUSH1 0x20 PUSH1 0x40 MLOAD DUP1 DUP4 SUB DUP2 PUSH1 0x0 DUP8 GAS CALL SWAP3 POP POP POP DUP1 ISZERO PUSH2 0x9F2 JUMPI POP PUSH1 0x40 MLOAD RETURNDATASIZE PUSH1 0x1F NOT PUSH1 0x1F DUP3 ADD AND DUP3 ADD DUP1 PUSH1 0x40 MSTORE POP DUP2 ADD SWAP1 PUSH2 0x9EF SWAP2 SWAP1 PUSH2 0x236B JUMP JUMPDEST PUSH1 0x1 JUMPDEST PUSH2 0xA6E JUMPI PUSH2 0x9FE PUSH2 0x23A5 JUMP JUMPDEST DUP1 PUSH4 0x8C379A0 SUB PUSH2 0xA5D JUMPI POP PUSH2 0xA12 PUSH2 0x23C7 JUMP JUMPDEST DUP1 PUSH2 0xA1D JUMPI POP PUSH2 0xA5F JUMP JUMPDEST PUSH32 0x8DED0018AEE3555DA4ABD779E14B4AF76BD1DD7CAF6AC46B76386B28DB137E4E PUSH1 0x0 DUP3 PUSH1 0x40 MLOAD PUSH2 0xA4F SWAP3 SWAP2 SWAP1 PUSH2 0x2792 JUMP JUMPDEST PUSH1 0x40 MLOAD DUP1 SWAP2 SUB SWAP1 LOG1 POP PUSH2 0xA69 JUMP JUMPDEST POP JUMPDEST RETURNDATASIZE PUSH1 0x0 DUP1 RETURNDATACOPY RETURNDATASIZE PUSH1 0x0 REVERT JUMPDEST PUSH2 0xB8C JUMP JUMPDEST POP PUSH1 0x0 DUP1 PUSH1 0x0 SWAP1 SLOAD SWAP1 PUSH2 0x100 EXP SWAP1 DIV PUSH20 0xFFFFFFFFFFFFFFFFFFFFFFFFFFFFFFFFFFFFFFFF AND PUSH20 0xFFFFFFFFFFFFFFFFFFFFFFFFFFFFFFFFFFFFFFFF AND PUSH4 0x9E63420C DUP5 PUSH1 0x40 MLOAD DUP3 PUSH4 0xFFFFFFFF AND PUSH1 0xE0 SHL DUP2 MSTORE PUSH1 0x4 ADD PUSH2 0xACB SWAP2 SWAP1 PUSH2 0x281F JUMP JUMPDEST PUSH1 0x20 PUSH1 0x40 MLOAD DUP1 DUP4 SUB DUP2 DUP7 GAS STATICCALL ISZERO DUP1 ISZERO PUSH2 0xAE8 JUMPI RETURNDATASIZE PUSH1 0x0 DUP1 RETURNDATACOPY RETURNDATASIZE PUSH1 0x0 REVERT JUMPDEST POP POP POP POP PUSH1 0x40 MLOAD RETURNDATASIZE PUSH1 0x1F NOT PUSH1 0x1F DUP3 ADD AND DUP3 ADD DUP1 PUSH1 0x40 MSTORE POP DUP2 ADD SWAP1 PUSH2 0xB0C SWAP2 SWAP1 PUSH2 0x236B JUMP JUMPDEST SWAP1 POP DUP1 ISZERO PUSH2 0xB51 JUMPI PUSH32 0x8DED0018AEE3555DA4ABD779E14B4AF76BD1DD7CAF6AC46B76386B28DB137E4E PUSH1 0x1 PUSH1 0x40 MLOAD PUSH2 0xB44 SWAP2 SWAP1 PUSH2 0x288D JUMP JUMPDEST PUSH1 0x40 MLOAD DUP1 SWAP2 SUB SWAP1 LOG1 PUSH2 0xB8A JUMP JUMPDEST PUSH32 0x8DED0018AEE3555DA4ABD779E14B4AF76BD1DD7CAF6AC46B76386B28DB137E4E PUSH1 0x0 PUSH1 0x40 MLOAD PUSH2 0xB81 SWAP2 SWAP1 PUSH2 0x2940 JUMP JUMPDEST PUSH1 0x40 MLOAD DUP1 SWAP2 SUB SWAP1 LOG1 JUMPDEST POP JUMPDEST POP POP POP POP JUMP JUMPDEST PUSH1 0x0 PUSH32 0x789D932A9C8C3B8AC473555A7F1706D13000187A8818643E1E58A2625744A463 PUSH1 0x40 MLOAD PUSH1 0x20 ADD PUSH2 0xBC5 SWAP2 SWAP1 PUSH2 0x2656 JUMP JUMPDEST PUSH1 0x40 MLOAD PUSH1 0x20 DUP2 DUP4 SUB SUB DUP2 MSTORE SWAP1 PUSH1 0x40 MSTORE SWAP1 POP PUSH1 0x0 PUSH32 0xEA60EB8D479139F999AE7B1D266C6F71A119BC835F488B476515FDC696B94655 PUSH1 0x40 MLOAD PUSH1 0x20 ADD PUSH2 0xC09 SWAP2 SWAP1 PUSH2 0x2656 JUMP JUMPDEST PUSH1 0x40 MLOAD PUSH1 0x20 DUP2 DUP4 SUB SUB DUP2 MSTORE SWAP1 PUSH1 0x40 MSTORE SWAP1 POP PUSH1 0x1 PUSH1 0x0 SWAP1 SLOAD SWAP1 PUSH2 0x100 EXP SWAP1 DIV PUSH20 0xFFFFFFFFFFFFFFFFFFFFFFFFFFFFFFFFFFFFFFFF AND PUSH20 0xFFFFFFFFFFFFFFFFFFFFFFFFFFFFFFFFFFFFFFFF AND PUSH4 0xF7E83AEE DUP4 DUP4 PUSH1 0x40 MLOAD DUP4 PUSH4 0xFFFFFFFF AND PUSH1 0xE0 SHL DUP2 MSTORE PUSH1 0x4 ADD PUSH2 0xC77 SWAP3 SWAP2 SWAP1 PUSH2 0x2981 JUMP JUMPDEST PUSH1 0x20 PUSH1 0x40 MLOAD DUP1 DUP4 SUB DUP2 PUSH1 0x0 DUP8 GAS CALL SWAP3 POP POP POP DUP1 ISZERO PUSH2 0xCB3 JUMPI POP PUSH1 0x40 MLOAD RETURNDATASIZE PUSH1 0x1F NOT PUSH1 0x1F DUP3 ADD AND DUP3 ADD DUP1 PUSH1 0x40 MSTORE POP DUP2 ADD SWAP1 PUSH2 0xCB0 SWAP2 SWAP1 PUSH2 0x29B8 JUMP JUMPDEST PUSH1 0x1 JUMPDEST PUSH2 0xD2F JUMPI PUSH2 0xCBF PUSH2 0x23A5 JUMP JUMPDEST DUP1 PUSH4 0x8C379A0 SUB PUSH2 0xD1E JUMPI POP PUSH2 0xCD3 PUSH2 0x23C7 JUMP JUMPDEST DUP1 PUSH2 0xCDE JUMPI POP PUSH2 0xD20 JUMP JUMPDEST PUSH32 0x8DED0018AEE3555DA4ABD779E14B4AF76BD1DD7CAF6AC46B76386B28DB137E4E PUSH1 0x0 DUP3 PUSH1 0x40 MLOAD PUSH2 0xD10 SWAP3 SWAP2 SWAP1 PUSH2 0x2A31 JUMP JUMPDEST PUSH1 0x40 MLOAD DUP1 SWAP2 SUB SWAP1 LOG1 POP PUSH2 0xD2A JUMP JUMPDEST POP JUMPDEST RETURNDATASIZE PUSH1 0x0 DUP1 RETURNDATACOPY RETURNDATASIZE PUSH1 0x0 REVERT JUMPDEST PUSH2 0xE5A JUMP JUMPDEST PUSH1 0x0 PUSH1 0x1 PUSH1 0x0 SWAP1 SLOAD SWAP1 PUSH2 0x100 EXP SWAP1 DIV PUSH20 0xFFFFFFFFFFFFFFFFFFFFFFFFFFFFFFFFFFFFFFFF AND PUSH20 0xFFFFFFFFFFFFFFFFFFFFFFFFFFFFFFFFFFFFFFFF AND PUSH4 0x579A6988 DUP4 PUSH1 0x40 MLOAD DUP3 PUSH4 0xFFFFFFFF AND PUSH1 0xE0 SHL DUP2 MSTORE PUSH1 0x4 ADD PUSH2 0xD8C SWAP2 SWAP1 PUSH2 0x2A74 JUMP JUMPDEST PUSH1 0x20 PUSH1 0x40 MLOAD DUP1 DUP4 SUB DUP2 DUP7 GAS STATICCALL ISZERO DUP1 ISZERO PUSH2 0xDA9 JUMPI RETURNDATASIZE PUSH1 0x0 DUP1 RETURNDATACOPY RETURNDATASIZE PUSH1 0x0 REVERT JUMPDEST POP POP POP POP PUSH1 0x40 MLOAD RETURNDATASIZE PUSH1 0x1F NOT PUSH1 0x1F DUP3 ADD AND DUP3 ADD DUP1 PUSH1 0x40 MSTORE POP DUP2 ADD SWAP1 PUSH2 0xDCD SWAP2 SWAP1 PUSH2 0x236B JUMP JUMPDEST SWAP1 POP DUP1 DUP1 ISZERO PUSH2 0xDDC JUMPI POP PUSH1 0x0 DUP3 EQ JUMPDEST ISZERO PUSH2 0xE1E JUMPI PUSH32 0x8DED0018AEE3555DA4ABD779E14B4AF76BD1DD7CAF6AC46B76386B28DB137E4E PUSH1 0x1 PUSH1 0x40 MLOAD PUSH2 0xE11 SWAP2 SWAP1 PUSH2 0x2B01 JUMP JUMPDEST PUSH1 0x40 MLOAD DUP1 SWAP2 SUB SWAP1 LOG1 PUSH2 0xE57 JUMP JUMPDEST PUSH32 0x8DED0018AEE3555DA4ABD779E14B4AF76BD1DD7CAF6AC46B76386B28DB137E4E PUSH1 0x0 PUSH1 0x40 MLOAD PUSH2 0xE4E SWAP2 SWAP1 PUSH2 0x2BB4 JUMP JUMPDEST PUSH1 0x40 MLOAD DUP1 SWAP2 SUB SWAP1 LOG1 JUMPDEST POP POP JUMPDEST POP POP JUMP JUMPDEST PUSH1 0x2 PUSH1 0x0 SWAP1 SLOAD SWAP1 PUSH2 0x100 EXP SWAP1 DIV PUSH20 0xFFFFFFFFFFFFFFFFFFFFFFFFFFFFFFFFFFFFFFFF AND PUSH20 0xFFFFFFFFFFFFFFFFFFFFFFFFFFFFFFFFFFFFFFFF AND PUSH4 0xCB43284E PUSH1 0x40 MLOAD DUP2 PUSH4 0xFFFFFFFF AND PUSH1 0xE0 SHL DUP2 MSTORE PUSH1 0x4 ADD PUSH1 0x20 PUSH1 0x40 MLOAD DUP1 DUP4 SUB DUP2 PUSH1 0x0 DUP8 GAS CALL SWAP3 POP POP POP DUP1 ISZERO PUSH2 0xEEA JUMPI POP PUSH1 0x40 MLOAD RETURNDATASIZE PUSH1 0x1F NOT PUSH1 0x1F DUP3 ADD AND DUP3 ADD DUP1 PUSH1 0x40 MSTORE POP DUP2 ADD SWAP1 PUSH2 0xEE7 SWAP2 SWAP1 PUSH2 0x236B JUMP JUMPDEST PUSH1 0x1 JUMPDEST PUSH2 0xF85 JUMPI PUSH2 0xEF6 PUSH2 0x23A5 JUMP JUMPDEST DUP1 PUSH4 0x8C379A0 SUB PUSH2 0xF74 JUMPI POP PUSH2 0xF0A PUSH2 0x23C7 JUMP JUMPDEST DUP1 PUSH2 0xF15 JUMPI POP PUSH2 0xF76 JUMP JUMPDEST PUSH32 0x8DED0018AEE3555DA4ABD779E14B4AF76BD1DD7CAF6AC46B76386B28DB137E4E PUSH1 0x0 DUP3 PUSH1 0x40 MLOAD PUSH1 0x20 ADD PUSH2 0xF49 SWAP2 SWAP1 PUSH2 0x2C7D JUMP JUMPDEST PUSH1 0x40 MLOAD PUSH1 0x20 DUP2 DUP4 SUB SUB DUP2 MSTORE SWAP1 PUSH1 0x40 MSTORE PUSH1 0x40 MLOAD PUSH2 0xF66 SWAP3 SWAP2 SWAP1 PUSH2 0x2CEB JUMP JUMPDEST PUSH1 0x40 MLOAD DUP1 SWAP2 SUB SWAP1 LOG1 POP PUSH2 0xF80 JUMP JUMPDEST POP JUMPDEST RETURNDATASIZE PUSH1 0x0 DUP1 RETURNDATACOPY RETURNDATASIZE PUSH1 0x0 REVERT JUMPDEST PUSH2 0x1270 JUMP JUMPDEST POP PUSH1 0x0 PUSH32 0xDE0211924BBCEAC4E98451FDA0D31F1D2602A54C04B1AB75A3AF74F268F39A00 PUSH1 0x40 MLOAD PUSH1 0x20 ADD PUSH2 0xFB9 SWAP2 SWAP1 PUSH2 0x2656 JUMP JUMPDEST PUSH1 0x40 MLOAD PUSH1 0x20 DUP2 DUP4 SUB SUB DUP2 MSTORE SWAP1 PUSH1 0x40 MSTORE SWAP1 POP PUSH1 0x0 PUSH32 0xC3E41E2721E22D2B2915C8A1D31BC056FD925575CBF970D66C634343B7CE7705 PUSH1 0x40 MLOAD PUSH1 0x20 ADD PUSH2 0xFFD SWAP2 SWAP1 PUSH2 0x2D7A JUMP JUMPDEST PUSH1 0x40 MLOAD PUSH1 0x20 DUP2 DUP4 SUB SUB DUP2 MSTORE SWAP1 PUSH1 0x40 MSTORE DUP1 MLOAD SWAP1 PUSH1 0x20 ADD KECCAK256 SWAP1 POP PUSH1 0x0 PUSH1 0x2 PUSH1 0x0 SWAP1 SLOAD SWAP1 PUSH2 0x100 EXP SWAP1 DIV PUSH20 0xFFFFFFFFFFFFFFFFFFFFFFFFFFFFFFFFFFFFFFFF AND PUSH20 0xFFFFFFFFFFFFFFFFFFFFFFFFFFFFFFFFFFFFFFFF AND PUSH4 0xEC1E16B3 DUP5 DUP5 DUP5 PUSH1 0x40 MLOAD DUP5 PUSH4 0xFFFFFFFF AND PUSH1 0xE0 SHL DUP2 MSTORE PUSH1 0x4 ADD PUSH2 0x1076 SWAP4 SWAP3 SWAP2 SWAP1 PUSH2 0x2DA0 JUMP JUMPDEST PUSH1 0x20 PUSH1 0x40 MLOAD DUP1 DUP4 SUB DUP2 PUSH1 0x0 DUP8 GAS CALL SWAP3 POP POP POP DUP1 ISZERO PUSH2 0x10B2 JUMPI POP PUSH1 0x40 MLOAD RETURNDATASIZE PUSH1 0x1F NOT PUSH1 0x1F DUP3 ADD AND DUP3 ADD DUP1 PUSH1 0x40 MSTORE POP DUP2 ADD SWAP1 PUSH2 0x10AF SWAP2 SWAP1 PUSH2 0x236B JUMP JUMPDEST PUSH1 0x1 JUMPDEST PUSH2 0x114D JUMPI PUSH2 0x10BE PUSH2 0x23A5 JUMP JUMPDEST DUP1 PUSH4 0x8C379A0 SUB PUSH2 0x113C JUMPI POP PUSH2 0x10D2 PUSH2 0x23C7 JUMP JUMPDEST DUP1 PUSH2 0x10DD JUMPI POP PUSH2 0x113E JUMP JUMPDEST PUSH32 0x8DED0018AEE3555DA4ABD779E14B4AF76BD1DD7CAF6AC46B76386B28DB137E4E PUSH1 0x0 DUP3 PUSH1 0x40 MLOAD PUSH1 0x20 ADD PUSH2 0x1111 SWAP2 SWAP1 PUSH2 0x2E2A JUMP JUMPDEST PUSH1 0x40 MLOAD PUSH1 0x20 DUP2 DUP4 SUB SUB DUP2 MSTORE SWAP1 PUSH1 0x40 MSTORE PUSH1 0x40 MLOAD PUSH2 0x112E SWAP3 SWAP2 SWAP1 PUSH2 0x2CEB JUMP JUMPDEST PUSH1 0x40 MLOAD DUP1 SWAP2 SUB SWAP1 LOG1 POP PUSH2 0x1148 JUMP JUMPDEST POP JUMPDEST RETURNDATASIZE PUSH1 0x0 DUP1 RETURNDATACOPY RETURNDATASIZE PUSH1 0x0 REVERT JUMPDEST PUSH2 0x126C JUMP JUMPDEST POP PUSH1 0x0 PUSH1 0x2 PUSH1 0x0 SWAP1 SLOAD SWAP1 PUSH2 0x100 EXP SWAP1 DIV PUSH20 0xFFFFFFFFFFFFFFFFFFFFFFFFFFFFFFFFFFFFFFFF AND PUSH20 0xFFFFFFFFFFFFFFFFFFFFFFFFFFFFFFFFFFFFFFFF AND PUSH4 0xECCA031F DUP4 PUSH1 0x40 MLOAD DUP3 PUSH4 0xFFFFFFFF AND PUSH1 0xE0 SHL DUP2 MSTORE PUSH1 0x4 ADD PUSH2 0x11AB SWAP2 SWAP1 PUSH2 0x2A74 JUMP JUMPDEST PUSH1 0x20 PUSH1 0x40 MLOAD DUP1 DUP4 SUB DUP2 DUP7 GAS STATICCALL ISZERO DUP1 ISZERO PUSH2 0x11C8 JUMPI RETURNDATASIZE PUSH1 0x0 DUP1 RETURNDATACOPY RETURNDATASIZE PUSH1 0x0 REVERT JUMPDEST POP POP POP POP PUSH1 0x40 MLOAD RETURNDATASIZE PUSH1 0x1F NOT PUSH1 0x1F DUP3 ADD AND DUP3 ADD DUP1 PUSH1 0x40 MSTORE POP DUP2 ADD SWAP1 PUSH2 0x11EC SWAP2 SWAP1 PUSH2 0x236B JUMP JUMPDEST SWAP1 POP DUP1 ISZERO PUSH2 0x1231 JUMPI PUSH32 0x8DED0018AEE3555DA4ABD779E14B4AF76BD1DD7CAF6AC46B76386B28DB137E4E PUSH1 0x1 PUSH1 0x40 MLOAD PUSH2 0x1224 SWAP2 SWAP1 PUSH2 0x2E98 JUMP JUMPDEST PUSH1 0x40 MLOAD DUP1 SWAP2 SUB SWAP1 LOG1 PUSH2 0x126A JUMP JUMPDEST PUSH32 0x8DED0018AEE3555DA4ABD779E14B4AF76BD1DD7CAF6AC46B76386B28DB137E4E PUSH1 0x0 PUSH1 0x40 MLOAD PUSH2 0x1261 SWAP2 SWAP1 PUSH2 0x2F25 JUMP JUMPDEST PUSH1 0x40 MLOAD DUP1 SWAP2 SUB SWAP1 LOG1 JUMPDEST POP JUMPDEST POP POP POP JUMPDEST JUMP JUMPDEST PUSH1 0x2 PUSH1 0x0 SWAP1 SLOAD SWAP1 PUSH2 0x100 EXP SWAP1 DIV PUSH20 0xFFFFFFFFFFFFFFFFFFFFFFFFFFFFFFFFFFFFFFFF AND PUSH20 0xFFFFFFFFFFFFFFFFFFFFFFFFFFFFFFFFFFFFFFFF AND PUSH4 0x924D7EC2 PUSH1 0x40 MLOAD DUP2 PUSH4 0xFFFFFFFF AND PUSH1 0xE0 SHL DUP2 MSTORE PUSH1 0x4 ADD PUSH1 0x20 PUSH1 0x40 MLOAD DUP1 DUP4 SUB DUP2 PUSH1 0x0 DUP8 GAS CALL SWAP3 POP POP POP DUP1 ISZERO PUSH2 0x12FE JUMPI POP PUSH1 0x40 MLOAD RETURNDATASIZE PUSH1 0x1F NOT PUSH1 0x1F DUP3 ADD AND DUP3 ADD DUP1 PUSH1 0x40 MSTORE POP DUP2 ADD SWAP1 PUSH2 0x12FB SWAP2 SWAP1 PUSH2 0x236B JUMP JUMPDEST PUSH1 0x1 JUMPDEST PUSH2 0x1399 JUMPI PUSH2 0x130A PUSH2 0x23A5 JUMP JUMPDEST DUP1 PUSH4 0x8C379A0 SUB PUSH2 0x1388 JUMPI POP PUSH2 0x131E PUSH2 0x23C7 JUMP JUMPDEST DUP1 PUSH2 0x1329 JUMPI POP PUSH2 0x138A JUMP JUMPDEST PUSH32 0x8DED0018AEE3555DA4ABD779E14B4AF76BD1DD7CAF6AC46B76386B28DB137E4E PUSH1 0x0 DUP3 PUSH1 0x40 MLOAD PUSH1 0x20 ADD PUSH2 0x135D SWAP2 SWAP1 PUSH2 0x2FB2 JUMP JUMPDEST PUSH1 0x40 MLOAD PUSH1 0x20 DUP2 DUP4 SUB SUB DUP2 MSTORE SWAP1 PUSH1 0x40 MSTORE PUSH1 0x40 MLOAD PUSH2 0x137A SWAP3 SWAP2 SWAP1 PUSH2 0x3020 JUMP JUMPDEST PUSH1 0x40 MLOAD DUP1 SWAP2 SUB SWAP1 LOG1 POP PUSH2 0x1394 JUMP JUMPDEST POP JUMPDEST RETURNDATASIZE PUSH1 0x0 DUP1 RETURNDATACOPY RETURNDATASIZE PUSH1 0x0 REVERT JUMPDEST PUSH2 0x1635 JUMP JUMPDEST POP PUSH1 0x0 PUSH1 0x4 PUSH1 0x0 DUP2 SLOAD DUP2 LT PUSH2 0x13B1 JUMPI PUSH2 0x13B0 PUSH2 0x3063 JUMP JUMPDEST JUMPDEST SWAP1 PUSH1 0x0 MSTORE PUSH1 0x20 PUSH1 0x0 KECCAK256 ADD SLOAD PUSH1 0x40 MLOAD PUSH1 0x20 ADD PUSH2 0x13CC SWAP2 SWAP1 PUSH2 0x2656 JUMP JUMPDEST PUSH1 0x40 MLOAD PUSH1 0x20 DUP2 DUP4 SUB SUB DUP2 MSTORE SWAP1 PUSH1 0x40 MSTORE SWAP1 POP PUSH1 0x0 PUSH1 0x2 PUSH1 0x0 SWAP1 SLOAD SWAP1 PUSH2 0x100 EXP SWAP1 DIV PUSH20 0xFFFFFFFFFFFFFFFFFFFFFFFFFFFFFFFFFFFFFFFF AND PUSH20 0xFFFFFFFFFFFFFFFFFFFFFFFFFFFFFFFFFFFFFFFF AND PUSH4 0xE06D8597 DUP4 DUP4 PUSH1 0x40 MLOAD DUP4 PUSH4 0xFFFFFFFF AND PUSH1 0xE0 SHL DUP2 MSTORE PUSH1 0x4 ADD PUSH2 0x143C SWAP3 SWAP2 SWAP1 PUSH2 0x3092 JUMP JUMPDEST PUSH1 0x20 PUSH1 0x40 MLOAD DUP1 DUP4 SUB DUP2 PUSH1 0x0 DUP8 GAS CALL SWAP3 POP POP POP DUP1 ISZERO PUSH2 0x1478 JUMPI POP PUSH1 0x40 MLOAD RETURNDATASIZE PUSH1 0x1F NOT PUSH1 0x1F DUP3 ADD AND DUP3 ADD DUP1 PUSH1 0x40 MSTORE POP DUP2 ADD SWAP1 PUSH2 0x1475 SWAP2 SWAP1 PUSH2 0x236B JUMP JUMPDEST PUSH1 0x1 JUMPDEST PUSH2 0x1513 JUMPI PUSH2 0x1484 PUSH2 0x23A5 JUMP JUMPDEST DUP1 PUSH4 0x8C379A0 SUB PUSH2 0x1502 JUMPI POP PUSH2 0x1498 PUSH2 0x23C7 JUMP JUMPDEST DUP1 PUSH2 0x14A3 JUMPI POP PUSH2 0x1504 JUMP JUMPDEST PUSH32 0x8DED0018AEE3555DA4ABD779E14B4AF76BD1DD7CAF6AC46B76386B28DB137E4E PUSH1 0x0 DUP3 PUSH1 0x40 MLOAD PUSH1 0x20 ADD PUSH2 0x14D7 SWAP2 SWAP1 PUSH2 0x310E JUMP JUMPDEST PUSH1 0x40 MLOAD PUSH1 0x20 DUP2 DUP4 SUB SUB DUP2 MSTORE SWAP1 PUSH1 0x40 MSTORE PUSH1 0x40 MLOAD PUSH2 0x14F4 SWAP3 SWAP2 SWAP1 PUSH2 0x3020 JUMP JUMPDEST PUSH1 0x40 MLOAD DUP1 SWAP2 SUB SWAP1 LOG1 POP PUSH2 0x150E JUMP JUMPDEST POP JUMPDEST RETURNDATASIZE PUSH1 0x0 DUP1 RETURNDATACOPY RETURNDATASIZE PUSH1 0x0 REVERT JUMPDEST PUSH2 0x1632 JUMP JUMPDEST POP PUSH1 0x0 PUSH1 0x2 PUSH1 0x0 SWAP1 SLOAD SWAP1 PUSH2 0x100 EXP SWAP1 DIV PUSH20 0xFFFFFFFFFFFFFFFFFFFFFFFFFFFFFFFFFFFFFFFF AND PUSH20 0xFFFFFFFFFFFFFFFFFFFFFFFFFFFFFFFFFFFFFFFF AND PUSH4 0xC416EC04 DUP4 PUSH1 0x40 MLOAD DUP3 PUSH4 0xFFFFFFFF AND PUSH1 0xE0 SHL DUP2 MSTORE PUSH1 0x4 ADD PUSH2 0x1571 SWAP2 SWAP1 PUSH2 0x2A74 JUMP JUMPDEST PUSH1 0x20 PUSH1 0x40 MLOAD DUP1 DUP4 SUB DUP2 DUP7 GAS STATICCALL ISZERO DUP1 ISZERO PUSH2 0x158E JUMPI RETURNDATASIZE PUSH1 0x0 DUP1 RETURNDATACOPY RETURNDATASIZE PUSH1 0x0 REVERT JUMPDEST POP POP POP POP PUSH1 0x40 MLOAD RETURNDATASIZE PUSH1 0x1F NOT PUSH1 0x1F DUP3 ADD AND DUP3 ADD DUP1 PUSH1 0x40 MSTORE POP DUP2 ADD SWAP1 PUSH2 0x15B2 SWAP2 SWAP1 PUSH2 0x236B JUMP JUMPDEST SWAP1 POP DUP1 ISZERO PUSH2 0x15F7 JUMPI PUSH32 0x8DED0018AEE3555DA4ABD779E14B4AF76BD1DD7CAF6AC46B76386B28DB137E4E PUSH1 0x1 PUSH1 0x40 MLOAD PUSH2 0x15EA SWAP2 SWAP1 PUSH2 0x317C JUMP JUMPDEST PUSH1 0x40 MLOAD DUP1 SWAP2 SUB SWAP1 LOG1 PUSH2 0x1630 JUMP JUMPDEST PUSH32 0x8DED0018AEE3555DA4ABD779E14B4AF76BD1DD7CAF6AC46B76386B28DB137E4E PUSH1 0x0 PUSH1 0x40 MLOAD PUSH2 0x1627 SWAP2 SWAP1 PUSH2 0x3209 JUMP JUMPDEST PUSH1 0x40 MLOAD DUP1 SWAP2 SUB SWAP1 LOG1 JUMPDEST POP JUMPDEST POP POP JUMPDEST JUMP JUMPDEST PUSH1 0x2 PUSH1 0x0 SWAP1 SLOAD SWAP1 PUSH2 0x100 EXP SWAP1 DIV PUSH20 0xFFFFFFFFFFFFFFFFFFFFFFFFFFFFFFFFFFFFFFFF AND PUSH20 0xFFFFFFFFFFFFFFFFFFFFFFFFFFFFFFFFFFFFFFFF AND PUSH4 0xF7D3D4F3 PUSH1 0x40 MLOAD DUP2 PUSH4 0xFFFFFFFF AND PUSH1 0xE0 SHL DUP2 MSTORE PUSH1 0x4 ADD PUSH1 0x20 PUSH1 0x40 MLOAD DUP1 DUP4 SUB DUP2 PUSH1 0x0 DUP8 GAS CALL SWAP3 POP POP POP DUP1 ISZERO PUSH2 0x16C3 JUMPI POP PUSH1 0x40 MLOAD RETURNDATASIZE PUSH1 0x1F NOT PUSH1 0x1F DUP3 ADD AND DUP3 ADD DUP1 PUSH1 0x40 MSTORE POP DUP2 ADD SWAP1 PUSH2 0x16C0 SWAP2 SWAP1 PUSH2 0x236B JUMP JUMPDEST PUSH1 0x1 JUMPDEST PUSH2 0x173F JUMPI PUSH2 0x16CF PUSH2 0x23A5 JUMP JUMPDEST DUP1 PUSH4 0x8C379A0 SUB PUSH2 0x172E JUMPI POP PUSH2 0x16E3 PUSH2 0x23C7 JUMP JUMPDEST DUP1 PUSH2 0x16EE JUMPI POP PUSH2 0x1730 JUMP JUMPDEST PUSH32 0x8DED0018AEE3555DA4ABD779E14B4AF76BD1DD7CAF6AC46B76386B28DB137E4E PUSH1 0x0 DUP3 PUSH1 0x40 MLOAD PUSH2 0x1720 SWAP3 SWAP2 SWAP1 PUSH2 0x3296 JUMP JUMPDEST PUSH1 0x40 MLOAD DUP1 SWAP2 SUB SWAP1 LOG1 POP PUSH2 0x173A JUMP JUMPDEST POP JUMPDEST RETURNDATASIZE PUSH1 0x0 DUP1 RETURNDATACOPY RETURNDATASIZE PUSH1 0x0 REVERT JUMPDEST PUSH2 0x1875 JUMP JUMPDEST POP PUSH1 0x0 DUP1 PUSH1 0x2 PUSH1 0x0 SWAP1 SLOAD SWAP1 PUSH2 0x100 EXP SWAP1 DIV PUSH20 0xFFFFFFFFFFFFFFFFFFFFFFFFFFFFFFFFFFFFFFFF AND PUSH20 0xFFFFFFFFFFFFFFFFFFFFFFFFFFFFFFFFFFFFFFFF AND PUSH4 0xA7A21848 PUSH1 0x40 MLOAD DUP2 PUSH4 0xFFFFFFFF AND PUSH1 0xE0 SHL DUP2 MSTORE PUSH1 0x4 ADD PUSH1 0x0 PUSH1 0x40 MLOAD DUP1 DUP4 SUB DUP2 DUP7 GAS STATICCALL ISZERO DUP1 ISZERO PUSH2 0x17B0 JUMPI RETURNDATASIZE PUSH1 0x0 DUP1 RETURNDATACOPY RETURNDATASIZE PUSH1 0x0 REVERT JUMPDEST POP POP POP POP PUSH1 0x40 MLOAD RETURNDATASIZE PUSH1 0x0 DUP3 RETURNDATACOPY RETURNDATASIZE PUSH1 0x1F NOT PUSH1 0x1F DUP3 ADD AND DUP3 ADD DUP1 PUSH1 0x40 MSTORE POP DUP2 ADD SWAP1 PUSH2 0x17D9 SWAP2 SWAP1 PUSH2 0x2083 JUMP JUMPDEST SWAP2 POP SWAP2 POP PUSH1 0x4 DUP1 SLOAD SWAP1 POP DUP3 MLOAD EQ DUP1 ISZERO PUSH2 0x17F7 JUMPI POP PUSH1 0x4 DUP1 SLOAD SWAP1 POP DUP2 MLOAD EQ JUMPDEST ISZERO PUSH2 0x1839 JUMPI PUSH32 0x8DED0018AEE3555DA4ABD779E14B4AF76BD1DD7CAF6AC46B76386B28DB137E4E PUSH1 0x1 PUSH1 0x40 MLOAD PUSH2 0x182C SWAP2 SWAP1 PUSH2 0x3325 JUMP JUMPDEST PUSH1 0x40 MLOAD DUP1 SWAP2 SUB SWAP1 LOG1 PUSH2 0x1872 JUMP JUMPDEST PUSH32 0x8DED0018AEE3555DA4ABD779E14B4AF76BD1DD7CAF6AC46B76386B28DB137E4E PUSH1 0x0 PUSH1 0x40 MLOAD PUSH2 0x1869 SWAP2 SWAP1 PUSH2 0x33B2 JUMP JUMPDEST PUSH1 0x40 MLOAD DUP1 SWAP2 SUB SWAP1 LOG1 JUMPDEST POP POP JUMPDEST JUMP JUMPDEST PUSH1 0x0 DUP2 SWAP1 POP SWAP2 SWAP1 POP JUMP JUMPDEST PUSH2 0x188A DUP2 PUSH2 0x1877 JUMP JUMPDEST DUP3 MSTORE POP POP JUMP JUMPDEST PUSH1 0x0 DUP2 MLOAD SWAP1 POP SWAP2 SWAP1 POP JUMP JUMPDEST PUSH1 0x0 DUP3 DUP3 MSTORE PUSH1 0x20 DUP3 ADD SWAP1 POP SWAP3 SWAP2 POP POP JUMP JUMPDEST PUSH1 0x0 JUMPDEST DUP4 DUP2 LT ISZERO PUSH2 0x18CA JUMPI DUP1 DUP3 ADD MLOAD DUP2 DUP5 ADD MSTORE PUSH1 0x20 DUP2 ADD SWAP1 POP PUSH2 0x18AF JUMP JUMPDEST PUSH1 0x0 DUP5 DUP5 ADD MSTORE POP POP POP POP JUMP JUMPDEST PUSH1 0x0 PUSH1 0x1F NOT PUSH1 0x1F DUP4 ADD AND SWAP1 POP SWAP2 SWAP1 POP JUMP JUMPDEST PUSH1 0x0 PUSH2 0x18F2 DUP3 PUSH2 0x1890 JUMP JUMPDEST PUSH2 0x18FC DUP2 DUP6 PUSH2 0x189B JUMP JUMPDEST SWAP4 POP PUSH2 0x190C DUP2 DUP6 PUSH1 0x20 DUP7 ADD PUSH2 0x18AC JUMP JUMPDEST PUSH2 0x1915 DUP2 PUSH2 0x18D6 JUMP JUMPDEST DUP5 ADD SWAP2 POP POP SWAP3 SWAP2 POP POP JUMP JUMPDEST PUSH1 0x0 PUSH1 0x80 DUP3 ADD SWAP1 POP PUSH2 0x1935 PUSH1 0x0 DUP4 ADD DUP8 PUSH2 0x1881 JUMP JUMPDEST PUSH2 0x1942 PUSH1 0x20 DUP4 ADD DUP7 PUSH2 0x1881 JUMP JUMPDEST PUSH2 0x194F PUSH1 0x40 DUP4 ADD DUP6 PUSH2 0x1881 JUMP JUMPDEST DUP2 DUP2 SUB PUSH1 0x60 DUP4 ADD MSTORE PUSH2 0x1961 DUP2 DUP5 PUSH2 0x18E7 JUMP JUMPDEST SWAP1 POP SWAP6 SWAP5 POP POP POP POP POP JUMP JUMPDEST PUSH1 0x0 PUSH20 0xFFFFFFFFFFFFFFFFFFFFFFFFFFFFFFFFFFFFFFFF DUP3 AND SWAP1 POP SWAP2 SWAP1 POP JUMP JUMPDEST PUSH1 0x0 DUP2 SWAP1 POP SWAP2 SWAP1 POP JUMP JUMPDEST PUSH1 0x0 PUSH2 0x19B1 PUSH2 0x19AC PUSH2 0x19A7 DUP5 PUSH2 0x196C JUMP JUMPDEST PUSH2 0x198C JUMP JUMPDEST PUSH2 0x196C JUMP JUMPDEST SWAP1 POP SWAP2 SWAP1 POP JUMP JUMPDEST PUSH1 0x0 PUSH2 0x19C3 DUP3 PUSH2 0x1996 JUMP JUMPDEST SWAP1 POP SWAP2 SWAP1 POP JUMP JUMPDEST PUSH1 0x0 PUSH2 0x19D5 DUP3 PUSH2 0x19B8 JUMP JUMPDEST SWAP1 POP SWAP2 SWAP1 POP JUMP JUMPDEST PUSH2 0x19E5 DUP2 PUSH2 0x19CA JUMP JUMPDEST DUP3 MSTORE POP POP JUMP JUMPDEST PUSH1 0x0 PUSH1 0x20 DUP3 ADD SWAP1 POP PUSH2 0x1A00 PUSH1 0x0 DUP4 ADD DUP5 PUSH2 0x19DC JUMP JUMPDEST SWAP3 SWAP2 POP POP JUMP JUMPDEST PUSH1 0x0 DUP2 SWAP1 POP SWAP2 SWAP1 POP JUMP JUMPDEST PUSH2 0x1A19 DUP2 PUSH2 0x1A06 JUMP JUMPDEST DUP3 MSTORE POP POP JUMP JUMPDEST PUSH1 0x0 PUSH1 0x20 DUP3 ADD SWAP1 POP PUSH2 0x1A34 PUSH1 0x0 DUP4 ADD DUP5 PUSH2 0x1A10 JUMP JUMPDEST SWAP3 SWAP2 POP POP JUMP JUMPDEST PUSH1 0x0 DUP2 MLOAD SWAP1 POP SWAP2 SWAP1 POP JUMP JUMPDEST PUSH1 0x0 DUP3 DUP3 MSTORE PUSH1 0x20 DUP3 ADD SWAP1 POP SWAP3 SWAP2 POP POP JUMP JUMPDEST PUSH1 0x0 DUP2 SWAP1 POP PUSH1 0x20 DUP3 ADD SWAP1 POP SWAP2 SWAP1 POP JUMP JUMPDEST PUSH2 0x1A6F DUP2 PUSH2 0x1A06 JUMP JUMPDEST DUP3 MSTORE POP POP JUMP JUMPDEST PUSH1 0x0 PUSH2 0x1A81 DUP4 DUP4 PUSH2 0x1A66 JUMP JUMPDEST PUSH1 0x20 DUP4 ADD SWAP1 POP SWAP3 SWAP2 POP POP JUMP JUMPDEST PUSH1 0x0 PUSH1 0x20 DUP3 ADD SWAP1 POP SWAP2 SWAP1 POP JUMP JUMPDEST PUSH1 0x0 PUSH2 0x1AA5 DUP3 PUSH2 0x1A3A JUMP JUMPDEST PUSH2 0x1AAF DUP2 DUP6 PUSH2 0x1A45 JUMP JUMPDEST SWAP4 POP PUSH2 0x1ABA DUP4 PUSH2 0x1A56 JUMP JUMPDEST DUP1 PUSH1 0x0 JUMPDEST DUP4 DUP2 LT ISZERO PUSH2 0x1AEB JUMPI DUP2 MLOAD PUSH2 0x1AD2 DUP9 DUP3 PUSH2 0x1A75 JUMP JUMPDEST SWAP8 POP PUSH2 0x1ADD DUP4 PUSH2 0x1A8D JUMP JUMPDEST SWAP3 POP POP PUSH1 0x1 DUP2 ADD SWAP1 POP PUSH2 0x1ABE JUMP JUMPDEST POP DUP6 SWAP4 POP POP POP POP SWAP3 SWAP2 POP POP JUMP JUMPDEST PUSH1 0x0 DUP2 MLOAD SWAP1 POP SWAP2 SWAP1 POP JUMP JUMPDEST PUSH1 0x0 DUP3 DUP3 MSTORE PUSH1 0x20 DUP3 ADD SWAP1 POP SWAP3 SWAP2 POP POP JUMP JUMPDEST PUSH1 0x0 DUP2 SWAP1 POP PUSH1 0x20 DUP3 ADD SWAP1 POP SWAP2 SWAP1 POP JUMP JUMPDEST PUSH2 0x1B2D DUP2 PUSH2 0x1877 JUMP JUMPDEST DUP3 MSTORE POP POP JUMP JUMPDEST PUSH1 0x0 PUSH2 0x1B3F DUP4 DUP4 PUSH2 0x1B24 JUMP JUMPDEST PUSH1 0x20 DUP4 ADD SWAP1 POP SWAP3 SWAP2 POP POP JUMP JUMPDEST PUSH1 0x0 PUSH1 0x20 DUP3 ADD SWAP1 POP SWAP2 SWAP1 POP JUMP JUMPDEST PUSH1 0x0 PUSH2 0x1B63 DUP3 PUSH2 0x1AF8 JUMP JUMPDEST PUSH2 0x1B6D DUP2 DUP6 PUSH2 0x1B03 JUMP JUMPDEST SWAP4 POP PUSH2 0x1B78 DUP4 PUSH2 0x1B14 JUMP JUMPDEST DUP1 PUSH1 0x0 JUMPDEST DUP4 DUP2 LT ISZERO PUSH2 0x1BA9 JUMPI DUP2 MLOAD PUSH2 0x1B90 DUP9 DUP3 PUSH2 0x1B33 JUMP JUMPDEST SWAP8 POP PUSH2 0x1B9B DUP4 PUSH2 0x1B4B JUMP JUMPDEST SWAP3 POP POP PUSH1 0x1 DUP2 ADD SWAP1 POP PUSH2 0x1B7C JUMP JUMPDEST POP DUP6 SWAP4 POP POP POP POP SWAP3 SWAP2 POP POP JUMP JUMPDEST PUSH1 0x0 PUSH1 0x40 DUP3 ADD SWAP1 POP DUP2 DUP2 SUB PUSH1 0x0 DUP4 ADD MSTORE PUSH2 0x1BD0 DUP2 DUP6 PUSH2 0x1A9A JUMP JUMPDEST SWAP1 POP DUP2 DUP2 SUB PUSH1 0x20 DUP4 ADD MSTORE PUSH2 0x1BE4 DUP2 DUP5 PUSH2 0x1B58 JUMP JUMPDEST SWAP1 POP SWAP4 SWAP3 POP POP POP JUMP JUMPDEST PUSH1 0x0 PUSH2 0x1BF8 DUP3 PUSH2 0x19B8 JUMP JUMPDEST SWAP1 POP SWAP2 SWAP1 POP JUMP JUMPDEST PUSH2 0x1C08 DUP2 PUSH2 0x1BED JUMP JUMPDEST DUP3 MSTORE POP POP JUMP JUMPDEST PUSH1 0x0 PUSH1 0x20 DUP3 ADD SWAP1 POP PUSH2 0x1C23 PUSH1 0x0 DUP4 ADD DUP5 PUSH2 0x1BFF JUMP JUMPDEST SWAP3 SWAP2 POP POP JUMP JUMPDEST PUSH1 0x0 PUSH2 0x1C34 DUP3 PUSH2 0x19B8 JUMP JUMPDEST SWAP1 POP SWAP2 SWAP1 POP JUMP JUMPDEST PUSH2 0x1C44 DUP2 PUSH2 0x1C29 JUMP JUMPDEST DUP3 MSTORE POP POP JUMP JUMPDEST PUSH1 0x0 PUSH1 0x20 DUP3 ADD SWAP1 POP PUSH2 0x1C5F PUSH1 0x0 DUP4 ADD DUP5 PUSH2 0x1C3B JUMP JUMPDEST SWAP3 SWAP2 POP POP JUMP JUMPDEST PUSH1 0x0 PUSH1 0x40 MLOAD SWAP1 POP SWAP1 JUMP JUMPDEST PUSH1 0x0 DUP1 REVERT JUMPDEST PUSH1 0x0 DUP1 REVERT JUMPDEST PUSH2 0x1C82 DUP2 PUSH2 0x1877 JUMP JUMPDEST DUP2 EQ PUSH2 0x1C8D JUMPI PUSH1 0x0 DUP1 REVERT JUMPDEST POP JUMP JUMPDEST PUSH1 0x0 DUP2 CALLDATALOAD SWAP1 POP PUSH2 0x1C9F DUP2 PUSH2 0x1C79 JUMP JUMPDEST SWAP3 SWAP2 POP POP JUMP JUMPDEST PUSH1 0x0 PUSH1 0x20 DUP3 DUP5 SUB SLT ISZERO PUSH2 0x1CBB JUMPI PUSH2 0x1CBA PUSH2 0x1C6F JUMP JUMPDEST JUMPDEST PUSH1 0x0 PUSH2 0x1CC9 DUP5 DUP3 DUP6 ADD PUSH2 0x1C90 JUMP JUMPDEST SWAP2 POP POP SWAP3 SWAP2 POP POP JUMP JUMPDEST PUSH1 0x0 PUSH2 0x1CDD DUP3 PUSH2 0x196C JUMP JUMPDEST SWAP1 POP SWAP2 SWAP1 POP JUMP JUMPDEST PUSH2 0x1CED DUP2 PUSH2 0x1CD2 JUMP JUMPDEST DUP3 MSTORE POP POP JUMP JUMPDEST PUSH1 0x0 PUSH1 0x20 DUP3 ADD SWAP1 POP PUSH2 0x1D08 PUSH1 0x0 DUP4 ADD DUP5 PUSH2 0x1CE4 JUMP JUMPDEST SWAP3 SWAP2 POP POP JUMP JUMPDEST PUSH1 0x0 DUP2 MLOAD SWAP1 POP PUSH2 0x1D1D DUP2 PUSH2 0x1C79 JUMP JUMPDEST SWAP3 SWAP2 POP POP JUMP JUMPDEST PUSH1 0x0 DUP1 REVERT JUMPDEST PUSH1 0x0 DUP1 REVERT JUMPDEST PUSH32 0x4E487B7100000000000000000000000000000000000000000000000000000000 PUSH1 0x0 MSTORE PUSH1 0x41 PUSH1 0x4 MSTORE PUSH1 0x24 PUSH1 0x0 REVERT JUMPDEST PUSH2 0x1D65 DUP3 PUSH2 0x18D6 JUMP JUMPDEST DUP2 ADD DUP2 DUP2 LT PUSH8 0xFFFFFFFFFFFFFFFF DUP3 GT OR ISZERO PUSH2 0x1D84 JUMPI PUSH2 0x1D83 PUSH2 0x1D2D JUMP JUMPDEST JUMPDEST DUP1 PUSH1 0x40 MSTORE POP POP POP JUMP JUMPDEST PUSH1 0x0 PUSH2 0x1D97 PUSH2 0x1C65 JUMP JUMPDEST SWAP1 POP PUSH2 0x1DA3 DUP3 DUP3 PUSH2 0x1D5C JUMP JUMPDEST SWAP2 SWAP1 POP JUMP JUMPDEST PUSH1 0x0 PUSH8 0xFFFFFFFFFFFFFFFF DUP3 GT ISZERO PUSH2 0x1DC3 JUMPI PUSH2 0x1DC2 PUSH2 0x1D2D JUMP JUMPDEST JUMPDEST PUSH2 0x1DCC DUP3 PUSH2 0x18D6 JUMP JUMPDEST SWAP1 POP PUSH1 0x20 DUP2 ADD SWAP1 POP SWAP2 SWAP1 POP JUMP JUMPDEST PUSH1 0x0 PUSH2 0x1DEC PUSH2 0x1DE7 DUP5 PUSH2 0x1DA8 JUMP JUMPDEST PUSH2 0x1D8D JUMP JUMPDEST SWAP1 POP DUP3 DUP2 MSTORE PUSH1 0x20 DUP2 ADD DUP5 DUP5 DUP5 ADD GT ISZERO PUSH2 0x1E08 JUMPI PUSH2 0x1E07 PUSH2 0x1D28 JUMP JUMPDEST JUMPDEST PUSH2 0x1E13 DUP5 DUP3 DUP6 PUSH2 0x18AC JUMP JUMPDEST POP SWAP4 SWAP3 POP POP POP JUMP JUMPDEST PUSH1 0x0 DUP3 PUSH1 0x1F DUP4 ADD SLT PUSH2 0x1E30 JUMPI PUSH2 0x1E2F PUSH2 0x1D23 JUMP JUMPDEST JUMPDEST DUP2 MLOAD PUSH2 0x1E40 DUP5 DUP3 PUSH1 0x20 DUP7 ADD PUSH2 0x1DD9 JUMP JUMPDEST SWAP2 POP POP SWAP3 SWAP2 POP POP JUMP JUMPDEST PUSH1 0x0 DUP1 PUSH1 0x0 DUP1 PUSH1 0x80 DUP6 DUP8 SUB SLT ISZERO PUSH2 0x1E63 JUMPI PUSH2 0x1E62 PUSH2 0x1C6F JUMP JUMPDEST JUMPDEST PUSH1 0x0 PUSH2 0x1E71 DUP8 DUP3 DUP9 ADD PUSH2 0x1D0E JUMP JUMPDEST SWAP5 POP POP PUSH1 0x20 PUSH2 0x1E82 DUP8 DUP3 DUP9 ADD PUSH2 0x1D0E JUMP JUMPDEST SWAP4 POP POP PUSH1 0x40 PUSH2 0x1E93 DUP8 DUP3 DUP9 ADD PUSH2 0x1D0E JUMP JUMPDEST SWAP3 POP POP PUSH1 0x60 DUP6 ADD MLOAD PUSH8 0xFFFFFFFFFFFFFFFF DUP2 GT ISZERO PUSH2 0x1EB4 JUMPI PUSH2 0x1EB3 PUSH2 0x1C74 JUMP JUMPDEST JUMPDEST PUSH2 0x1EC0 DUP8 DUP3 DUP9 ADD PUSH2 0x1E1B JUMP JUMPDEST SWAP2 POP POP SWAP3 SWAP6 SWAP2 SWAP5 POP SWAP3 POP JUMP JUMPDEST PUSH1 0x0 PUSH8 0xFFFFFFFFFFFFFFFF DUP3 GT ISZERO PUSH2 0x1EE7 JUMPI PUSH2 0x1EE6 PUSH2 0x1D2D JUMP JUMPDEST JUMPDEST PUSH1 0x20 DUP3 MUL SWAP1 POP PUSH1 0x20 DUP2 ADD SWAP1 POP SWAP2 SWAP1 POP JUMP JUMPDEST PUSH1 0x0 DUP1 REVERT JUMPDEST PUSH2 0x1F06 DUP2 PUSH2 0x1A06 JUMP JUMPDEST DUP2 EQ PUSH2 0x1F11 JUMPI PUSH1 0x0 DUP1 REVERT JUMPDEST POP JUMP JUMPDEST PUSH1 0x0 DUP2 MLOAD SWAP1 POP PUSH2 0x1F23 DUP2 PUSH2 0x1EFD JUMP JUMPDEST SWAP3 SWAP2 POP POP JUMP JUMPDEST PUSH1 0x0 PUSH2 0x1F3C PUSH2 0x1F37 DUP5 PUSH2 0x1ECC JUMP JUMPDEST PUSH2 0x1D8D JUMP JUMPDEST SWAP1 POP DUP1 DUP4 DUP3 MSTORE PUSH1 0x20 DUP3 ADD SWAP1 POP PUSH1 0x20 DUP5 MUL DUP4 ADD DUP6 DUP2 GT ISZERO PUSH2 0x1F5F JUMPI PUSH2 0x1F5E PUSH2 0x1EF8 JUMP JUMPDEST JUMPDEST DUP4 JUMPDEST DUP2 DUP2 LT ISZERO PUSH2 0x1F88 JUMPI DUP1 PUSH2 0x1F74 DUP9 DUP3 PUSH2 0x1F14 JUMP JUMPDEST DUP5 MSTORE PUSH1 0x20 DUP5 ADD SWAP4 POP POP PUSH1 0x20 DUP2 ADD SWAP1 POP PUSH2 0x1F61 JUMP JUMPDEST POP POP POP SWAP4 SWAP3 POP POP POP JUMP JUMPDEST PUSH1 0x0 DUP3 PUSH1 0x1F DUP4 ADD SLT PUSH2 0x1FA7 JUMPI PUSH2 0x1FA6 PUSH2 0x1D23 JUMP JUMPDEST JUMPDEST DUP2 MLOAD PUSH2 0x1FB7 DUP5 DUP3 PUSH1 0x20 DUP7 ADD PUSH2 0x1F29 JUMP JUMPDEST SWAP2 POP POP SWAP3 SWAP2 POP POP JUMP JUMPDEST PUSH1 0x0 PUSH8 0xFFFFFFFFFFFFFFFF DUP3 GT ISZERO PUSH2 0x1FDB JUMPI PUSH2 0x1FDA PUSH2 0x1D2D JUMP JUMPDEST JUMPDEST PUSH1 0x20 DUP3 MUL SWAP1 POP PUSH1 0x20 DUP2 ADD SWAP1 POP SWAP2 SWAP1 POP JUMP JUMPDEST PUSH1 0x0 PUSH2 0x1FFF PUSH2 0x1FFA DUP5 PUSH2 0x1FC0 JUMP JUMPDEST PUSH2 0x1D8D JUMP JUMPDEST SWAP1 POP DUP1 DUP4 DUP3 MSTORE PUSH1 0x20 DUP3 ADD SWAP1 POP PUSH1 0x20 DUP5 MUL DUP4 ADD DUP6 DUP2 GT ISZERO PUSH2 0x2022 JUMPI PUSH2 0x2021 PUSH2 0x1EF8 JUMP JUMPDEST JUMPDEST DUP4 JUMPDEST DUP2 DUP2 LT ISZERO PUSH2 0x204B JUMPI DUP1 PUSH2 0x2037 DUP9 DUP3 PUSH2 0x1D0E JUMP JUMPDEST DUP5 MSTORE PUSH1 0x20 DUP5 ADD SWAP4 POP POP PUSH1 0x20 DUP2 ADD SWAP1 POP PUSH2 0x2024 JUMP JUMPDEST POP POP POP SWAP4 SWAP3 POP POP POP JUMP JUMPDEST PUSH1 0x0 DUP3 PUSH1 0x1F DUP4 ADD SLT PUSH2 0x206A JUMPI PUSH2 0x2069 PUSH2 0x1D23 JUMP JUMPDEST JUMPDEST DUP2 MLOAD PUSH2 0x207A DUP5 DUP3 PUSH1 0x20 DUP7 ADD PUSH2 0x1FEC JUMP JUMPDEST SWAP2 POP POP SWAP3 SWAP2 POP POP JUMP JUMPDEST PUSH1 0x0 DUP1 PUSH1 0x40 DUP4 DUP6 SUB SLT ISZERO PUSH2 0x209A JUMPI PUSH2 0x2099 PUSH2 0x1C6F JUMP JUMPDEST JUMPDEST PUSH1 0x0 DUP4 ADD MLOAD PUSH8 0xFFFFFFFFFFFFFFFF DUP2 GT ISZERO PUSH2 0x20B8 JUMPI PUSH2 0x20B7 PUSH2 0x1C74 JUMP JUMPDEST JUMPDEST PUSH2 0x20C4 DUP6 DUP3 DUP7 ADD PUSH2 0x1F92 JUMP JUMPDEST SWAP3 POP POP PUSH1 0x20 DUP4 ADD MLOAD PUSH8 0xFFFFFFFFFFFFFFFF DUP2 GT ISZERO PUSH2 0x20E5 JUMPI PUSH2 0x20E4 PUSH2 0x1C74 JUMP JUMPDEST JUMPDEST PUSH2 0x20F1 DUP6 DUP3 DUP7 ADD PUSH2 0x2055 JUMP JUMPDEST SWAP2 POP POP SWAP3 POP SWAP3 SWAP1 POP JUMP JUMPDEST PUSH32 0x4F6E6C7920656C656374696F6E20617574686F726974792063616E2072657365 PUSH1 0x0 DUP3 ADD MSTORE PUSH32 0x7400000000000000000000000000000000000000000000000000000000000000 PUSH1 0x20 DUP3 ADD MSTORE POP JUMP JUMPDEST PUSH1 0x0 PUSH2 0x2157 PUSH1 0x21 DUP4 PUSH2 0x189B JUMP JUMPDEST SWAP2 POP PUSH2 0x2162 DUP3 PUSH2 0x20FB JUMP JUMPDEST PUSH1 0x40 DUP3 ADD SWAP1 POP SWAP2 SWAP1 POP JUMP JUMPDEST PUSH1 0x0 PUSH1 0x20 DUP3 ADD SWAP1 POP DUP2 DUP2 SUB PUSH1 0x0 DUP4 ADD MSTORE PUSH2 0x2186 DUP2 PUSH2 0x214A JUMP JUMPDEST SWAP1 POP SWAP2 SWAP1 POP JUMP JUMPDEST PUSH32 0x4F6E6C7920656C656374696F6E20617574686F726974792063616E2072756E20 PUSH1 0x0 DUP3 ADD MSTORE PUSH32 0x7465737473000000000000000000000000000000000000000000000000000000 PUSH1 0x20 DUP3 ADD MSTORE POP JUMP JUMPDEST PUSH1 0x0 PUSH2 0x21E9 PUSH1 0x25 DUP4 PUSH2 0x189B JUMP JUMPDEST SWAP2 POP PUSH2 0x21F4 DUP3 PUSH2 0x218D JUMP JUMPDEST PUSH1 0x40 DUP3 ADD SWAP1 POP SWAP2 SWAP1 POP JUMP JUMPDEST PUSH1 0x0 PUSH1 0x20 DUP3 ADD SWAP1 POP DUP2 DUP2 SUB PUSH1 0x0 DUP4 ADD MSTORE PUSH2 0x2218 DUP2 PUSH2 0x21DC JUMP JUMPDEST SWAP1 POP SWAP2 SWAP1 POP JUMP JUMPDEST PUSH1 0x0 DUP2 SLOAD SWAP1 POP SWAP2 SWAP1 POP JUMP JUMPDEST PUSH1 0x0 DUP2 SWAP1 POP DUP2 PUSH1 0x0 MSTORE PUSH1 0x20 PUSH1 0x0 KECCAK256 SWAP1 POP SWAP2 SWAP1 POP JUMP JUMPDEST PUSH1 0x0 DUP2 PUSH1 0x0 SHR SWAP1 POP SWAP2 SWAP1 POP JUMP JUMPDEST PUSH1 0x0 DUP2 SWAP1 POP SWAP2 SWAP1 POP JUMP JUMPDEST PUSH1 0x0 PUSH2 0x2269 PUSH2 0x2264 DUP4 PUSH2 0x223F JUMP JUMPDEST PUSH2 0x224C JUMP JUMPDEST SWAP1 POP SWAP2 SWAP1 POP JUMP JUMPDEST PUSH1 0x0 PUSH2 0x227C DUP3 SLOAD PUSH2 0x2256 JUMP JUMPDEST SWAP1 POP SWAP2 SWAP1 POP JUMP JUMPDEST PUSH1 0x0 PUSH1 0x1 DUP3 ADD SWAP1 POP SWAP2 SWAP1 POP JUMP JUMPDEST PUSH1 0x0 PUSH2 0x229B DUP3 PUSH2 0x221F JUMP JUMPDEST PUSH2 0x22A5 DUP2 DUP6 PUSH2 0x1A45 JUMP JUMPDEST SWAP4 POP PUSH2 0x22B0 DUP4 PUSH2 0x222A JUMP JUMPDEST DUP1 PUSH1 0x0 JUMPDEST DUP4 DUP2 LT ISZERO PUSH2 0x22E8 JUMPI PUSH2 0x22C5 DUP3 PUSH2 0x2270 JUMP JUMPDEST PUSH2 0x22CF DUP9 DUP3 PUSH2 0x1A75 JUMP JUMPDEST SWAP8 POP PUSH2 0x22DA DUP4 PUSH2 0x2283 JUMP JUMPDEST SWAP3 POP POP PUSH1 0x1 DUP2 ADD SWAP1 POP PUSH2 0x22B4 JUMP JUMPDEST POP DUP6 SWAP4 POP POP POP POP SWAP3 SWAP2 POP POP JUMP JUMPDEST PUSH1 0x0 PUSH1 0x60 DUP3 ADD SWAP1 POP PUSH2 0x230A PUSH1 0x0 DUP4 ADD DUP7 PUSH2 0x1A10 JUMP JUMPDEST DUP2 DUP2 SUB PUSH1 0x20 DUP4 ADD MSTORE PUSH2 0x231C DUP2 DUP6 PUSH2 0x2290 JUMP JUMPDEST SWAP1 POP PUSH2 0x232B PUSH1 0x40 DUP4 ADD DUP5 PUSH2 0x1A10 JUMP JUMPDEST SWAP5 SWAP4 POP POP POP POP JUMP JUMPDEST PUSH1 0x0 DUP2 ISZERO ISZERO SWAP1 POP SWAP2 SWAP1 POP JUMP JUMPDEST PUSH2 0x2348 DUP2 PUSH2 0x2333 JUMP JUMPDEST DUP2 EQ PUSH2 0x2353 JUMPI PUSH1 0x0 DUP1 REVERT JUMPDEST POP JUMP JUMPDEST PUSH1 0x0 DUP2 MLOAD SWAP1 POP PUSH2 0x2365 DUP2 PUSH2 0x233F JUMP JUMPDEST SWAP3 SWAP2 POP POP JUMP JUMPDEST PUSH1 0x0 PUSH1 0x20 DUP3 DUP5 SUB SLT ISZERO PUSH2 0x2381 JUMPI PUSH2 0x2380 PUSH2 0x1C6F JUMP JUMPDEST JUMPDEST PUSH1 0x0 PUSH2 0x238F DUP5 DUP3 DUP6 ADD PUSH2 0x2356 JUMP JUMPDEST SWAP2 POP POP SWAP3 SWAP2 POP POP JUMP JUMPDEST PUSH1 0x0 DUP2 PUSH1 0xE0 SHR SWAP1 POP SWAP2 SWAP1 POP JUMP JUMPDEST PUSH1 0x0 PUSH1 0x3 RETURNDATASIZE GT ISZERO PUSH2 0x23C4 JUMPI PUSH1 0x4 PUSH1 0x0 DUP1 RETURNDATACOPY PUSH2 0x23C1 PUSH1 0x0 MLOAD PUSH2 0x2398 JUMP JUMPDEST SWAP1 POP JUMPDEST SWAP1 JUMP JUMPDEST PUSH1 0x0 PUSH1 0x44 RETURNDATASIZE LT PUSH2 0x2454 JUMPI PUSH2 0x23D9 PUSH2 0x1C65 JUMP JUMPDEST PUSH1 0x4 RETURNDATASIZE SUB PUSH1 0x4 DUP3 RETURNDATACOPY DUP1 MLOAD RETURNDATASIZE PUSH1 0x24 DUP3 ADD GT PUSH8 0xFFFFFFFFFFFFFFFF DUP3 GT OR ISZERO PUSH2 0x2401 JUMPI POP POP PUSH2 0x2454 JUMP JUMPDEST DUP1 DUP3 ADD DUP1 MLOAD PUSH8 0xFFFFFFFFFFFFFFFF DUP2 GT ISZERO PUSH2 0x241F JUMPI POP POP POP POP PUSH2 0x2454 JUMP JUMPDEST DUP1 PUSH1 0x20 DUP4 ADD ADD PUSH1 0x4 RETURNDATASIZE SUB DUP6 ADD DUP2 GT ISZERO PUSH2 0x243C JUMPI POP POP POP POP POP PUSH2 0x2454 JUMP JUMPDEST PUSH2 0x244B DUP3 PUSH1 0x20 ADD DUP6 ADD DUP7 PUSH2 0x1D5C JUMP JUMPDEST DUP3 SWAP6 POP POP POP POP POP POP JUMPDEST SWAP1 JUMP JUMPDEST PUSH32 0x456C656374696F6E205365747570000000000000000000000000000000000000 PUSH1 0x0 DUP3 ADD MSTORE POP JUMP JUMPDEST PUSH1 0x0 PUSH2 0x248D PUSH1 0xE DUP4 PUSH2 0x189B JUMP JUMPDEST SWAP2 POP PUSH2 0x2498 DUP3 PUSH2 0x2457 JUMP JUMPDEST PUSH1 0x20 DUP3 ADD SWAP1 POP SWAP2 SWAP1 POP JUMP JUMPDEST PUSH2 0x24AC DUP2 PUSH2 0x2333 JUMP JUMPDEST DUP3 MSTORE POP POP JUMP JUMPDEST PUSH1 0x0 PUSH1 0x60 DUP3 ADD SWAP1 POP DUP2 DUP2 SUB PUSH1 0x0 DUP4 ADD MSTORE PUSH2 0x24CB DUP2 PUSH2 0x2480 JUMP JUMPDEST SWAP1 POP PUSH2 0x24DA PUSH1 0x20 DUP4 ADD DUP6 PUSH2 0x24A3 JUMP JUMPDEST DUP2 DUP2 SUB PUSH1 0x40 DUP4 ADD MSTORE PUSH2 0x24EC DUP2 DUP5 PUSH2 0x18E7 JUMP JUMPDEST SWAP1 POP SWAP4 SWAP3 POP POP POP JUMP JUMPDEST PUSH32 0x456C656374696F6E20706172616D65746572732073746F726564207375636365 PUSH1 0x0 DUP3 ADD MSTORE PUSH32 0x737366756C6C7900000000000000000000000000000000000000000000000000 PUSH1 0x20 DUP3 ADD MSTORE POP JUMP JUMPDEST PUSH1 0x0 PUSH2 0x2551 PUSH1 0x27 DUP4 PUSH2 0x189B JUMP JUMPDEST SWAP2 POP PUSH2 0x255C DUP3 PUSH2 0x24F5 JUMP JUMPDEST PUSH1 0x40 DUP3 ADD SWAP1 POP SWAP2 SWAP1 POP JUMP JUMPDEST PUSH1 0x0 PUSH1 0x60 DUP3 ADD SWAP1 POP DUP2 DUP2 SUB PUSH1 0x0 DUP4 ADD MSTORE PUSH2 0x2580 DUP2 PUSH2 0x2480 JUMP JUMPDEST SWAP1 POP PUSH2 0x258F PUSH1 0x20 DUP4 ADD DUP5 PUSH2 0x24A3 JUMP JUMPDEST DUP2 DUP2 SUB PUSH1 0x40 DUP4 ADD MSTORE PUSH2 0x25A0 DUP2 PUSH2 0x2544 JUMP JUMPDEST SWAP1 POP SWAP3 SWAP2 POP POP JUMP JUMPDEST PUSH32 0x456C656374696F6E20736574757020666C6167206E6F74207365740000000000 PUSH1 0x0 DUP3 ADD MSTORE POP JUMP JUMPDEST PUSH1 0x0 PUSH2 0x25DE PUSH1 0x1B DUP4 PUSH2 0x189B JUMP JUMPDEST SWAP2 POP PUSH2 0x25E9 DUP3 PUSH2 0x25A8 JUMP JUMPDEST PUSH1 0x20 DUP3 ADD SWAP1 POP SWAP2 SWAP1 POP JUMP JUMPDEST PUSH1 0x0 PUSH1 0x60 DUP3 ADD SWAP1 POP DUP2 DUP2 SUB PUSH1 0x0 DUP4 ADD MSTORE PUSH2 0x260D DUP2 PUSH2 0x2480 JUMP JUMPDEST SWAP1 POP PUSH2 0x261C PUSH1 0x20 DUP4 ADD DUP5 PUSH2 0x24A3 JUMP JUMPDEST DUP2 DUP2 SUB PUSH1 0x40 DUP4 ADD MSTORE PUSH2 0x262D DUP2 PUSH2 0x25D1 JUMP JUMPDEST SWAP1 POP SWAP3 SWAP2 POP POP JUMP JUMPDEST PUSH1 0x0 DUP2 SWAP1 POP SWAP2 SWAP1 POP JUMP JUMPDEST PUSH2 0x2650 PUSH2 0x264B DUP3 PUSH2 0x1A06 JUMP JUMPDEST PUSH2 0x2635 JUMP JUMPDEST DUP3 MSTORE POP POP JUMP JUMPDEST PUSH1 0x0 PUSH2 0x2662 DUP3 DUP5 PUSH2 0x263F JUMP JUMPDEST PUSH1 0x20 DUP3 ADD SWAP2 POP DUP2 SWAP1 POP SWAP3 SWAP2 POP POP JUMP JUMPDEST PUSH1 0x0 DUP2 MLOAD SWAP1 POP SWAP2 SWAP1 POP JUMP JUMPDEST PUSH1 0x0 DUP3 DUP3 MSTORE PUSH1 0x20 DUP3 ADD SWAP1 POP SWAP3 SWAP2 POP POP JUMP JUMPDEST PUSH1 0x0 PUSH2 0x2698 DUP3 PUSH2 0x2671 JUMP JUMPDEST PUSH2 0x26A2 DUP2 DUP6 PUSH2 0x267C JUMP JUMPDEST SWAP4 POP PUSH2 0x26B2 DUP2 DUP6 PUSH1 0x20 DUP7 ADD PUSH2 0x18AC JUMP JUMPDEST PUSH2 0x26BB DUP2 PUSH2 0x18D6 JUMP JUMPDEST DUP5 ADD SWAP2 POP POP SWAP3 SWAP2 POP POP JUMP JUMPDEST PUSH1 0x0 PUSH1 0x60 DUP4 ADD PUSH1 0x0 DUP4 ADD MLOAD DUP5 DUP3 SUB PUSH1 0x0 DUP7 ADD MSTORE PUSH2 0x26E3 DUP3 DUP3 PUSH2 0x268D JUMP JUMPDEST SWAP2 POP POP PUSH1 0x20 DUP4 ADD MLOAD DUP5 DUP3 SUB PUSH1 0x20 DUP7 ADD MSTORE PUSH2 0x26FD DUP3 DUP3 PUSH2 0x268D JUMP JUMPDEST SWAP2 POP POP PUSH1 0x40 DUP4 ADD MLOAD DUP5 DUP3 SUB PUSH1 0x40 DUP7 ADD MSTORE PUSH2 0x2717 DUP3 DUP3 PUSH2 0x268D JUMP JUMPDEST SWAP2 POP POP DUP1 SWAP2 POP POP SWAP3 SWAP2 POP POP JUMP JUMPDEST PUSH1 0x0 PUSH1 0x20 DUP3 ADD SWAP1 POP DUP2 DUP2 SUB PUSH1 0x0 DUP4 ADD MSTORE PUSH2 0x273E DUP2 DUP5 PUSH2 0x26C6 JUMP JUMPDEST SWAP1 POP SWAP3 SWAP2 POP POP JUMP JUMPDEST PUSH32 0x43657274696669636174652053746F7261676500000000000000000000000000 PUSH1 0x0 DUP3 ADD MSTORE POP JUMP JUMPDEST PUSH1 0x0 PUSH2 0x277C PUSH1 0x13 DUP4 PUSH2 0x189B JUMP JUMPDEST SWAP2 POP PUSH2 0x2787 DUP3 PUSH2 0x2746 JUMP JUMPDEST PUSH1 0x20 DUP3 ADD SWAP1 POP SWAP2 SWAP1 POP JUMP JUMPDEST PUSH1 0x0 PUSH1 0x60 DUP3 ADD SWAP1 POP DUP2 DUP2 SUB PUSH1 0x0 DUP4 ADD MSTORE PUSH2 0x27AB DUP2 PUSH2 0x276F JUMP JUMPDEST SWAP1 POP PUSH2 0x27BA PUSH1 0x20 DUP4 ADD DUP6 PUSH2 0x24A3 JUMP JUMPDEST DUP2 DUP2 SUB PUSH1 0x40 DUP4 ADD MSTORE PUSH2 0x27CC DUP2 DUP5 PUSH2 0x18E7 JUMP JUMPDEST SWAP1 POP SWAP4 SWAP3 POP POP POP JUMP JUMPDEST PUSH1 0x0 DUP3 DUP3 MSTORE PUSH1 0x20 DUP3 ADD SWAP1 POP SWAP3 SWAP2 POP POP JUMP JUMPDEST PUSH1 0x0 PUSH2 0x27F1 DUP3 PUSH2 0x2671 JUMP JUMPDEST PUSH2 0x27FB DUP2 DUP6 PUSH2 0x27D5 JUMP JUMPDEST SWAP4 POP PUSH2 0x280B DUP2 DUP6 PUSH1 0x20 DUP7 ADD PUSH2 0x18AC JUMP JUMPDEST PUSH2 0x2814 DUP2 PUSH2 0x18D6 JUMP JUMPDEST DUP5 ADD SWAP2 POP POP SWAP3 SWAP2 POP POP JUMP JUMPDEST PUSH1 0x0 PUSH1 0x20 DUP3 ADD SWAP1 POP DUP2 DUP2 SUB PUSH1 0x0 DUP4 ADD MSTORE PUSH2 0x2839 DUP2 DUP5 PUSH2 0x27E6 JUMP JUMPDEST SWAP1 POP SWAP3 SWAP2 POP POP JUMP JUMPDEST PUSH32 0x43657274696669636174652073746F72656420616E6420766572696669656400 PUSH1 0x0 DUP3 ADD MSTORE POP JUMP JUMPDEST PUSH1 0x0 PUSH2 0x2877 PUSH1 0x1F DUP4 PUSH2 0x189B JUMP JUMPDEST SWAP2 POP PUSH2 0x2882 DUP3 PUSH2 0x2841 JUMP JUMPDEST PUSH1 0x20 DUP3 ADD SWAP1 POP SWAP2 SWAP1 POP JUMP JUMPDEST PUSH1 0x0 PUSH1 0x60 DUP3 ADD SWAP1 POP DUP2 DUP2 SUB PUSH1 0x0 DUP4 ADD MSTORE PUSH2 0x28A6 DUP2 PUSH2 0x276F JUMP JUMPDEST SWAP1 POP PUSH2 0x28B5 PUSH1 0x20 DUP4 ADD DUP5 PUSH2 0x24A3 JUMP JUMPDEST DUP2 DUP2 SUB PUSH1 0x40 DUP4 ADD MSTORE PUSH2 0x28C6 DUP2 PUSH2 0x286A JUMP JUMPDEST SWAP1 POP SWAP3 SWAP2 POP POP JUMP JUMPDEST PUSH32 0x4365727469666963617465206E6F7420666F756E642061667465722073746F72 PUSH1 0x0 DUP3 ADD MSTORE PUSH32 0x6167650000000000000000000000000000000000000000000000000000000000 PUSH1 0x20 DUP3 ADD MSTORE POP JUMP JUMPDEST PUSH1 0x0 PUSH2 0x292A PUSH1 0x23 DUP4 PUSH2 0x189B JUMP JUMPDEST SWAP2 POP PUSH2 0x2935 DUP3 PUSH2 0x28CE JUMP JUMPDEST PUSH1 0x40 DUP3 ADD SWAP1 POP SWAP2 SWAP1 POP JUMP JUMPDEST PUSH1 0x0 PUSH1 0x60 DUP3 ADD SWAP1 POP DUP2 DUP2 SUB PUSH1 0x0 DUP4 ADD MSTORE PUSH2 0x2959 DUP2 PUSH2 0x276F JUMP JUMPDEST SWAP1 POP PUSH2 0x2968 PUSH1 0x20 DUP4 ADD DUP5 PUSH2 0x24A3 JUMP JUMPDEST DUP2 DUP2 SUB PUSH1 0x40 DUP4 ADD MSTORE PUSH2 0x2979 DUP2 PUSH2 0x291D JUMP JUMPDEST SWAP1 POP SWAP3 SWAP2 POP POP JUMP JUMPDEST PUSH1 0x0 PUSH1 0x40 DUP3 ADD SWAP1 POP DUP2 DUP2 SUB PUSH1 0x0 DUP4 ADD MSTORE PUSH2 0x299B DUP2 DUP6 PUSH2 0x27E6 JUMP JUMPDEST SWAP1 POP DUP2 DUP2 SUB PUSH1 0x20 DUP4 ADD MSTORE PUSH2 0x29AF DUP2 DUP5 PUSH2 0x27E6 JUMP JUMPDEST SWAP1 POP SWAP4 SWAP3 POP POP POP JUMP JUMPDEST PUSH1 0x0 PUSH1 0x20 DUP3 DUP5 SUB SLT ISZERO PUSH2 0x29CE JUMPI PUSH2 0x29CD PUSH2 0x1C6F JUMP JUMPDEST JUMPDEST PUSH1 0x0 PUSH2 0x29DC DUP5 DUP3 DUP6 ADD PUSH2 0x1D0E JUMP JUMPDEST SWAP2 POP POP SWAP3 SWAP2 POP POP JUMP JUMPDEST PUSH32 0x566F74657220526567697374726174696F6E0000000000000000000000000000 PUSH1 0x0 DUP3 ADD MSTORE POP JUMP JUMPDEST PUSH1 0x0 PUSH2 0x2A1B PUSH1 0x12 DUP4 PUSH2 0x189B JUMP JUMPDEST SWAP2 POP PUSH2 0x2A26 DUP3 PUSH2 0x29E5 JUMP JUMPDEST PUSH1 0x20 DUP3 ADD SWAP1 POP SWAP2 SWAP1 POP JUMP JUMPDEST PUSH1 0x0 PUSH1 0x60 DUP3 ADD SWAP1 POP DUP2 DUP2 SUB PUSH1 0x0 DUP4 ADD MSTORE PUSH2 0x2A4A DUP2 PUSH2 0x2A0E JUMP JUMPDEST SWAP1 POP PUSH2 0x2A59 PUSH1 0x20 DUP4 ADD DUP6 PUSH2 0x24A3 JUMP JUMPDEST DUP2 DUP2 SUB PUSH1 0x40 DUP4 ADD MSTORE PUSH2 0x2A6B DUP2 DUP5 PUSH2 0x18E7 JUMP JUMPDEST SWAP1 POP SWAP4 SWAP3 POP POP POP JUMP JUMPDEST PUSH1 0x0 PUSH1 0x20 DUP3 ADD SWAP1 POP PUSH2 0x2A89 PUSH1 0x0 DUP4 ADD DUP5 PUSH2 0x1881 JUMP JUMPDEST SWAP3 SWAP2 POP POP JUMP JUMPDEST PUSH32 0x566F7465722072656769737465726564207375636365737366756C6C79207769 PUSH1 0x0 DUP3 ADD MSTORE PUSH32 0x746820696E646578203000000000000000000000000000000000000000000000 PUSH1 0x20 DUP3 ADD MSTORE POP JUMP JUMPDEST PUSH1 0x0 PUSH2 0x2AEB PUSH1 0x2A DUP4 PUSH2 0x189B JUMP JUMPDEST SWAP2 POP PUSH2 0x2AF6 DUP3 PUSH2 0x2A8F JUMP JUMPDEST PUSH1 0x40 DUP3 ADD SWAP1 POP SWAP2 SWAP1 POP JUMP JUMPDEST PUSH1 0x0 PUSH1 0x60 DUP3 ADD SWAP1 POP DUP2 DUP2 SUB PUSH1 0x0 DUP4 ADD MSTORE PUSH2 0x2B1A DUP2 PUSH2 0x2A0E JUMP JUMPDEST SWAP1 POP PUSH2 0x2B29 PUSH1 0x20 DUP4 ADD DUP5 PUSH2 0x24A3 JUMP JUMPDEST DUP2 DUP2 SUB PUSH1 0x40 DUP4 ADD MSTORE PUSH2 0x2B3A DUP2 PUSH2 0x2ADE JUMP JUMPDEST SWAP1 POP SWAP3 SWAP2 POP POP JUMP JUMPDEST PUSH32 0x566F74657220726567697374726174696F6E20766572696669636174696F6E20 PUSH1 0x0 DUP3 ADD MSTORE PUSH32 0x6661696C65640000000000000000000000000000000000000000000000000000 PUSH1 0x20 DUP3 ADD MSTORE POP JUMP JUMPDEST PUSH1 0x0 PUSH2 0x2B9E PUSH1 0x26 DUP4 PUSH2 0x189B JUMP JUMPDEST SWAP2 POP PUSH2 0x2BA9 DUP3 PUSH2 0x2B42 JUMP JUMPDEST PUSH1 0x40 DUP3 ADD SWAP1 POP SWAP2 SWAP1 POP JUMP JUMPDEST PUSH1 0x0 PUSH1 0x60 DUP3 ADD SWAP1 POP DUP2 DUP2 SUB PUSH1 0x0 DUP4 ADD MSTORE PUSH2 0x2BCD DUP2 PUSH2 0x2A0E JUMP JUMPDEST SWAP1 POP PUSH2 0x2BDC PUSH1 0x20 DUP4 ADD DUP5 PUSH2 0x24A3 JUMP JUMPDEST DUP2 DUP2 SUB PUSH1 0x40 DUP4 ADD MSTORE PUSH2 0x2BED DUP2 PUSH2 0x2B91 JUMP JUMPDEST SWAP1 POP SWAP3 SWAP2 POP POP JUMP JUMPDEST PUSH1 0x0 DUP2 SWAP1 POP SWAP3 SWAP2 POP POP JUMP JUMPDEST PUSH32 0x5374617274696E6720766F74696E67207068617365206661696C65643A200000 PUSH1 0x0 DUP3 ADD MSTORE POP JUMP JUMPDEST PUSH1 0x0 PUSH2 0x2C36 PUSH1 0x1E DUP4 PUSH2 0x2BF5 JUMP JUMPDEST SWAP2 POP PUSH2 0x2C41 DUP3 PUSH2 0x2C00 JUMP JUMPDEST PUSH1 0x1E DUP3 ADD SWAP1 POP SWAP2 SWAP1 POP JUMP JUMPDEST PUSH1 0x0 PUSH2 0x2C57 DUP3 PUSH2 0x1890 JUMP JUMPDEST PUSH2 0x2C61 DUP2 DUP6 PUSH2 0x2BF5 JUMP JUMPDEST SWAP4 POP PUSH2 0x2C71 DUP2 DUP6 PUSH1 0x20 DUP7 ADD PUSH2 0x18AC JUMP JUMPDEST DUP1 DUP5 ADD SWAP2 POP POP SWAP3 SWAP2 POP POP JUMP JUMPDEST PUSH1 0x0 PUSH2 0x2C88 DUP3 PUSH2 0x2C29 JUMP JUMPDEST SWAP2 POP PUSH2 0x2C94 DUP3 DUP5 PUSH2 0x2C4C JUMP JUMPDEST SWAP2 POP DUP2 SWAP1 POP SWAP3 SWAP2 POP POP JUMP JUMPDEST PUSH32 0x566F74696E672050686173650000000000000000000000000000000000000000 PUSH1 0x0 DUP3 ADD MSTORE POP JUMP JUMPDEST PUSH1 0x0 PUSH2 0x2CD5 PUSH1 0xC DUP4 PUSH2 0x189B JUMP JUMPDEST SWAP2 POP PUSH2 0x2CE0 DUP3 PUSH2 0x2C9F JUMP JUMPDEST PUSH1 0x20 DUP3 ADD SWAP1 POP SWAP2 SWAP1 POP JUMP JUMPDEST PUSH1 0x0 PUSH1 0x60 DUP3 ADD SWAP1 POP DUP2 DUP2 SUB PUSH1 0x0 DUP4 ADD MSTORE PUSH2 0x2D04 DUP2 PUSH2 0x2CC8 JUMP JUMPDEST SWAP1 POP PUSH2 0x2D13 PUSH1 0x20 DUP4 ADD DUP6 PUSH2 0x24A3 JUMP JUMPDEST DUP2 DUP2 SUB PUSH1 0x40 DUP4 ADD MSTORE PUSH2 0x2D25 DUP2 DUP5 PUSH2 0x18E7 JUMP JUMPDEST SWAP1 POP SWAP4 SWAP3 POP POP POP JUMP JUMPDEST PUSH32 0x564F54455F5349474E4154555245000000000000000000000000000000000000 PUSH1 0x0 DUP3 ADD MSTORE POP JUMP JUMPDEST PUSH1 0x0 PUSH2 0x2D64 PUSH1 0xE DUP4 PUSH2 0x2BF5 JUMP JUMPDEST SWAP2 POP PUSH2 0x2D6F DUP3 PUSH2 0x2D2E JUMP JUMPDEST PUSH1 0xE DUP3 ADD SWAP1 POP SWAP2 SWAP1 POP JUMP JUMPDEST PUSH1 0x0 PUSH2 0x2D85 DUP3 PUSH2 0x2D57 JUMP JUMPDEST SWAP2 POP PUSH2 0x2D91 DUP3 DUP5 PUSH2 0x263F JUMP JUMPDEST PUSH1 0x20 DUP3 ADD SWAP2 POP DUP2 SWAP1 POP SWAP3 SWAP2 POP POP JUMP JUMPDEST PUSH1 0x0 PUSH1 0x60 DUP3 ADD SWAP1 POP DUP2 DUP2 SUB PUSH1 0x0 DUP4 ADD MSTORE PUSH2 0x2DBA DUP2 DUP7 PUSH2 0x27E6 JUMP JUMPDEST SWAP1 POP PUSH2 0x2DC9 PUSH1 0x20 DUP4 ADD DUP6 PUSH2 0x1A10 JUMP JUMPDEST PUSH2 0x2DD6 PUSH1 0x40 DUP4 ADD DUP5 PUSH2 0x1881 JUMP JUMPDEST SWAP5 SWAP4 POP POP POP POP JUMP JUMPDEST PUSH32 0x566F74652063617374696E67206661696C65643A200000000000000000000000 PUSH1 0x0 DUP3 ADD MSTORE POP JUMP JUMPDEST PUSH1 0x0 PUSH2 0x2E14 PUSH1 0x15 DUP4 PUSH2 0x2BF5 JUMP JUMPDEST SWAP2 POP PUSH2 0x2E1F DUP3 PUSH2 0x2DDE JUMP JUMPDEST PUSH1 0x15 DUP3 ADD SWAP1 POP SWAP2 SWAP1 POP JUMP JUMPDEST PUSH1 0x0 PUSH2 0x2E35 DUP3 PUSH2 0x2E07 JUMP JUMPDEST SWAP2 POP PUSH2 0x2E41 DUP3 DUP5 PUSH2 0x2C4C JUMP JUMPDEST SWAP2 POP DUP2 SWAP1 POP SWAP3 SWAP2 POP POP JUMP JUMPDEST PUSH32 0x566F74652063617374207375636365737366756C6C7900000000000000000000 PUSH1 0x0 DUP3 ADD MSTORE POP JUMP JUMPDEST PUSH1 0x0 PUSH2 0x2E82 PUSH1 0x16 DUP4 PUSH2 0x189B JUMP JUMPDEST SWAP2 POP PUSH2 0x2E8D DUP3 PUSH2 0x2E4C JUMP JUMPDEST PUSH1 0x20 DUP3 ADD SWAP1 POP SWAP2 SWAP1 POP JUMP JUMPDEST PUSH1 0x0 PUSH1 0x60 DUP3 ADD SWAP1 POP DUP2 DUP2 SUB PUSH1 0x0 DUP4 ADD MSTORE PUSH2 0x2EB1 DUP2 PUSH2 0x2CC8 JUMP JUMPDEST SWAP1 POP PUSH2 0x2EC0 PUSH1 0x20 DUP4 ADD DUP5 PUSH2 0x24A3 JUMP JUMPDEST DUP2 DUP2 SUB PUSH1 0x40 DUP4 ADD MSTORE PUSH2 0x2ED1 DUP2 PUSH2 0x2E75 JUMP JUMPDEST SWAP1 POP SWAP3 SWAP2 POP POP JUMP JUMPDEST PUSH32 0x566F7465206E6F74207265636F72646564000000000000000000000000000000 PUSH1 0x0 DUP3 ADD MSTORE POP JUMP JUMPDEST PUSH1 0x0 PUSH2 0x2F0F PUSH1 0x11 DUP4 PUSH2 0x189B JUMP JUMPDEST SWAP2 POP PUSH2 0x2F1A DUP3 PUSH2 0x2ED9 JUMP JUMPDEST PUSH1 0x20 DUP3 ADD SWAP1 POP SWAP2 SWAP1 POP JUMP JUMPDEST PUSH1 0x0 PUSH1 0x60 DUP3 ADD SWAP1 POP DUP2 DUP2 SUB PUSH1 0x0 DUP4 ADD MSTORE PUSH2 0x2F3E DUP2 PUSH2 0x2CC8 JUMP JUMPDEST SWAP1 POP PUSH2 0x2F4D PUSH1 0x20 DUP4 ADD DUP5 PUSH2 0x24A3 JUMP JUMPDEST DUP2 DUP2 SUB PUSH1 0x40 DUP4 ADD MSTORE PUSH2 0x2F5E DUP2 PUSH2 0x2F02 JUMP JUMPDEST SWAP1 POP SWAP3 SWAP2 POP POP JUMP JUMPDEST PUSH32 0x5374617274696E672074616C6C79696E67207068617365206661696C65643A20 PUSH1 0x0 DUP3 ADD MSTORE POP JUMP JUMPDEST PUSH1 0x0 PUSH2 0x2F9C PUSH1 0x20 DUP4 PUSH2 0x2BF5 JUMP JUMPDEST SWAP2 POP PUSH2 0x2FA7 DUP3 PUSH2 0x2F66 JUMP JUMPDEST PUSH1 0x20 DUP3 ADD SWAP1 POP SWAP2 SWAP1 POP JUMP JUMPDEST PUSH1 0x0 PUSH2 0x2FBD DUP3 PUSH2 0x2F8F JUMP JUMPDEST SWAP2 POP PUSH2 0x2FC9 DUP3 DUP5 PUSH2 0x2C4C JUMP JUMPDEST SWAP2 POP DUP2 SWAP1 POP SWAP3 SWAP2 POP POP JUMP JUMPDEST PUSH32 0x54616C6C79696E67205068617365000000000000000000000000000000000000 PUSH1 0x0 DUP3 ADD MSTORE POP JUMP JUMPDEST PUSH1 0x0 PUSH2 0x300A PUSH1 0xE DUP4 PUSH2 0x189B JUMP JUMPDEST SWAP2 POP PUSH2 0x3015 DUP3 PUSH2 0x2FD4 JUMP JUMPDEST PUSH1 0x20 DUP3 ADD SWAP1 POP SWAP2 SWAP1 POP JUMP JUMPDEST PUSH1 0x0 PUSH1 0x60 DUP3 ADD SWAP1 POP DUP2 DUP2 SUB PUSH1 0x0 DUP4 ADD MSTORE PUSH2 0x3039 DUP2 PUSH2 0x2FFD JUMP JUMPDEST SWAP1 POP PUSH2 0x3048 PUSH1 0x20 DUP4 ADD DUP6 PUSH2 0x24A3 JUMP JUMPDEST DUP2 DUP2 SUB PUSH1 0x40 DUP4 ADD MSTORE PUSH2 0x305A DUP2 DUP5 PUSH2 0x18E7 JUMP JUMPDEST SWAP1 POP SWAP4 SWAP3 POP POP POP JUMP JUMPDEST PUSH32 0x4E487B7100000000000000000000000000000000000000000000000000000000 PUSH1 0x0 MSTORE PUSH1 0x32 PUSH1 0x4 MSTORE PUSH1 0x24 PUSH1 0x0 REVERT JUMPDEST PUSH1 0x0 PUSH1 0x40 DUP3 ADD SWAP1 POP DUP2 DUP2 SUB PUSH1 0x0 DUP4 ADD MSTORE PUSH2 0x30AC DUP2 DUP6 PUSH2 0x27E6 JUMP JUMPDEST SWAP1 POP PUSH2 0x30BB PUSH1 0x20 DUP4 ADD DUP5 PUSH2 0x1881 JUMP JUMPDEST SWAP4 SWAP3 POP POP POP JUMP JUMPDEST PUSH32 0x566F74652074616C6C79696E67206661696C65643A2000000000000000000000 PUSH1 0x0 DUP3 ADD MSTORE POP JUMP JUMPDEST PUSH1 0x0 PUSH2 0x30F8 PUSH1 0x16 DUP4 PUSH2 0x2BF5 JUMP JUMPDEST SWAP2 POP PUSH2 0x3103 DUP3 PUSH2 0x30C2 JUMP JUMPDEST PUSH1 0x16 DUP3 ADD SWAP1 POP SWAP2 SWAP1 POP JUMP JUMPDEST PUSH1 0x0 PUSH2 0x3119 DUP3 PUSH2 0x30EB JUMP JUMPDEST SWAP2 POP PUSH2 0x3125 DUP3 DUP5 PUSH2 0x2C4C JUMP JUMPDEST SWAP2 POP DUP2 SWAP1 POP SWAP3 SWAP2 POP POP JUMP JUMPDEST PUSH32 0x566F74652074616C6C696564207375636365737366756C6C7900000000000000 PUSH1 0x0 DUP3 ADD MSTORE POP JUMP JUMPDEST PUSH1 0x0 PUSH2 0x3166 PUSH1 0x19 DUP4 PUSH2 0x189B JUMP JUMPDEST SWAP2 POP PUSH2 0x3171 DUP3 PUSH2 0x3130 JUMP JUMPDEST PUSH1 0x20 DUP3 ADD SWAP1 POP SWAP2 SWAP1 POP JUMP JUMPDEST PUSH1 0x0 PUSH1 0x60 DUP3 ADD SWAP1 POP DUP2 DUP2 SUB PUSH1 0x0 DUP4 ADD MSTORE PUSH2 0x3195 DUP2 PUSH2 0x2FFD JUMP JUMPDEST SWAP1 POP PUSH2 0x31A4 PUSH1 0x20 DUP4 ADD DUP5 PUSH2 0x24A3 JUMP JUMPDEST DUP2 DUP2 SUB PUSH1 0x40 DUP4 ADD MSTORE PUSH2 0x31B5 DUP2 PUSH2 0x3159 JUMP JUMPDEST SWAP1 POP SWAP3 SWAP2 POP POP JUMP JUMPDEST PUSH32 0x566F7465206E6F742074616C6C69656400000000000000000000000000000000 PUSH1 0x0 DUP3 ADD MSTORE POP JUMP JUMPDEST PUSH1 0x0 PUSH2 0x31F3 PUSH1 0x10 DUP4 PUSH2 0x189B JUMP JUMPDEST SWAP2 POP PUSH2 0x31FE DUP3 PUSH2 0x31BD JUMP JUMPDEST PUSH1 0x20 DUP3 ADD SWAP1 POP SWAP2 SWAP1 POP JUMP JUMPDEST PUSH1 0x0 PUSH1 0x60 DUP3 ADD SWAP1 POP DUP2 DUP2 SUB PUSH1 0x0 DUP4 ADD MSTORE PUSH2 0x3222 DUP2 PUSH2 0x2FFD JUMP JUMPDEST SWAP1 POP PUSH2 0x3231 PUSH1 0x20 DUP4 ADD DUP5 PUSH2 0x24A3 JUMP JUMPDEST DUP2 DUP2 SUB PUSH1 0x40 DUP4 ADD MSTORE PUSH2 0x3242 DUP2 PUSH2 0x31E6 JUMP JUMPDEST SWAP1 POP SWAP3 SWAP2 POP POP JUMP JUMPDEST PUSH32 0x526573756C74732046696E616C697A6174696F6E000000000000000000000000 PUSH1 0x0 DUP3 ADD MSTORE POP JUMP JUMPDEST PUSH1 0x0 PUSH2 0x3280 PUSH1 0x14 DUP4 PUSH2 0x189B JUMP JUMPDEST SWAP2 POP PUSH2 0x328B DUP3 PUSH2 0x324A JUMP JUMPDEST PUSH1 0x20 DUP3 ADD SWAP1 POP SWAP2 SWAP1 POP JUMP JUMPDEST PUSH1 0x0 PUSH1 0x60 DUP3 ADD SWAP1 POP DUP2 DUP2 SUB PUSH1 0x0 DUP4 ADD MSTORE PUSH2 0x32AF DUP2 PUSH2 0x3273 JUMP JUMPDEST SWAP1 POP PUSH2 0x32BE PUSH1 0x20 DUP4 ADD DUP6 PUSH2 0x24A3 JUMP JUMPDEST DUP2 DUP2 SUB PUSH1 0x40 DUP4 ADD MSTORE PUSH2 0x32D0 DUP2 DUP5 PUSH2 0x18E7 JUMP JUMPDEST SWAP1 POP SWAP4 SWAP3 POP POP POP JUMP JUMPDEST PUSH32 0x526573756C74732066696E616C697A6564207375636365737366756C6C790000 PUSH1 0x0 DUP3 ADD MSTORE POP JUMP JUMPDEST PUSH1 0x0 PUSH2 0x330F PUSH1 0x1E DUP4 PUSH2 0x189B JUMP JUMPDEST SWAP2 POP PUSH2 0x331A DUP3 PUSH2 0x32D9 JUMP JUMPDEST PUSH1 0x20 DUP3 ADD SWAP1 POP SWAP2 SWAP1 POP JUMP JUMPDEST PUSH1 0x0 PUSH1 0x60 DUP3 ADD SWAP1 POP DUP2 DUP2 SUB PUSH1 0x0 DUP4 ADD MSTORE PUSH2 0x333E DUP2 PUSH2 0x3273 JUMP JUMPDEST SWAP1 POP PUSH2 0x334D PUSH1 0x20 DUP4 ADD DUP5 PUSH2 0x24A3 JUMP JUMPDEST DUP2 DUP2 SUB PUSH1 0x40 DUP4 ADD MSTORE PUSH2 0x335E DUP2 PUSH2 0x3302 JUMP JUMPDEST SWAP1 POP SWAP3 SWAP2 POP POP JUMP JUMPDEST PUSH32 0x526573756C74732073747275637475726520696E636F72726563740000000000 PUSH1 0x0 DUP3 ADD MSTORE POP JUMP JUMPDEST PUSH1 0x0 PUSH2 0x339C PUSH1 0x1B DUP4 PUSH2 0x189B JUMP JUMPDEST SWAP2 POP PUSH2 0x33A7 DUP3 PUSH2 0x3366 JUMP JUMPDEST PUSH1 0x20 DUP3 ADD SWAP1 POP SWAP2 SWAP1 POP JUMP JUMPDEST PUSH1 0x0 PUSH1 0x60 DUP3 ADD SWAP1 POP DUP2 DUP2 SUB PUSH1 0x0 DUP4 ADD MSTORE PUSH2 0x33CB DUP2 PUSH2 0x3273 JUMP JUMPDEST SWAP1 POP PUSH2 0x33DA PUSH1 0x20 DUP4 ADD DUP5 PUSH2 0x24A3 JUMP JUMPDEST DUP2 DUP2 SUB PUSH1 0x40 DUP4 ADD MSTORE PUSH2 0x33EB DUP2 PUSH2 0x338F JUMP JUMPDEST SWAP1 POP SWAP3 SWAP2 POP POP JUMP INVALID LOG2 PUSH5 0x6970667358 0x22 SLT KECCAK256 PUSH9 0xBC4F584DADBC080BA2 RETURN PUSH32 0x87331B26DED909CCD6C5A076BDFF84394A8317C864736F6C634300081C003300 "},"methodIdentifiers":{"ELECTION_ID()":"2a332fe9","RANDOM_CHALLENGE()":"4286f3fe","electionAuthority()":"dc46d6ea","getFinalResults()":"785ba4de","getVotingStatistics()":"008a3332","registrationContract()":"1e522c3e","resetSystem()":"82a85fe4","runCompleteTest()":"bb89694c","testCandidates(uint256)":"cbc85f80","voterRegistrationContract()":"b4175956","votingAndTallyingContract()":"b9f10886"}}}}}