{
  "_format": "hh-sol-artifact-1",
  "contractName": "VoterRegistrationContract",
  "sourceName": "contracts/VoterRegistrationContract.sol",
  "abi": [
    {
      "inputs": [
        {
          "internalType": "address",
          "name": "_registrationContract",
          "type": "address"
        }
      ],
      "stateMutability": "nonpayable",
      "type": "constructor"
    },
    {
      "anonymous": false,
      "inputs": [
        {
          "indexed": false,
          "internalType": "bytes",
          "name": "lsagSignature",
          "type": "bytes"
        },
        {
          "indexed": false,
          "internalType": "string",
          "name": "reason",
          "type": "string"
        }
      ],
      "name": "RegistrationRejected",
      "type": "event"
    },
    {
      "anonymous": false,
      "inputs": [
        {
          "indexed": true,
          "internalType": "uint256",
          "name": "voterIndex",
          "type": "uint256"
        },
        {
          "indexed": false,
          "internalType": "bytes",
          "name": "votingPublicKey",
          "type": "bytes"
        }
      ],
      "name": "VoterRegistered",
      "type": "event"
    },
    {
      "inputs": [],
      "name": "getRegistrationStats",
      "outputs": [
        {
          "internalType": "uint256",
          "name": "totalRegistered",
          "type": "uint256"
        },
        {
          "internalType": "bool",
          "name": "registrationOpen",
          "type": "bool"
        }
      ],
      "stateMutability": "view",
      "type": "function"
    },
    {
      "inputs": [],
      "name": "getVoterCount",
      "outputs": [
        {
          "internalType": "uint256",
          "name": "count",
          "type": "uint256"
        }
      ],
      "stateMutability": "view",
      "type": "function"
    },
    {
      "inputs": [
        {
          "internalType": "uint256",
          "name": "voterIndex",
          "type": "uint256"
        }
      ],
      "name": "getVoterRecord",
      "outputs": [
        {
          "components": [
            {
              "internalType": "bytes",
              "name": "lsagSignature",
              "type": "bytes"
            },
            {
              "internalType": "bytes",
              "name": "votingPublicKey",
              "type": "bytes"
            },
            {
              "internalType": "bool",
              "name": "isRegistered",
              "type": "bool"
            },
            {
              "internalType": "uint256",
              "name": "registrationTime",
              "type": "uint256"
            }
          ],
          "internalType": "struct VoterRegistrationContract.VoterRecord",
          "name": "record",
          "type": "tuple"
        }
      ],
      "stateMutability": "view",
      "type": "function"
    },
    {
      "inputs": [
        {
          "internalType": "bytes",
          "name": "keyImage",
          "type": "bytes"
        }
      ],
      "name": "isKeyImageUsed",
      "outputs": [
        {
          "internalType": "bool",
          "name": "used",
          "type": "bool"
        }
      ],
      "stateMutability": "view",
      "type": "function"
    },
    {
      "inputs": [
        {
          "internalType": "uint256",
          "name": "voterIndex",
          "type": "uint256"
        }
      ],
      "name": "isRegistered",
      "outputs": [
        {
          "internalType": "bool",
          "name": "registered",
          "type": "bool"
        }
      ],
      "stateMutability": "view",
      "type": "function"
    },
    {
      "inputs": [
        {
          "internalType": "uint256",
          "name": "",
          "type": "uint256"
        }
      ],
      "name": "registeredVoters",
      "outputs": [
        {
          "internalType": "bytes",
          "name": "lsagSignature",
          "type": "bytes"
        },
        {
          "internalType": "bytes",
          "name": "votingPublicKey",
          "type": "bytes"
        },
        {
          "internalType": "bool",
          "name": "isRegistered",
          "type": "bool"
        },
        {
          "internalType": "uint256",
          "name": "registrationTime",
          "type": "uint256"
        }
      ],
      "stateMutability": "view",
      "type": "function"
    },
    {
      "inputs": [],
      "name": "registrationContract",
      "outputs": [
        {
          "internalType": "address",
          "name": "",
          "type": "address"
        }
      ],
      "stateMutability": "view",
      "type": "function"
    },
    {
      "inputs": [
        {
          "internalType": "bytes",
          "name": "",
          "type": "bytes"
        }
      ],
      "name": "usedKeyImages",
      "outputs": [
        {
          "internalType": "bool",
          "name": "",
          "type": "bool"
        }
      ],
      "stateMutability": "view",
      "type": "function"
    },
    {
      "inputs": [
        {
          "internalType": "bytes",
          "name": "lsagSignature",
          "type": "bytes"
        },
        {
          "internalType": "bytes",
          "name": "votingPublicKey",
          "type": "bytes"
        }
      ],
      "name": "verify",
      "outputs": [
        {
          "internalType": "uint256",
          "name": "voterIndex",
          "type": "uint256"
        }
      ],
      "stateMutability": "nonpayable",
      "type": "function"
    },
    {
      "inputs": [],
      "name": "voterCount",
      "outputs": [
        {
          "internalType": "uint256",
          "name": "",
          "type": "uint256"
        }
      ],
      "stateMutability": "view",
      "type": "function"
    }
  ],
  "bytecode": "0x608060405234801561001057600080fd5b50604051611e6b380380611e6b83398181016040528101906100329190610153565b600073ffffffffffffffffffffffffffffffffffffffff168173ffffffffffffffffffffffffffffffffffffffff16036100a1576040517f08c379a000000000000000000000000000000000000000000000000000000000815260040161009890610203565b60405180910390fd5b80600460006101000a81548173ffffffffffffffffffffffffffffffffffffffff021916908373ffffffffffffffffffffffffffffffffffffffff160217905550600160008190555050610223565b600080fd5b600073ffffffffffffffffffffffffffffffffffffffff82169050919050565b6000610120826100f5565b9050919050565b61013081610115565b811461013b57600080fd5b50565b60008151905061014d81610127565b92915050565b600060208284031215610169576101686100f0565b5b60006101778482850161013e565b91505092915050565b600082825260208201905092915050565b7f496e76616c696420726567697374726174696f6e20636f6e747261637420616460008201527f6472657373000000000000000000000000000000000000000000000000000000602082015250565b60006101ed602583610180565b91506101f882610191565b604082019050919050565b6000602082019050818103600083015261021c816101e0565b9050919050565b611c39806102326000396000f3fe608060405234801561001057600080fd5b506004361061009e5760003560e01c806342169e481161006657806342169e4814610172578063579a698814610190578063b0721b8f146101c0578063c6d1d135146101df578063f7e83aee1461020f5761009e565b806311174a29146100a35780631e522c3e146100c15780632436e06b146100df578063320d48c214610112578063339fbd0614610142575b600080fd5b6100ab61023f565b6040516100b89190610d58565b60405180910390f35b6100c9610249565b6040516100d69190610db4565b60405180910390f35b6100f960048036038101906100f49190610e0f565b61026f565b6040516101099493929190610ee7565b60405180910390f35b61012c6004803603810190610127919061106f565b6103bc565b60405161013991906110b8565b60405180910390f35b61015c60048036038101906101579190610e0f565b6103f1565b60405161016991906111a5565b60405180910390f35b61017a6105ab565b6040516101879190610d58565b60405180910390f35b6101aa60048036038101906101a59190610e0f565b6105b1565b6040516101b791906110b8565b60405180910390f35b6101c86105eb565b6040516101d69291906111c7565b60405180910390f35b6101f960048036038101906101f4919061106f565b61068a565b60405161020691906110b8565b60405180910390f35b610229600480360381019061022491906111f0565b6106c0565b6040516102369190610d58565b60405180910390f35b6000600354905090565b600460009054906101000a900473ffffffffffffffffffffffffffffffffffffffff1681565b600160205280600052604060002060009150905080600001805461029290611297565b80601f01602080910402602001604051908101604052809291908181526020018280546102be90611297565b801561030b5780601f106102e05761010080835404028352916020019161030b565b820191906000526020600020905b8154815290600101906020018083116102ee57829003601f168201915b50505050509080600101805461032090611297565b80601f016020809104026020016040519081016040528092919081815260200182805461034c90611297565b80156103995780601f1061036e57610100808354040283529160200191610399565b820191906000526020600020905b81548152906001019060200180831161037c57829003601f168201915b5050505050908060020160009054906101000a900460ff16908060030154905084565b60006002826040516103ce9190611304565b908152602001604051809103902060009054906101000a900460ff169050919050565b6103f9610d15565b600354821061043d576040517f08c379a000000000000000000000000000000000000000000000000000000000815260040161043490611378565b60405180910390fd5b6001600083815260200190815260200160002060405180608001604052908160008201805461046b90611297565b80601f016020809104026020016040519081016040528092919081815260200182805461049790611297565b80156104e45780601f106104b9576101008083540402835291602001916104e4565b820191906000526020600020905b8154815290600101906020018083116104c757829003601f168201915b505050505081526020016001820180546104fd90611297565b80601f016020809104026020016040519081016040528092919081815260200182805461052990611297565b80156105765780601f1061054b57610100808354040283529160200191610576565b820191906000526020600020905b81548152906001019060200180831161055957829003601f168201915b505050505081526020016002820160009054906101000a900460ff161515151581526020016003820154815250509050919050565b60035481565b6000600354821080156105e457506001600083815260200190815260200160002060020160009054906101000a900460ff165b9050919050565b6000806003549150600460009054906101000a900473ffffffffffffffffffffffffffffffffffffffff1673ffffffffffffffffffffffffffffffffffffffff16637c2f3c2c6040518163ffffffff1660e01b8152600401602060405180830381865afa158015610660573d6000803e3d6000fd5b505050506040513d601f19601f8201168201806040525081019061068491906113c4565b90509091565b6002818051602081018201805184825260208301602085012081835280955050505050506000915054906101000a900460ff1681565b6000600260005403610707576040517f08c379a00000000000000000000000000000000000000000000000000000000081526004016106fe9061143d565b60405180910390fd5b6002600081905550600460009054906101000a900473ffffffffffffffffffffffffffffffffffffffff1673ffffffffffffffffffffffffffffffffffffffff16637c2f3c2c6040518163ffffffff1660e01b8152600401602060405180830381865afa15801561077c573d6000803e3d6000fd5b505050506040513d601f19601f820116820180604052508101906107a091906113c4565b6107df576040517f08c379a00000000000000000000000000000000000000000000000000000000081526004016107d6906114a9565b60405180910390fd5b82826000825111610825576040517f08c379a000000000000000000000000000000000000000000000000000000000815260040161081c90611515565b60405180910390fd5b6000815111610869576040517f08c379a0000000000000000000000000000000000000000000000000000000008152600401610860906115a7565b60405180910390fd5b6000600460009054906101000a900473ffffffffffffffffffffffffffffffffffffffff1673ffffffffffffffffffffffffffffffffffffffff1663051364d46040518163ffffffff1660e01b8152600401602060405180830381865afa1580156108d8573d6000803e3d6000fd5b505050506040513d601f19601f820116820180604052508101906108fc91906115fd565b9050600061090987610b6e565b905060028160405161091b9190611304565b908152602001604051809103902060009054906101000a900460ff16156109ae577fa31fca1eea73ad4c31ec8e75c484e4d55d0ef263b4d86c7c1f1df3eec2350cbe8760405161096b9190611676565b60405180910390a16040517f08c379a00000000000000000000000000000000000000000000000000000000081526004016109a59061171d565b60405180910390fd5b6109b88783610c84565b6109f7576040517f08c379a00000000000000000000000000000000000000000000000000000000081526004016109ee90611789565b60405180910390fd5b610a018782610cdc565b610a40576040517f08c379a0000000000000000000000000000000000000000000000000000000008152600401610a37906117f5565b60405180910390fd5b6003549450604051806080016040528088815260200187815260200160011515815260200142815250600160008781526020019081526020016000206000820151816000019081610a9191906119c1565b506020820151816001019081610aa791906119c1565b5060408201518160020160006101000a81548160ff021916908315150217905550606082015181600301559050506001600282604051610ae79190611304565b908152602001604051809103902060006101000a81548160ff02191690831515021790555060036000815480929190610b1f90611ac2565b9190505550847f390719d3dbf5bea8cd248c6cbf6a5d0a60a494e45b4b88490e9447ce511de55b87604051610b549190611b0a565b60405180910390a250505050600160008190555092915050565b6060602082511015610bb5576040517f08c379a0000000000000000000000000000000000000000000000000000000008152600401610bac90611b78565b60405180910390fd5b602067ffffffffffffffff811115610bd057610bcf610f44565b5b6040519080825280601f01601f191660200182016040528015610c025781602001600182028036833780820191505090505b50905060005b6020811015610c7e57828181518110610c2457610c23611b98565b5b602001015160f81c60f81b828281518110610c4257610c41611b98565b5b60200101907effffffffffffffffffffffffffffffffffffffffffffffffffffffffffffff1916908160001a9053508080600101915050610c08565b50919050565b60008082604051602001610c989190611be8565b6040516020818303038152906040528051906020012090506000848051906020012090506000801b8114158015610cd257506000801b8214155b9250505092915050565b600080838051906020012090506000838051906020012090506000801b8214158015610d0b57506000801b8114155b9250505092915050565b60405180608001604052806060815260200160608152602001600015158152602001600081525090565b6000819050919050565b610d5281610d3f565b82525050565b6000602082019050610d6d6000830184610d49565b92915050565b600073ffffffffffffffffffffffffffffffffffffffff82169050919050565b6000610d9e82610d73565b9050919050565b610dae81610d93565b82525050565b6000602082019050610dc96000830184610da5565b92915050565b6000604051905090565b600080fd5b600080fd5b610dec81610d3f565b8114610df757600080fd5b50565b600081359050610e0981610de3565b92915050565b600060208284031215610e2557610e24610dd9565b5b6000610e3384828501610dfa565b91505092915050565b600081519050919050565b600082825260208201905092915050565b60005b83811015610e76578082015181840152602081019050610e5b565b60008484015250505050565b6000601f19601f8301169050919050565b6000610e9e82610e3c565b610ea88185610e47565b9350610eb8818560208601610e58565b610ec181610e82565b840191505092915050565b60008115159050919050565b610ee181610ecc565b82525050565b60006080820190508181036000830152610f018187610e93565b90508181036020830152610f158186610e93565b9050610f246040830185610ed8565b610f316060830184610d49565b95945050505050565b600080fd5b600080fd5b7f4e487b7100000000000000000000000000000000000000000000000000000000600052604160045260246000fd5b610f7c82610e82565b810181811067ffffffffffffffff82111715610f9b57610f9a610f44565b5b80604052505050565b6000610fae610dcf565b9050610fba8282610f73565b919050565b600067ffffffffffffffff821115610fda57610fd9610f44565b5b610fe382610e82565b9050602081019050919050565b82818337600083830152505050565b600061101261100d84610fbf565b610fa4565b90508281526020810184848401111561102e5761102d610f3f565b5b611039848285610ff0565b509392505050565b600082601f83011261105657611055610f3a565b5b8135611066848260208601610fff565b91505092915050565b60006020828403121561108557611084610dd9565b5b600082013567ffffffffffffffff8111156110a3576110a2610dde565b5b6110af84828501611041565b91505092915050565b60006020820190506110cd6000830184610ed8565b92915050565b600082825260208201905092915050565b60006110ef82610e3c565b6110f981856110d3565b9350611109818560208601610e58565b61111281610e82565b840191505092915050565b61112681610ecc565b82525050565b61113581610d3f565b82525050565b6000608083016000830151848203600086015261115882826110e4565b9150506020830151848203602086015261117282826110e4565b9150506040830151611187604086018261111d565b50606083015161119a606086018261112c565b508091505092915050565b600060208201905081810360008301526111bf818461113b565b905092915050565b60006040820190506111dc6000830185610d49565b6111e96020830184610ed8565b9392505050565b6000806040838503121561120757611206610dd9565b5b600083013567ffffffffffffffff81111561122557611224610dde565b5b61123185828601611041565b925050602083013567ffffffffffffffff81111561125257611251610dde565b5b61125e85828601611041565b9150509250929050565b7f4e487b7100000000000000000000000000000000000000000000000000000000600052602260045260246000fd5b600060028204905060018216806112af57607f821691505b6020821081036112c2576112c1611268565b5b50919050565b600081905092915050565b60006112de82610e3c565b6112e881856112c8565b93506112f8818560208601610e58565b80840191505092915050565b600061131082846112d3565b915081905092915050565b600082825260208201905092915050565b7f496e76616c696420766f74657220696e64657800000000000000000000000000600082015250565b600061136260138361131b565b915061136d8261132c565b602082019050919050565b6000602082019050818103600083015261139181611355565b9050919050565b6113a181610ecc565b81146113ac57600080fd5b50565b6000815190506113be81611398565b92915050565b6000602082840312156113da576113d9610dd9565b5b60006113e8848285016113af565b91505092915050565b7f5265656e7472616e637947756172643a207265656e7472616e742063616c6c00600082015250565b6000611427601f8361131b565b9150611432826113f1565b602082019050919050565b600060208201905081810360008301526114568161141a565b9050919050565b7f456c656374696f6e206e6f742073657475702079657400000000000000000000600082015250565b600061149360168361131b565b915061149e8261145d565b602082019050919050565b600060208201905081810360008301526114c281611486565b9050919050565b7f4c534147207369676e61747572652063616e6e6f7420626520656d7074790000600082015250565b60006114ff601e8361131b565b915061150a826114c9565b602082019050919050565b6000602082019050818103600083015261152e816114f2565b9050919050565b7f566f74696e67207075626c6963206b65792063616e6e6f7420626520656d707460008201527f7900000000000000000000000000000000000000000000000000000000000000602082015250565b600061159160218361131b565b915061159c82611535565b604082019050919050565b600060208201905081810360008301526115c081611584565b9050919050565b6000819050919050565b6115da816115c7565b81146115e557600080fd5b50565b6000815190506115f7816115d1565b92915050565b60006020828403121561161357611612610dd9565b5b6000611621848285016115e8565b91505092915050565b7f4b657920696d61676520616c7265616479207573656400000000000000000000600082015250565b600061166060168361131b565b915061166b8261162a565b602082019050919050565b600060408201905081810360008301526116908184610e93565b905081810360208301526116a381611653565b905092915050565b7f446f75626c6520726567697374726174696f6e20617474656d7074206465746560008201527f6374656400000000000000000000000000000000000000000000000000000000602082015250565b600061170760248361131b565b9150611712826116ab565b604082019050919050565b60006020820190508181036000830152611736816116fa565b9050919050565b7f496e76616c6964204c534147207369676e617475726500000000000000000000600082015250565b600061177360168361131b565b915061177e8261173d565b602082019050919050565b600060208201905081810360008301526117a281611766565b9050919050565b7f4c696e6b6162696c69747920636865636b206661696c65640000000000000000600082015250565b60006117df60188361131b565b91506117ea826117a9565b602082019050919050565b6000602082019050818103600083015261180e816117d2565b9050919050565b60008190508160005260206000209050919050565b60006020601f8301049050919050565b600082821b905092915050565b6000600883026118777fffffffffffffffffffffffffffffffffffffffffffffffffffffffffffffffff8261183a565b611881868361183a565b95508019841693508086168417925050509392505050565b6000819050919050565b60006118be6118b96118b484610d3f565b611899565b610d3f565b9050919050565b6000819050919050565b6118d8836118a3565b6118ec6118e4826118c5565b848454611847565b825550505050565b600090565b6119016118f4565b61190c8184846118cf565b505050565b5b81811015611930576119256000826118f9565b600181019050611912565b5050565b601f8211156119755761194681611815565b61194f8461182a565b8101602085101561195e578190505b61197261196a8561182a565b830182611911565b50505b505050565b600082821c905092915050565b60006119986000198460080261197a565b1980831691505092915050565b60006119b18383611987565b9150826002028217905092915050565b6119ca82610e3c565b67ffffffffffffffff8111156119e3576119e2610f44565b5b6119ed8254611297565b6119f8828285611934565b600060209050601f831160018114611a2b5760008415611a19578287015190505b611a2385826119a5565b865550611a8b565b601f198416611a3986611815565b60005b82811015611a6157848901518255600182019150602085019450602081019050611a3c565b86831015611a7e5784890151611a7a601f891682611987565b8355505b6001600288020188555050505b505050505050565b7f4e487b7100000000000000000000000000000000000000000000000000000000600052601160045260246000fd5b6000611acd82610d3f565b91507fffffffffffffffffffffffffffffffffffffffffffffffffffffffffffffffff8203611aff57611afe611a93565b5b600182019050919050565b60006020820190508181036000830152611b248184610e93565b905092915050565b7f496e76616c6964204c534147207369676e6174757265206c656e677468000000600082015250565b6000611b62601d8361131b565b9150611b6d82611b2c565b602082019050919050565b60006020820190508181036000830152611b9181611b55565b9050919050565b7f4e487b7100000000000000000000000000000000000000000000000000000000600052603260045260246000fd5b6000819050919050565b611be2611bdd826115c7565b611bc7565b82525050565b6000611bf48284611bd1565b6020820191508190509291505056fea26469706673582212202c7f06b39787e06e0fd245979f2a35538a7b6e76bc057b94d51526c037becf0a64736f6c634300081c0033",
  "linkReferences": {},
  "deployedLinkReferences": {}
}