{
  "_format": "hh-sol-artifact-1",
  "contractName": "VotingAndTallyingContract",
  "sourceName": "contracts/VotingAndTallyingContract.sol",
  "abi": [
    {
      "inputs": [
        {
          "internalType": "address",
          "name": "_voterRegistrationContract",
          "type": "address"
        },
        {
          "internalType": "address",
          "name": "_registrationContract",
          "type": "address"
        }
      ],
      "stateMutability": "nonpayable",
      "type": "constructor"
    },
    {
      "anonymous": false,
      "inputs": [
        {
          "indexed": false,
          "internalType": "string",
          "name": "phase",
          "type": "string"
        },
        {
          "indexed": false,
          "internalType": "bool",
          "name": "active",
          "type": "bool"
        }
      ],
      "name": "PhaseChanged",
      "type": "event"
    },
    {
      "anonymous": false,
      "inputs": [
        {
          "indexed": false,
          "internalType": "bytes32[]",
          "name": "candidates",
          "type": "bytes32[]"
        },
        {
          "indexed": false,
          "internalType": "uint256[]",
          "name": "voteCounts",
          "type": "uint256[]"
        }
      ],
      "name": "ResultsFinalized",
      "type": "event"
    },
    {
      "anonymous": false,
      "inputs": [
        {
          "indexed": true,
          "internalType": "uint256",
          "name": "voterIndex",
          "type": "uint256"
        },
        {
          "indexed": false,
          "internalType": "bytes32",
          "name": "voteHash",
          "type": "bytes32"
        }
      ],
      "name": "VoteCast",
      "type": "event"
    },
    {
      "anonymous": false,
      "inputs": [
        {
          "indexed": true,
          "internalType": "uint256",
          "name": "voterIndex",
          "type": "uint256"
        },
        {
          "indexed": true,
          "internalType": "bytes32",
          "name": "candidate",
          "type": "bytes32"
        }
      ],
      "name": "VoteTallied",
      "type": "event"
    },
    {
      "inputs": [],
      "name": "finalizeResults",
      "outputs": [
        {
          "internalType": "bool",
          "name": "success",
          "type": "bool"
        }
      ],
      "stateMutability": "nonpayable",
      "type": "function"
    },
    {
      "inputs": [],
      "name": "getTallyResults",
      "outputs": [
        {
          "internalType": "bytes32[]",
          "name": "candidates",
          "type": "bytes32[]"
        },
        {
          "internalType": "uint256[]",
          "name": "voteCounts",
          "type": "uint256[]"
        }
      ],
      "stateMutability": "view",
      "type": "function"
    },
    {
      "inputs": [],
      "name": "getVotingStats",
      "outputs": [
        {
          "internalType": "uint256",
          "name": "totalRegistered",
          "type": "uint256"
        },
        {
          "internalType": "uint256",
          "name": "votesCast",
          "type": "uint256"
        },
        {
          "internalType": "uint256",
          "name": "votesTallied",
          "type": "uint256"
        },
        {
          "internalType": "string",
          "name": "currentPhase",
          "type": "string"
        }
      ],
      "stateMutability": "view",
      "type": "function"
    },
    {
      "inputs": [
        {
          "internalType": "uint256",
          "name": "voterIndex",
          "type": "uint256"
        }
      ],
      "name": "hasVoted",
      "outputs": [
        {
          "internalType": "bool",
          "name": "voted",
          "type": "bool"
        }
      ],
      "stateMutability": "view",
      "type": "function"
    },
    {
      "inputs": [
        {
          "internalType": "uint256",
          "name": "voterIndex",
          "type": "uint256"
        }
      ],
      "name": "isVoteTallied",
      "outputs": [
        {
          "internalType": "bool",
          "name": "isTallied",
          "type": "bool"
        }
      ],
      "stateMutability": "view",
      "type": "function"
    },
    {
      "inputs": [],
      "name": "registrationContract",
      "outputs": [
        {
          "internalType": "address",
          "name": "",
          "type": "address"
        }
      ],
      "stateMutability": "view",
      "type": "function"
    },
    {
      "inputs": [],
      "name": "resultsFinalized",
      "outputs": [
        {
          "internalType": "bool",
          "name": "",
          "type": "bool"
        }
      ],
      "stateMutability": "view",
      "type": "function"
    },
    {
      "inputs": [],
      "name": "startTallyingPhase",
      "outputs": [
        {
          "internalType": "bool",
          "name": "success",
          "type": "bool"
        }
      ],
      "stateMutability": "nonpayable",
      "type": "function"
    },
    {
      "inputs": [],
      "name": "startVotingPhase",
      "outputs": [
        {
          "internalType": "bool",
          "name": "success",
          "type": "bool"
        }
      ],
      "stateMutability": "nonpayable",
      "type": "function"
    },
    {
      "inputs": [
        {
          "internalType": "bytes",
          "name": "actualVoteSignature",
          "type": "bytes"
        },
        {
          "internalType": "uint256",
          "name": "voterIndex",
          "type": "uint256"
        }
      ],
      "name": "tally",
      "outputs": [
        {
          "internalType": "bool",
          "name": "success",
          "type": "bool"
        }
      ],
      "stateMutability": "nonpayable",
      "type": "function"
    },
    {
      "inputs": [
        {
          "internalType": "bytes32",
          "name": "",
          "type": "bytes32"
        }
      ],
      "name": "tallyResults",
      "outputs": [
        {
          "internalType": "uint256",
          "name": "",
          "type": "uint256"
        }
      ],
      "stateMutability": "view",
      "type": "function"
    },
    {
      "inputs": [],
      "name": "tallyingPhaseActive",
      "outputs": [
        {
          "internalType": "bool",
          "name": "",
          "type": "bool"
        }
      ],
      "stateMutability": "view",
      "type": "function"
    },
    {
      "inputs": [],
      "name": "totalVotesCast",
      "outputs": [
        {
          "internalType": "uint256",
          "name": "",
          "type": "uint256"
        }
      ],
      "stateMutability": "view",
      "type": "function"
    },
    {
      "inputs": [],
      "name": "totalVotesTallied",
      "outputs": [
        {
          "internalType": "uint256",
          "name": "",
          "type": "uint256"
        }
      ],
      "stateMutability": "view",
      "type": "function"
    },
    {
      "inputs": [],
      "name": "voterRegistrationContract",
      "outputs": [
        {
          "internalType": "address",
          "name": "",
          "type": "address"
        }
      ],
      "stateMutability": "view",
      "type": "function"
    },
    {
      "inputs": [
        {
          "internalType": "uint256",
          "name": "",
          "type": "uint256"
        }
      ],
      "name": "votes",
      "outputs": [
        {
          "internalType": "bytes",
          "name": "signatureOnHash",
          "type": "bytes"
        },
        {
          "internalType": "bytes32",
          "name": "voteHash",
          "type": "bytes32"
        },
        {
          "internalType": "bool",
          "name": "voteSubmitted",
          "type": "bool"
        },
        {
          "internalType": "bool",
          "name": "voteTallied",
          "type": "bool"
        },
        {
          "internalType": "uint256",
          "name": "submissionTime",
          "type": "uint256"
        }
      ],
      "stateMutability": "view",
      "type": "function"
    },
    {
      "inputs": [
        {
          "internalType": "bytes",
          "name": "signatureOnHash",
          "type": "bytes"
        },
        {
          "internalType": "bytes32",
          "name": "voteHash",
          "type": "bytes32"
        },
        {
          "internalType": "uint256",
          "name": "voterIndex",
          "type": "uint256"
        }
      ],
      "name": "voting",
      "outputs": [
        {
          "internalType": "bool",
          "name": "success",
          "type": "bool"
        }
      ],
      "stateMutability": "nonpayable",
      "type": "function"
    },
    {
      "inputs": [],
      "name": "votingPhaseActive",
      "outputs": [
        {
          "internalType": "bool",
          "name": "",
          "type": "bool"
        }
      ],
      "stateMutability": "view",
      "type": "function"
    }
  ],
  "bytecode": "0x608060405234801561001057600080fd5b50604051613a65380380613a6583398181016040528101906100329190610204565b600073ffffffffffffffffffffffffffffffffffffffff168273ffffffffffffffffffffffffffffffffffffffff16036100a1576040517f08c379a0000000000000000000000000000000000000000000000000000000008152600401610098906102c7565b60405180910390fd5b600073ffffffffffffffffffffffffffffffffffffffff168173ffffffffffffffffffffffffffffffffffffffff1603610110576040517f08c379a000000000000000000000000000000000000000000000000000000000815260040161010790610333565b60405180910390fd5b81600360006101000a81548173ffffffffffffffffffffffffffffffffffffffff021916908373ffffffffffffffffffffffffffffffffffffffff16021790555080600460006101000a81548173ffffffffffffffffffffffffffffffffffffffff021916908373ffffffffffffffffffffffffffffffffffffffff16021790555060016000819055505050610353565b600080fd5b600073ffffffffffffffffffffffffffffffffffffffff82169050919050565b60006101d1826101a6565b9050919050565b6101e1816101c6565b81146101ec57600080fd5b50565b6000815190506101fe816101d8565b92915050565b6000806040838503121561021b5761021a6101a1565b5b6000610229858286016101ef565b925050602061023a858286016101ef565b9150509250929050565b600082825260208201905092915050565b7f496e76616c696420766f74657220726567697374726174696f6e20636f6e747260008201527f6163740000000000000000000000000000000000000000000000000000000000602082015250565b60006102b1602383610244565b91506102bc82610255565b604082019050919050565b600060208201905081810360008301526102e0816102a4565b9050919050565b7f496e76616c696420726567697374726174696f6e20636f6e7472616374000000600082015250565b600061031d601d83610244565b9150610328826102e7565b602082019050919050565b6000602082019050818103600083015261034c81610310565b9050919050565b613703806103626000396000f3fe608060405234801561001057600080fd5b50600436106101165760003560e01c8063b4175956116100a2578063e06d859711610071578063e06d8597146102df578063e1f5faa91461030f578063ec1e16b31461032d578063ecca031f1461035d578063f7d3d4f31461038d57610116565b8063b417595614610255578063c416ec0414610273578063cb43284e146102a3578063d54844da146102c157610116565b806369c683e3116100e957806369c683e3146101bb57806376804a03146101d95780637de418d5146101fa578063924d7ec214610218578063a7a218481461023657610116565b806312039d9e1461011b578063170773a51461014b5780631e522c3e146101695780635df8133014610187575b600080fd5b61013560048036038101906101309190611cee565b6103ab565b6040516101429190611d34565b60405180910390f35b6101536103c3565b6040516101609190611d6a565b60405180910390f35b6101716103d6565b60405161017e9190611dc6565b60405180910390f35b6101a1600480360381019061019c9190611e0d565b6103fc565b6040516101b2959493929190611ed9565b60405180910390f35b6101c36104d4565b6040516101d09190611d6a565b60405180910390f35b6101e16104e7565b6040516101f19493929190611f88565b60405180910390f35b6102026106c2565b60405161020f9190611d34565b60405180910390f35b6102206106c8565b60405161022d9190611d6a565b60405180910390f35b61023e610919565b60405161024c929190612150565b60405180910390f35b61025d610a77565b60405161026a9190611dc6565b60405180910390f35b61028d60048036038101906102889190611e0d565b610a9d565b60405161029a9190611d6a565b60405180910390f35b6102ab610aca565b6040516102b89190611d6a565b60405180910390f35b6102c9610d99565b6040516102d69190611d34565b60405180910390f35b6102f960048036038101906102f491906122bc565b610d9f565b6040516103069190611d6a565b60405180910390f35b610317611346565b6040516103249190611d6a565b60405180910390f35b61034760048036038101906103429190612318565b611359565b6040516103549190611d6a565b60405180910390f35b61037760048036038101906103729190611e0d565b611819565b6040516103849190611d6a565b60405180910390f35b610395611846565b6040516103a29190611d6a565b60405180910390f35b60026020528060005260406000206000915090505481565b600460169054906101000a900460ff1681565b600460009054906101000a900473ffffffffffffffffffffffffffffffffffffffff1681565b600160205280600052604060002060009150905080600001805461041f906123b6565b80601f016020809104026020016040519081016040528092919081815260200182805461044b906123b6565b80156104985780601f1061046d57610100808354040283529160200191610498565b820191906000526020600020905b81548152906001019060200180831161047b57829003601f168201915b5050505050908060010154908060020160009054906101000a900460ff16908060020160019054906101000a900460ff16908060030154905085565b600460159054906101000a900460ff1681565b60008060006060600360009054906101000a900473ffffffffffffffffffffffffffffffffffffffff1673ffffffffffffffffffffffffffffffffffffffff166311174a296040518163ffffffff1660e01b8152600401602060405180830381865afa15801561055b573d6000803e3d6000fd5b505050506040513d601f19601f8201168201806040525081019061057f91906123fc565b935060055492506006549150600460169054906101000a900460ff16156105dd576040518060400160405280600981526020017f66696e616c697a6564000000000000000000000000000000000000000000000081525090506106bc565b600460159054906101000a900460ff161561062f576040518060400160405280600881526020017f74616c6c79696e6700000000000000000000000000000000000000000000000081525090506106bb565b600460149054906101000a900460ff1615610681576040518060400160405280600681526020017f766f74696e67000000000000000000000000000000000000000000000000000081525090506106ba565b6040518060400160405280600581526020017f736574757000000000000000000000000000000000000000000000000000000081525090505b5b5b90919293565b60055481565b600080600460009054906101000a900473ffffffffffffffffffffffffffffffffffffffff1673ffffffffffffffffffffffffffffffffffffffff1663dc46d6ea6040518163ffffffff1660e01b8152600401602060405180830381865afa158015610738573d6000803e3d6000fd5b505050506040513d601f19601f8201168201806040525081019061075c9190612455565b90508073ffffffffffffffffffffffffffffffffffffffff163373ffffffffffffffffffffffffffffffffffffffff16146107cc576040517f08c379a00000000000000000000000000000000000000000000000000000000081526004016107c3906124f4565b60405180910390fd5b600460149054906101000a900460ff1661081b576040517f08c379a000000000000000000000000000000000000000000000000000000000815260040161081290612586565b60405180910390fd5b600460159054906101000a900460ff161561086b576040517f08c379a0000000000000000000000000000000000000000000000000000000008152600401610862906125f2565b60405180910390fd5b6000600460146101000a81548160ff0219169083151502179055506001600460156101000a81548160ff0219169083151502179055507f758cd518a229b427c01a58941b0c921996768f8429d5e9c187d0febc215c748f60006040516108d1919061265e565b60405180910390a17f758cd518a229b427c01a58941b0c921996768f8429d5e9c187d0febc215c748f600160405161090991906126d8565b60405180910390a1600191505090565b6060806000600460009054906101000a900473ffffffffffffffffffffffffffffffffffffffff1673ffffffffffffffffffffffffffffffffffffffff16636f0470aa6040518163ffffffff1660e01b8152600401600060405180830381865afa15801561098b573d6000803e3d6000fd5b505050506040513d6000823e3d601f19601f820116820180604052508101906109b491906127e3565b90506000815167ffffffffffffffff8111156109d3576109d2612191565b5b604051908082528060200260200182016040528015610a015781602001602082028036833780820191505090505b50905060005b8251811015610a6a5760026000848381518110610a2757610a2661282c565b5b6020026020010151815260200190815260200160002054828281518110610a5157610a5061282c565b5b6020026020010181815250508080600101915050610a07565b5081819350935050509091565b600360009054906101000a900473ffffffffffffffffffffffffffffffffffffffff1681565b60006001600083815260200190815260200160002060020160019054906101000a900460ff169050919050565b600080600460009054906101000a900473ffffffffffffffffffffffffffffffffffffffff1673ffffffffffffffffffffffffffffffffffffffff1663dc46d6ea6040518163ffffffff1660e01b8152600401602060405180830381865afa158015610b3a573d6000803e3d6000fd5b505050506040513d601f19601f82011682018060405250810190610b5e9190612455565b90508073ffffffffffffffffffffffffffffffffffffffff163373ffffffffffffffffffffffffffffffffffffffff1614610bce576040517f08c379a0000000000000000000000000000000000000000000000000000000008152600401610bc5906124f4565b60405180910390fd5b600460009054906101000a900473ffffffffffffffffffffffffffffffffffffffff1673ffffffffffffffffffffffffffffffffffffffff16637c2f3c2c6040518163ffffffff1660e01b8152600401602060405180830381865afa158015610c3b573d6000803e3d6000fd5b505050506040513d601f19601f82011682018060405250810190610c5f9190612887565b610c9e576040517f08c379a0000000000000000000000000000000000000000000000000000000008152600401610c9590612900565b60405180910390fd5b600460149054906101000a900460ff1615610cee576040517f08c379a0000000000000000000000000000000000000000000000000000000008152600401610ce59061296c565b60405180910390fd5b600460159054906101000a900460ff1615610d3e576040517f08c379a0000000000000000000000000000000000000000000000000000000008152600401610d35906129fe565b60405180910390fd5b6001600460146101000a81548160ff0219169083151502179055507f758cd518a229b427c01a58941b0c921996768f8429d5e9c187d0febc215c748f6001604051610d89919061265e565b60405180910390a1600191505090565b60065481565b6000600260005403610de6576040517f08c379a0000000000000000000000000000000000000000000000000000000008152600401610ddd90612a6a565b60405180910390fd5b6002600081905550600460159054906101000a900460ff16610e3d576040517f08c379a0000000000000000000000000000000000000000000000000000000008152600401610e3490612ad6565b60405180910390fd5b600460169054906101000a900460ff1615610e8d576040517f08c379a0000000000000000000000000000000000000000000000000000000008152600401610e8490612b42565b60405180910390fd5b81600360009054906101000a900473ffffffffffffffffffffffffffffffffffffffff1673ffffffffffffffffffffffffffffffffffffffff1663579a6988826040518263ffffffff1660e01b8152600401610ee99190611d34565b602060405180830381865afa158015610f06573d6000803e3d6000fd5b505050506040513d601f19601f82011682018060405250810190610f2a9190612887565b610f69576040517f08c379a0000000000000000000000000000000000000000000000000000000008152600401610f6090612bae565b60405180910390fd5b6001600084815260200190815260200160002060020160009054906101000a900460ff16610fcc576040517f08c379a0000000000000000000000000000000000000000000000000000000008152600401610fc390612c1a565b60405180910390fd5b6001600084815260200190815260200160002060020160019054906101000a900460ff1615611030576040517f08c379a000000000000000000000000000000000000000000000000000000000815260040161102790612c86565b60405180910390fd5b6000600460009054906101000a900473ffffffffffffffffffffffffffffffffffffffff1673ffffffffffffffffffffffffffffffffffffffff1663051364d46040518163ffffffff1660e01b8152600401602060405180830381865afa15801561109f573d6000803e3d6000fd5b505050506040513d601f19601f820116820180604052508101906110c39190612ca6565b9050600085826040516020016110da929190612d30565b6040516020818303038152906040528051906020012090506001600086815260200190815260200160002060010154811461114a576040517f08c379a000000000000000000000000000000000000000000000000000000000815260040161114190612da4565b60405180910390fd5b600061115587611aa9565b905061116081611b02565b61119f576040517f08c379a000000000000000000000000000000000000000000000000000000000815260040161119690612e10565b60405180910390fd5b6000600360009054906101000a900473ffffffffffffffffffffffffffffffffffffffff1673ffffffffffffffffffffffffffffffffffffffff16632436e06b886040518263ffffffff1660e01b81526004016111fc9190611d34565b600060405180830381865afa158015611219573d6000803e3d6000fd5b505050506040513d6000823e3d601f19601f820116820180604052508101906112429190612f5a565b905061125388838360200151611bee565b611292576040517f08c379a000000000000000000000000000000000000000000000000000000000815260040161128990612fef565b60405180910390fd5b6002600083815260200190815260200160002060008154809291906112b69061303e565b9190505550600180600089815260200190815260200160002060020160016101000a81548160ff021916908315150217905550600660008154809291906112fc9061303e565b919050555081877fc7afc7fe1fccb90bd8bab553d1a848685f5d4a889e69eb0724d49e3823b3795c60405160405180910390a3600195505050505050600160008190555092915050565b600460149054906101000a900460ff1681565b60006002600054036113a0576040517f08c379a000000000000000000000000000000000000000000000000000000000815260040161139790612a6a565b60405180910390fd5b6002600081905550600460149054906101000a900460ff166113f7576040517f08c379a00000000000000000000000000000000000000000000000000000000081526004016113ee906130d2565b60405180910390fd5b600460159054906101000a900460ff1615611447576040517f08c379a000000000000000000000000000000000000000000000000000000000815260040161143e9061313e565b60405180910390fd5b81600360009054906101000a900473ffffffffffffffffffffffffffffffffffffffff1673ffffffffffffffffffffffffffffffffffffffff1663579a6988826040518263ffffffff1660e01b81526004016114a39190611d34565b602060405180830381865afa1580156114c0573d6000803e3d6000fd5b505050506040513d601f19601f820116820180604052508101906114e49190612887565b611523576040517f08c379a000000000000000000000000000000000000000000000000000000000815260040161151a90612bae565b60405180910390fd5b84846000825111611569576040517f08c379a0000000000000000000000000000000000000000000000000000000008152600401611560906131d0565b60405180910390fd5b6000801b81036115ae576040517f08c379a00000000000000000000000000000000000000000000000000000000081526004016115a59061323c565b60405180910390fd5b6001600086815260200190815260200160002060020160009054906101000a900460ff1615611612576040517f08c379a0000000000000000000000000000000000000000000000000000000008152600401611609906132a8565b60405180910390fd5b6000600360009054906101000a900473ffffffffffffffffffffffffffffffffffffffff1673ffffffffffffffffffffffffffffffffffffffff16632436e06b876040518263ffffffff1660e01b815260040161166f9190611d34565b600060405180830381865afa15801561168c573d6000803e3d6000fd5b505050506040513d6000823e3d601f19601f820116820180604052508101906116b59190612f5a565b90506116c688888360200151611c49565b611705576040517f08c379a00000000000000000000000000000000000000000000000000000000081526004016116fc90613314565b60405180910390fd5b6040518060a001604052808981526020018881526020016001151581526020016000151581526020014281525060016000888152602001908152602001600020600082015181600001908161175a91906134e0565b506020820151816001015560408201518160020160006101000a81548160ff02191690831515021790555060608201518160020160016101000a81548160ff02191690831515021790555060808201518160030155905050600560008154809291906117c59061303e565b9190505550857f360a953ca6204e950fa88a5b660c09f12df914124ec5270703b41dcc58b56748886040516117fa91906135b2565b60405180910390a2600194505050505060016000819055509392505050565b60006001600083815260200190815260200160002060020160009054906101000a900460ff169050919050565b600080600460009054906101000a900473ffffffffffffffffffffffffffffffffffffffff1673ffffffffffffffffffffffffffffffffffffffff1663dc46d6ea6040518163ffffffff1660e01b8152600401602060405180830381865afa1580156118b6573d6000803e3d6000fd5b505050506040513d601f19601f820116820180604052508101906118da9190612455565b90508073ffffffffffffffffffffffffffffffffffffffff163373ffffffffffffffffffffffffffffffffffffffff161461194a576040517f08c379a0000000000000000000000000000000000000000000000000000000008152600401611941906124f4565b60405180910390fd5b600460159054906101000a900460ff16611999576040517f08c379a000000000000000000000000000000000000000000000000000000000815260040161199090613619565b60405180910390fd5b600460169054906101000a900460ff16156119e9576040517f08c379a00000000000000000000000000000000000000000000000000000000081526004016119e090612b42565b60405180910390fd5b6000600460156101000a81548160ff0219169083151502179055506001600460166101000a81548160ff021916908315150217905550600080611a2a610919565b915091507f758cd518a229b427c01a58941b0c921996768f8429d5e9c187d0febc215c748f6000604051611a5e91906126d8565b60405180910390a17f383d17e6f089dc92ff4bbc8a6ee30eedf97001fff7d5daaf718eaf96a9e7f1198282604051611a97929190612150565b60405180910390a16001935050505090565b6000602082511015611af0576040517f08c379a0000000000000000000000000000000000000000000000000000000008152600401611ae790613685565b60405180910390fd5b60006020830151905080915050919050565b600080600460009054906101000a900473ffffffffffffffffffffffffffffffffffffffff1673ffffffffffffffffffffffffffffffffffffffff16636f0470aa6040518163ffffffff1660e01b8152600401600060405180830381865afa158015611b72573d6000803e3d6000fd5b505050506040513d6000823e3d601f19601f82011682018060405250810190611b9b91906127e3565b905060005b8151811015611be25783828281518110611bbd57611bbc61282c565b5b602002602001015103611bd557600192505050611be9565b8080600101915050611ba0565b5060009150505b919050565b6000808383604051602001611c049291906136a5565b6040516020818303038152906040528051906020012090506000858051906020012090506000801b8114158015611c3e57506000801b8214155b925050509392505050565b6000808383604051602001611c5f9291906136a5565b6040516020818303038152906040528051906020012090506000858051906020012090506000801b8114158015611c9957506000801b8214155b925050509392505050565b6000604051905090565b600080fd5b600080fd5b6000819050919050565b611ccb81611cb8565b8114611cd657600080fd5b50565b600081359050611ce881611cc2565b92915050565b600060208284031215611d0457611d03611cae565b5b6000611d1284828501611cd9565b91505092915050565b6000819050919050565b611d2e81611d1b565b82525050565b6000602082019050611d496000830184611d25565b92915050565b60008115159050919050565b611d6481611d4f565b82525050565b6000602082019050611d7f6000830184611d5b565b92915050565b600073ffffffffffffffffffffffffffffffffffffffff82169050919050565b6000611db082611d85565b9050919050565b611dc081611da5565b82525050565b6000602082019050611ddb6000830184611db7565b92915050565b611dea81611d1b565b8114611df557600080fd5b50565b600081359050611e0781611de1565b92915050565b600060208284031215611e2357611e22611cae565b5b6000611e3184828501611df8565b91505092915050565b600081519050919050565b600082825260208201905092915050565b60005b83811015611e74578082015181840152602081019050611e59565b60008484015250505050565b6000601f19601f8301169050919050565b6000611e9c82611e3a565b611ea68185611e45565b9350611eb6818560208601611e56565b611ebf81611e80565b840191505092915050565b611ed381611cb8565b82525050565b600060a0820190508181036000830152611ef38188611e91565b9050611f026020830187611eca565b611f0f6040830186611d5b565b611f1c6060830185611d5b565b611f296080830184611d25565b9695505050505050565b600081519050919050565b600082825260208201905092915050565b6000611f5a82611f33565b611f648185611f3e565b9350611f74818560208601611e56565b611f7d81611e80565b840191505092915050565b6000608082019050611f9d6000830187611d25565b611faa6020830186611d25565b611fb76040830185611d25565b8181036060830152611fc98184611f4f565b905095945050505050565b600081519050919050565b600082825260208201905092915050565b6000819050602082019050919050565b61200981611cb8565b82525050565b600061201b8383612000565b60208301905092915050565b6000602082019050919050565b600061203f82611fd4565b6120498185611fdf565b935061205483611ff0565b8060005b8381101561208557815161206c888261200f565b975061207783612027565b925050600181019050612058565b5085935050505092915050565b600081519050919050565b600082825260208201905092915050565b6000819050602082019050919050565b6120c781611d1b565b82525050565b60006120d983836120be565b60208301905092915050565b6000602082019050919050565b60006120fd82612092565b612107818561209d565b9350612112836120ae565b8060005b8381101561214357815161212a88826120cd565b9750612135836120e5565b925050600181019050612116565b5085935050505092915050565b6000604082019050818103600083015261216a8185612034565b9050818103602083015261217e81846120f2565b90509392505050565b600080fd5b600080fd5b7f4e487b7100000000000000000000000000000000000000000000000000000000600052604160045260246000fd5b6121c982611e80565b810181811067ffffffffffffffff821117156121e8576121e7612191565b5b80604052505050565b60006121fb611ca4565b905061220782826121c0565b919050565b600067ffffffffffffffff82111561222757612226612191565b5b61223082611e80565b9050602081019050919050565b82818337600083830152505050565b600061225f61225a8461220c565b6121f1565b90508281526020810184848401111561227b5761227a61218c565b5b61228684828561223d565b509392505050565b600082601f8301126122a3576122a2612187565b5b81356122b384826020860161224c565b91505092915050565b600080604083850312156122d3576122d2611cae565b5b600083013567ffffffffffffffff8111156122f1576122f0611cb3565b5b6122fd8582860161228e565b925050602061230e85828601611df8565b9150509250929050565b60008060006060848603121561233157612330611cae565b5b600084013567ffffffffffffffff81111561234f5761234e611cb3565b5b61235b8682870161228e565b935050602061236c86828701611cd9565b925050604061237d86828701611df8565b9150509250925092565b7f4e487b7100000000000000000000000000000000000000000000000000000000600052602260045260246000fd5b600060028204905060018216806123ce57607f821691505b6020821081036123e1576123e0612387565b5b50919050565b6000815190506123f681611de1565b92915050565b60006020828403121561241257612411611cae565b5b6000612420848285016123e7565b91505092915050565b61243281611da5565b811461243d57600080fd5b50565b60008151905061244f81612429565b92915050565b60006020828403121561246b5761246a611cae565b5b600061247984828501612440565b91505092915050565b7f4f6e6c7920656c656374696f6e20617574686f726974792063616e2063616c6c60008201527f20746869732066756e6374696f6e000000000000000000000000000000000000602082015250565b60006124de602e83611f3e565b91506124e982612482565b604082019050919050565b6000602082019050818103600083015261250d816124d1565b9050919050565b7f566f74696e67207068617365206d75737420626520616374697665206669727360008201527f7400000000000000000000000000000000000000000000000000000000000000602082015250565b6000612570602183611f3e565b915061257b82612514565b604082019050919050565b6000602082019050818103600083015261259f81612563565b9050919050565b7f54616c6c79696e6720706861736520616c726561647920616374697665000000600082015250565b60006125dc601d83611f3e565b91506125e7826125a6565b602082019050919050565b6000602082019050818103600083015261260b816125cf565b9050919050565b7f766f74696e670000000000000000000000000000000000000000000000000000600082015250565b6000612648600683611f3e565b915061265382612612565b602082019050919050565b600060408201905081810360008301526126778161263b565b90506126866020830184611d5b565b92915050565b7f74616c6c79696e67000000000000000000000000000000000000000000000000600082015250565b60006126c2600883611f3e565b91506126cd8261268c565b602082019050919050565b600060408201905081810360008301526126f1816126b5565b90506127006020830184611d5b565b92915050565b600067ffffffffffffffff82111561272157612720612191565b5b602082029050602081019050919050565b600080fd5b60008151905061274681611cc2565b92915050565b600061275f61275a84612706565b6121f1565b9050808382526020820190506020840283018581111561278257612781612732565b5b835b818110156127ab57806127978882612737565b845260208401935050602081019050612784565b5050509392505050565b600082601f8301126127ca576127c9612187565b5b81516127da84826020860161274c565b91505092915050565b6000602082840312156127f9576127f8611cae565b5b600082015167ffffffffffffffff81111561281757612816611cb3565b5b612823848285016127b5565b91505092915050565b7f4e487b7100000000000000000000000000000000000000000000000000000000600052603260045260246000fd5b61286481611d4f565b811461286f57600080fd5b50565b6000815190506128818161285b565b92915050565b60006020828403121561289d5761289c611cae565b5b60006128ab84828501612872565b91505092915050565b7f456c656374696f6e206e6f742073657475700000000000000000000000000000600082015250565b60006128ea601283611f3e565b91506128f5826128b4565b602082019050919050565b60006020820190508181036000830152612919816128dd565b9050919050565b7f566f74696e6720706861736520616c7265616479206163746976650000000000600082015250565b6000612956601b83611f3e565b915061296182612920565b602082019050919050565b6000602082019050818103600083015261298581612949565b9050919050565b7f43616e6e6f7420737461727420766f74696e6720647572696e672074616c6c7960008201527f696e670000000000000000000000000000000000000000000000000000000000602082015250565b60006129e8602383611f3e565b91506129f38261298c565b604082019050919050565b60006020820190508181036000830152612a17816129db565b9050919050565b7f5265656e7472616e637947756172643a207265656e7472616e742063616c6c00600082015250565b6000612a54601f83611f3e565b9150612a5f82612a1e565b602082019050919050565b60006020820190508181036000830152612a8381612a47565b9050919050565b7f54616c6c79696e67207068617365206973206e6f742061637469766500000000600082015250565b6000612ac0601c83611f3e565b9150612acb82612a8a565b602082019050919050565b60006020820190508181036000830152612aef81612ab3565b9050919050565b7f526573756c747320616c72656164792066696e616c697a656400000000000000600082015250565b6000612b2c601983611f3e565b9150612b3782612af6565b602082019050919050565b60006020820190508181036000830152612b5b81612b1f565b9050919050565b7f566f746572206973206e6f742072656769737465726564000000000000000000600082015250565b6000612b98601783611f3e565b9150612ba382612b62565b602082019050919050565b60006020820190508181036000830152612bc781612b8b565b9050919050565b7f4e6f20766f7465207375626d697474656420666f72207468697320766f746572600082015250565b6000612c04602083611f3e565b9150612c0f82612bce565b602082019050919050565b60006020820190508181036000830152612c3381612bf7565b9050919050565b7f566f746520616c72656164792074616c6c696564000000000000000000000000600082015250565b6000612c70601483611f3e565b9150612c7b82612c3a565b602082019050919050565b60006020820190508181036000830152612c9f81612c63565b9050919050565b600060208284031215612cbc57612cbb611cae565b5b6000612cca84828501612737565b91505092915050565b600081905092915050565b6000612ce982611e3a565b612cf38185612cd3565b9350612d03818560208601611e56565b80840191505092915050565b6000819050919050565b612d2a612d2582611cb8565b612d0f565b82525050565b6000612d3c8285612cde565b9150612d488284612d19565b6020820191508190509392505050565b7f566f7465206861736820766572696669636174696f6e206661696c6564000000600082015250565b6000612d8e601d83611f3e565b9150612d9982612d58565b602082019050919050565b60006020820190508181036000830152612dbd81612d81565b9050919050565b7f496e76616c69642063616e646964617465000000000000000000000000000000600082015250565b6000612dfa601183611f3e565b9150612e0582612dc4565b602082019050919050565b60006020820190508181036000830152612e2981612ded565b9050919050565b600080fd5b600080fd5b6000612e4d612e488461220c565b6121f1565b905082815260208101848484011115612e6957612e6861218c565b5b612e74848285611e56565b509392505050565b600082601f830112612e9157612e90612187565b5b8151612ea1848260208601612e3a565b91505092915050565b600060808284031215612ec057612ebf612e30565b5b612eca60806121f1565b9050600082015167ffffffffffffffff811115612eea57612ee9612e35565b5b612ef684828501612e7c565b600083015250602082015167ffffffffffffffff811115612f1a57612f19612e35565b5b612f2684828501612e7c565b6020830152506040612f3a84828501612872565b6040830152506060612f4e848285016123e7565b60608301525092915050565b600060208284031215612f7057612f6f611cae565b5b600082015167ffffffffffffffff811115612f8e57612f8d611cb3565b5b612f9a84828501612eaa565b91505092915050565b7f496e76616c696420766f7465207369676e617475726500000000000000000000600082015250565b6000612fd9601683611f3e565b9150612fe482612fa3565b602082019050919050565b6000602082019050818103600083015261300881612fcc565b9050919050565b7f4e487b7100000000000000000000000000000000000000000000000000000000600052601160045260246000fd5b600061304982611d1b565b91507fffffffffffffffffffffffffffffffffffffffffffffffffffffffffffffffff820361307b5761307a61300f565b5b600182019050919050565b7f566f74696e67207068617365206973206e6f7420616374697665000000000000600082015250565b60006130bc601a83611f3e565b91506130c782613086565b602082019050919050565b600060208201905081810360008301526130eb816130af565b9050919050565b7f54616c6c79696e67207068617365206861732073746172746564000000000000600082015250565b6000613128601a83611f3e565b9150613133826130f2565b602082019050919050565b600060208201905081810360008301526131578161311b565b9050919050565b7f5369676e6174757265206f6e20686173682063616e6e6f7420626520656d707460008201527f7900000000000000000000000000000000000000000000000000000000000000602082015250565b60006131ba602183611f3e565b91506131c58261315e565b604082019050919050565b600060208201905081810360008301526131e9816131ad565b9050919050565b7f566f746520686173682063616e6e6f7420626520656d70747900000000000000600082015250565b6000613226601983611f3e565b9150613231826131f0565b602082019050919050565b6000602082019050818103600083015261325581613219565b9050919050565b7f566f746520616c7265616479207375626d697474656400000000000000000000600082015250565b6000613292601683611f3e565b915061329d8261325c565b602082019050919050565b600060208201905081810360008301526132c181613285565b9050919050565b7f496e76616c6964207369676e6174757265206f6e20766f746520686173680000600082015250565b60006132fe601e83611f3e565b9150613309826132c8565b602082019050919050565b6000602082019050818103600083015261332d816132f1565b9050919050565b60008190508160005260206000209050919050565b60006020601f8301049050919050565b600082821b905092915050565b6000600883026133967fffffffffffffffffffffffffffffffffffffffffffffffffffffffffffffffff82613359565b6133a08683613359565b95508019841693508086168417925050509392505050565b6000819050919050565b60006133dd6133d86133d384611d1b565b6133b8565b611d1b565b9050919050565b6000819050919050565b6133f7836133c2565b61340b613403826133e4565b848454613366565b825550505050565b600090565b613420613413565b61342b8184846133ee565b505050565b5b8181101561344f57613444600082613418565b600181019050613431565b5050565b601f8211156134945761346581613334565b61346e84613349565b8101602085101561347d578190505b61349161348985613349565b830182613430565b50505b505050565b600082821c905092915050565b60006134b760001984600802613499565b1980831691505092915050565b60006134d083836134a6565b9150826002028217905092915050565b6134e982611e3a565b67ffffffffffffffff81111561350257613501612191565b5b61350c82546123b6565b613517828285613453565b600060209050601f83116001811461354a5760008415613538578287015190505b61354285826134c4565b8655506135aa565b601f19841661355886613334565b60005b828110156135805784890151825560018201915060208501945060208101905061355b565b8683101561359d5784890151613599601f8916826134a6565b8355505b6001600288020188555050505b505050505050565b60006020820190506135c76000830184611eca565b92915050565b7f54616c6c79696e67207068617365206d75737420626520616374697665000000600082015250565b6000613603601d83611f3e565b915061360e826135cd565b602082019050919050565b60006020820190508181036000830152613632816135f6565b9050919050565b7f496e76616c696420766f7465207369676e6174757265206c656e677468000000600082015250565b600061366f601d83611f3e565b915061367a82613639565b602082019050919050565b6000602082019050818103600083015261369e81613662565b9050919050565b60006136b18285612d19565b6020820191506136c18284612cde565b9150819050939250505056fea264697066735822122064340649e45a193bfc986de6bee63ba3e81059f3e69bead8820cfaa7cc823cab64736f6c634300081c0033",
  "linkReferences": {},
  "deployedLinkReferences": {}
}