{
  "_format": "hh-sol-artifact-1",
  "contractName": "RegistrationContract",
  "sourceName": "contracts/RegistrationContract.sol",
  "abi": [
    {
      "inputs": [
        {
          "internalType": "address",
          "name": "_electionAuthority",
          "type": "address"
        }
      ],
      "stateMutability": "nonpayable",
      "type": "constructor"
    },
    {
      "anonymous": false,
      "inputs": [
        {
          "indexed": true,
          "internalType": "bytes",
          "name": "voterPublicKey",
          "type": "bytes"
        }
      ],
      "name": "CertificateStored",
      "type": "event"
    },
    {
      "anonymous": false,
      "inputs": [
        {
          "indexed": true,
          "internalType": "bytes32",
          "name": "electionId",
          "type": "bytes32"
        },
        {
          "indexed": false,
          "internalType": "uint256",
          "name": "candidateCount",
          "type": "uint256"
        }
      ],
      "name": "ElectionSetup",
      "type": "event"
    },
    {
      "anonymous": false,
      "inputs": [
        {
          "indexed": true,
          "internalType": "address",
          "name": "previousOwner",
          "type": "address"
        },
        {
          "indexed": true,
          "internalType": "address",
          "name": "newOwner",
          "type": "address"
        }
      ],
      "name": "OwnershipTransferred",
      "type": "event"
    },
    {
      "inputs": [
        {
          "internalType": "uint256",
          "name": "",
          "type": "uint256"
        }
      ],
      "name": "candidates",
      "outputs": [
        {
          "internalType": "bytes32",
          "name": "",
          "type": "bytes32"
        }
      ],
      "stateMutability": "view",
      "type": "function"
    },
    {
      "inputs": [
        {
          "internalType": "bytes",
          "name": "",
          "type": "bytes"
        }
      ],
      "name": "certifiedPublicKeys",
      "outputs": [
        {
          "internalType": "bool",
          "name": "",
          "type": "bool"
        }
      ],
      "stateMutability": "view",
      "type": "function"
    },
    {
      "inputs": [],
      "name": "electionAuthority",
      "outputs": [
        {
          "internalType": "address",
          "name": "",
          "type": "address"
        }
      ],
      "stateMutability": "view",
      "type": "function"
    },
    {
      "inputs": [],
      "name": "electionId",
      "outputs": [
        {
          "internalType": "bytes32",
          "name": "",
          "type": "bytes32"
        }
      ],
      "stateMutability": "view",
      "type": "function"
    },
    {
      "inputs": [],
      "name": "electionSetup",
      "outputs": [
        {
          "internalType": "bool",
          "name": "",
          "type": "bool"
        }
      ],
      "stateMutability": "view",
      "type": "function"
    },
    {
      "inputs": [],
      "name": "getCandidates",
      "outputs": [
        {
          "internalType": "bytes32[]",
          "name": "candidateList",
          "type": "bytes32[]"
        }
      ],
      "stateMutability": "view",
      "type": "function"
    },
    {
      "inputs": [
        {
          "internalType": "bytes",
          "name": "publicKey",
          "type": "bytes"
        }
      ],
      "name": "isCertified",
      "outputs": [
        {
          "internalType": "bool",
          "name": "certified",
          "type": "bool"
        }
      ],
      "stateMutability": "view",
      "type": "function"
    },
    {
      "inputs": [],
      "name": "isElectionSetup",
      "outputs": [
        {
          "internalType": "bool",
          "name": "setup",
          "type": "bool"
        }
      ],
      "stateMutability": "view",
      "type": "function"
    },
    {
      "inputs": [],
      "name": "owner",
      "outputs": [
        {
          "internalType": "address",
          "name": "",
          "type": "address"
        }
      ],
      "stateMutability": "view",
      "type": "function"
    },
    {
      "inputs": [],
      "name": "randomChallenge",
      "outputs": [
        {
          "internalType": "bytes32",
          "name": "",
          "type": "bytes32"
        }
      ],
      "stateMutability": "view",
      "type": "function"
    },
    {
      "inputs": [],
      "name": "resetElectionSetup",
      "outputs": [],
      "stateMutability": "nonpayable",
      "type": "function"
    },
    {
      "inputs": [
        {
          "internalType": "bytes32",
          "name": "_electionId",
          "type": "bytes32"
        },
        {
          "internalType": "bytes32[]",
          "name": "_candidates",
          "type": "bytes32[]"
        },
        {
          "internalType": "bytes32",
          "name": "_randomChallenge",
          "type": "bytes32"
        }
      ],
      "name": "storePollParams",
      "outputs": [
        {
          "internalType": "bool",
          "name": "success",
          "type": "bool"
        }
      ],
      "stateMutability": "nonpayable",
      "type": "function"
    },
    {
      "inputs": [
        {
          "components": [
            {
              "internalType": "bytes",
              "name": "governmentSignature",
              "type": "bytes"
            },
            {
              "internalType": "bytes",
              "name": "governmentPublicKey",
              "type": "bytes"
            },
            {
              "internalType": "bytes",
              "name": "voterPublicKey",
              "type": "bytes"
            }
          ],
          "internalType": "struct RegistrationContract.Certificate",
          "name": "cert",
          "type": "tuple"
        }
      ],
      "name": "storePub",
      "outputs": [
        {
          "internalType": "bool",
          "name": "success",
          "type": "bool"
        }
      ],
      "stateMutability": "nonpayable",
      "type": "function"
    },
    {
      "inputs": [
        {
          "internalType": "address",
          "name": "newOwner",
          "type": "address"
        }
      ],
      "name": "transferOwnership",
      "outputs": [],
      "stateMutability": "nonpayable",
      "type": "function"
    },
    {
      "inputs": [
        {
          "internalType": "address",
          "name": "newAuthority",
          "type": "address"
        }
      ],
      "name": "updateElectionAuthority",
      "outputs": [],
      "stateMutability": "nonpayable",
      "type": "function"
    }
  ],
  "bytecode": "0x608060405234801561001057600080fd5b50604051611f01380380611f01833981810160405281019061003291906101ef565b600073ffffffffffffffffffffffffffffffffffffffff168173ffffffffffffffffffffffffffffffffffffffff16036100a1576040517f08c379a00000000000000000000000000000000000000000000000000000000081526004016100989061029f565b60405180910390fd5b80600560006101000a81548173ffffffffffffffffffffffffffffffffffffffff021916908373ffffffffffffffffffffffffffffffffffffffff16021790555033600660006101000a81548173ffffffffffffffffffffffffffffffffffffffff021916908373ffffffffffffffffffffffffffffffffffffffff16021790555060016000819055503373ffffffffffffffffffffffffffffffffffffffff16600073ffffffffffffffffffffffffffffffffffffffff167f8be0079c531659141344cd1fd0a4f28419497f9722a3daafe3b4186f6b6457e060405160405180910390a3506102bf565b600080fd5b600073ffffffffffffffffffffffffffffffffffffffff82169050919050565b60006101bc82610191565b9050919050565b6101cc816101b1565b81146101d757600080fd5b50565b6000815190506101e9816101c3565b92915050565b6000602082840312156102055761020461018c565b5b6000610213848285016101da565b91505092915050565b600082825260208201905092915050565b7f496e76616c696420656c656374696f6e20617574686f7269747920616464726560008201527f7373000000000000000000000000000000000000000000000000000000000000602082015250565b600061028960228361021c565b91506102948261022d565b604082019050919050565b600060208201905081810360008301526102b88161027c565b9050919050565b611c33806102ce6000396000f3fe608060405234801561001057600080fd5b50600436106100f55760003560e01c806386a916f311610097578063f2fde38b11610066578063f2fde38b14610278578063f8d7fe1114610294578063f92051ff146102b0578063fca5a068146102ce576100f5565b806386a916f3146101dc5780638da5cb5b1461020c5780639e63420c1461022a578063dc46d6ea1461025a576100f5565b80631b12acb5116100d35780631b12acb5146101545780633477ee2e146101845780637c2f3c2c146101b45780637ed58d9e146101d2576100f5565b8063037ca79b146100fa578063051364d41461011857806306a49fce14610136575b600080fd5b6101026102fe565b60405161010f9190610e3c565b60405180910390f35b610120610304565b60405161012d9190610e3c565b60405180910390f35b61013e61030a565b60405161014b9190610f15565b60405180910390f35b61016e600480360381019061016991906110d0565b610362565b60405161017b919061115a565b60405180910390f35b61019e600480360381019061019991906111ab565b6105eb565b6040516101ab9190610e3c565b60405180910390f35b6101bc61060f565b6040516101c9919061115a565b60405180910390f35b6101da610622565b005b6101f660048036038101906101f1919061128d565b6106e9565b604051610203919061115a565b60405180910390f35b61021461071f565b6040516102219190611317565b60405180910390f35b610244600480360381019061023f919061128d565b610749565b604051610251919061115a565b60405180910390f35b61026261077e565b60405161026f9190611317565b60405180910390f35b610292600480360381019061028d919061135e565b6107a4565b005b6102ae60048036038101906102a9919061135e565b610963565b005b6102b8610aa6565b6040516102c5919061115a565b60405180910390f35b6102e860048036038101906102e3919061144d565b610abd565b6040516102f5919061115a565b60405180910390f35b60045481565b60025481565b6060600380548060200260200160405190810160405280929190818152602001828054801561035857602002820191906000526020600020905b815481526020019060010190808311610344575b5050505050905090565b6000600560009054906101000a900473ffffffffffffffffffffffffffffffffffffffff1673ffffffffffffffffffffffffffffffffffffffff163373ffffffffffffffffffffffffffffffffffffffff16146103f4576040517f08c379a00000000000000000000000000000000000000000000000000000000081526004016103eb90611519565b60405180910390fd5b600260005403610439576040517f08c379a000000000000000000000000000000000000000000000000000000000815260040161043090611585565b60405180910390fd5b6002600081905550600560149054906101000a900460ff1615610491576040517f08c379a0000000000000000000000000000000000000000000000000000000008152600401610488906115f1565b60405180910390fd5b6000801b84036104d6576040517f08c379a00000000000000000000000000000000000000000000000000000000081526004016104cd9061165d565b60405180910390fd5b600083511161051a576040517f08c379a0000000000000000000000000000000000000000000000000000000008152600401610511906116c9565b60405180910390fd5b6000801b820361055f576040517f08c379a000000000000000000000000000000000000000000000000000000000815260040161055690611735565b60405180910390fd5b83600281905550826003908051906020019061057c929190610d98565b50816004819055506001600560146101000a81548160ff021916908315150217905550837f94173071df82ab9220ed7e9cd494d742f5636de837190a105964a7d19cf9cd1f84516040516105d09190611764565b60405180910390a26001905060016000819055509392505050565b600381815481106105fb57600080fd5b906000526020600020016000915090505481565b600560149054906101000a900460ff1681565b600560009054906101000a900473ffffffffffffffffffffffffffffffffffffffff1673ffffffffffffffffffffffffffffffffffffffff163373ffffffffffffffffffffffffffffffffffffffff16146106b2576040517f08c379a00000000000000000000000000000000000000000000000000000000081526004016106a990611519565b60405180910390fd5b6000600560146101000a81548160ff021916908315150217905550600260009055600360006106e19190610de5565b600460009055565b6001818051602081018201805184825260208301602085012081835280955050505050506000915054906101000a900460ff1681565b6000600660009054906101000a900473ffffffffffffffffffffffffffffffffffffffff16905090565b600060018260405161075b91906117f0565b908152602001604051809103902060009054906101000a900460ff169050919050565b600560009054906101000a900473ffffffffffffffffffffffffffffffffffffffff1681565b600660009054906101000a900473ffffffffffffffffffffffffffffffffffffffff1673ffffffffffffffffffffffffffffffffffffffff163373ffffffffffffffffffffffffffffffffffffffff1614610834576040517f08c379a000000000000000000000000000000000000000000000000000000000815260040161082b90611853565b60405180910390fd5b600073ffffffffffffffffffffffffffffffffffffffff168173ffffffffffffffffffffffffffffffffffffffff16036108a3576040517f08c379a000000000000000000000000000000000000000000000000000000000815260040161089a906118e5565b60405180910390fd5b8073ffffffffffffffffffffffffffffffffffffffff16600660009054906101000a900473ffffffffffffffffffffffffffffffffffffffff1673ffffffffffffffffffffffffffffffffffffffff167f8be0079c531659141344cd1fd0a4f28419497f9722a3daafe3b4186f6b6457e060405160405180910390a380600660006101000a81548173ffffffffffffffffffffffffffffffffffffffff021916908373ffffffffffffffffffffffffffffffffffffffff16021790555050565b600560009054906101000a900473ffffffffffffffffffffffffffffffffffffffff1673ffffffffffffffffffffffffffffffffffffffff163373ffffffffffffffffffffffffffffffffffffffff16146109f3576040517f08c379a00000000000000000000000000000000000000000000000000000000081526004016109ea90611519565b60405180910390fd5b600073ffffffffffffffffffffffffffffffffffffffff168173ffffffffffffffffffffffffffffffffffffffff1603610a62576040517f08c379a0000000000000000000000000000000000000000000000000000000008152600401610a5990611951565b60405180910390fd5b80600560006101000a81548173ffffffffffffffffffffffffffffffffffffffff021916908373ffffffffffffffffffffffffffffffffffffffff16021790555050565b6000600560149054906101000a900460ff16905090565b6000600260005403610b04576040517f08c379a0000000000000000000000000000000000000000000000000000000008152600401610afb90611585565b60405180910390fd5b600260008190555081600081600001515111610b55576040517f08c379a0000000000000000000000000000000000000000000000000000000008152600401610b4c906119e3565b60405180910390fd5b600081602001515111610b9d576040517f08c379a0000000000000000000000000000000000000000000000000000000008152600401610b9490611a75565b60405180910390fd5b600081604001515111610be5576040517f08c379a0000000000000000000000000000000000000000000000000000000008152600401610bdc90611ae1565b60405180910390fd5b60018360400151604051610bf991906117f0565b908152602001604051809103902060009054906101000a900460ff1615610c55576040517f08c379a0000000000000000000000000000000000000000000000000000000008152600401610c4c90611b4d565b60405180910390fd5b610c6c836040015184602001518560000151610d3d565b610cab576040517f08c379a0000000000000000000000000000000000000000000000000000000008152600401610ca290611bb9565b60405180910390fd5b6001808460400151604051610cc091906117f0565b908152602001604051809103902060006101000a81548160ff0219169083151502179055508260400151604051610cf791906117f0565b60405180910390207f844132504f1ee121f05e133e3d136851253d1448118ba9e61c3ad0efbdadd6de60405160405180910390a260019150506001600081905550919050565b6000808484604051602001610d53929190611bd9565b6040516020818303038152906040528051906020012090506000838051906020012090506000801b8114158015610d8d57506000801b8214155b925050509392505050565b828054828255906000526020600020908101928215610dd4579160200282015b82811115610dd3578251825591602001919060010190610db8565b5b509050610de19190610e06565b5090565b5080546000825590600052602060002090810190610e039190610e06565b50565b5b80821115610e1f576000816000905550600101610e07565b5090565b6000819050919050565b610e3681610e23565b82525050565b6000602082019050610e516000830184610e2d565b92915050565b600081519050919050565b600082825260208201905092915050565b6000819050602082019050919050565b610e8c81610e23565b82525050565b6000610e9e8383610e83565b60208301905092915050565b6000602082019050919050565b6000610ec282610e57565b610ecc8185610e62565b9350610ed783610e73565b8060005b83811015610f08578151610eef8882610e92565b9750610efa83610eaa565b925050600181019050610edb565b5085935050505092915050565b60006020820190508181036000830152610f2f8184610eb7565b905092915050565b6000604051905090565b600080fd5b600080fd5b610f5481610e23565b8114610f5f57600080fd5b50565b600081359050610f7181610f4b565b92915050565b600080fd5b6000601f19601f8301169050919050565b7f4e487b7100000000000000000000000000000000000000000000000000000000600052604160045260246000fd5b610fc582610f7c565b810181811067ffffffffffffffff82111715610fe457610fe3610f8d565b5b80604052505050565b6000610ff7610f37565b90506110038282610fbc565b919050565b600067ffffffffffffffff82111561102357611022610f8d565b5b602082029050602081019050919050565b600080fd5b600061104c61104784611008565b610fed565b9050808382526020820190506020840283018581111561106f5761106e611034565b5b835b8181101561109857806110848882610f62565b845260208401935050602081019050611071565b5050509392505050565b600082601f8301126110b7576110b6610f77565b5b81356110c7848260208601611039565b91505092915050565b6000806000606084860312156110e9576110e8610f41565b5b60006110f786828701610f62565b935050602084013567ffffffffffffffff81111561111857611117610f46565b5b611124868287016110a2565b925050604061113586828701610f62565b9150509250925092565b60008115159050919050565b6111548161113f565b82525050565b600060208201905061116f600083018461114b565b92915050565b6000819050919050565b61118881611175565b811461119357600080fd5b50565b6000813590506111a58161117f565b92915050565b6000602082840312156111c1576111c0610f41565b5b60006111cf84828501611196565b91505092915050565b600080fd5b600067ffffffffffffffff8211156111f8576111f7610f8d565b5b61120182610f7c565b9050602081019050919050565b82818337600083830152505050565b600061123061122b846111dd565b610fed565b90508281526020810184848401111561124c5761124b6111d8565b5b61125784828561120e565b509392505050565b600082601f83011261127457611273610f77565b5b813561128484826020860161121d565b91505092915050565b6000602082840312156112a3576112a2610f41565b5b600082013567ffffffffffffffff8111156112c1576112c0610f46565b5b6112cd8482850161125f565b91505092915050565b600073ffffffffffffffffffffffffffffffffffffffff82169050919050565b6000611301826112d6565b9050919050565b611311816112f6565b82525050565b600060208201905061132c6000830184611308565b92915050565b61133b816112f6565b811461134657600080fd5b50565b60008135905061135881611332565b92915050565b60006020828403121561137457611373610f41565b5b600061138284828501611349565b91505092915050565b600080fd5b600080fd5b6000606082840312156113ab576113aa61138b565b5b6113b56060610fed565b9050600082013567ffffffffffffffff8111156113d5576113d4611390565b5b6113e18482850161125f565b600083015250602082013567ffffffffffffffff81111561140557611404611390565b5b6114118482850161125f565b602083015250604082013567ffffffffffffffff81111561143557611434611390565b5b6114418482850161125f565b60408301525092915050565b60006020828403121561146357611462610f41565b5b600082013567ffffffffffffffff81111561148157611480610f46565b5b61148d84828501611395565b91505092915050565b600082825260208201905092915050565b7f4f6e6c7920656c656374696f6e20617574686f726974792063616e2063616c6c60008201527f20746869732066756e6374696f6e000000000000000000000000000000000000602082015250565b6000611503602e83611496565b915061150e826114a7565b604082019050919050565b60006020820190508181036000830152611532816114f6565b9050919050565b7f5265656e7472616e637947756172643a207265656e7472616e742063616c6c00600082015250565b600061156f601f83611496565b915061157a82611539565b602082019050919050565b6000602082019050818103600083015261159e81611562565b9050919050565b7f456c656374696f6e20616c726561647920736574757000000000000000000000600082015250565b60006115db601683611496565b91506115e6826115a5565b602082019050919050565b6000602082019050818103600083015261160a816115ce565b9050919050565b7f496e76616c696420656c656374696f6e20494400000000000000000000000000600082015250565b6000611647601383611496565b915061165282611611565b602082019050919050565b600060208201905081810360008301526116768161163a565b9050919050565b7f4d7573742068617665206174206c65617374206f6e652063616e646964617465600082015250565b60006116b3602083611496565b91506116be8261167d565b602082019050919050565b600060208201905081810360008301526116e2816116a6565b9050919050565b7f496e76616c69642072616e646f6d206368616c6c656e67650000000000000000600082015250565b600061171f601883611496565b915061172a826116e9565b602082019050919050565b6000602082019050818103600083015261174e81611712565b9050919050565b61175e81611175565b82525050565b60006020820190506117796000830184611755565b92915050565b600081519050919050565b600081905092915050565b60005b838110156117b3578082015181840152602081019050611798565b60008484015250505050565b60006117ca8261177f565b6117d4818561178a565b93506117e4818560208601611795565b80840191505092915050565b60006117fc82846117bf565b915081905092915050565b7f4f776e61626c653a2063616c6c6572206973206e6f7420746865206f776e6572600082015250565b600061183d602083611496565b915061184882611807565b602082019050919050565b6000602082019050818103600083015261186c81611830565b9050919050565b7f4f776e61626c653a206e6577206f776e657220697320746865207a65726f206160008201527f6464726573730000000000000000000000000000000000000000000000000000602082015250565b60006118cf602683611496565b91506118da82611873565b604082019050919050565b600060208201905081810360008301526118fe816118c2565b9050919050565b7f496e76616c6964206e657720617574686f726974792061646472657373000000600082015250565b600061193b601d83611496565b915061194682611905565b602082019050919050565b6000602082019050818103600083015261196a8161192e565b9050919050565b7f476f7665726e6d656e74207369676e61747572652063616e6e6f74206265206560008201527f6d70747900000000000000000000000000000000000000000000000000000000602082015250565b60006119cd602483611496565b91506119d882611971565b604082019050919050565b600060208201905081810360008301526119fc816119c0565b9050919050565b7f476f7665726e6d656e74207075626c6963206b65792063616e6e6f742062652060008201527f656d707479000000000000000000000000000000000000000000000000000000602082015250565b6000611a5f602583611496565b9150611a6a82611a03565b604082019050919050565b60006020820190508181036000830152611a8e81611a52565b9050919050565b7f566f746572207075626c6963206b65792063616e6e6f7420626520656d707479600082015250565b6000611acb602083611496565b9150611ad682611a95565b602082019050919050565b60006020820190508181036000830152611afa81611abe565b9050919050565b7f5075626c6963206b657920616c72656164792063657274696669656400000000600082015250565b6000611b37601c83611496565b9150611b4282611b01565b602082019050919050565b60006020820190508181036000830152611b6681611b2a565b9050919050565b7f496e76616c696420676f7665726e6d656e74207369676e617475726500000000600082015250565b6000611ba3601c83611496565b9150611bae82611b6d565b602082019050919050565b60006020820190508181036000830152611bd281611b96565b9050919050565b6000611be582856117bf565b9150611bf182846117bf565b9150819050939250505056fea26469706673582212205d6864cb5587a0c084b4f3013ce7c5d8433190641079e78fdc0a1788fbf5a24e64736f6c634300081c0033",
  "linkReferences": {},
  "deployedLinkReferences": {}
}